{
    "_format": "hh-sol-artifact-1",
    "contractName": "SampleNFT",
    "sourceName": "contracts/SampleNFT.sol",
    "abi": [
        {
            "inputs": [],
            "stateMutability": "nonpayable",
            "type": "constructor"
        },
        {
            "anonymous": false,
            "inputs": [
                {
                    "indexed": true,
                    "internalType": "address",
                    "name": "owner",
                    "type": "address"
                },
                {
                    "indexed": true,
                    "internalType": "address",
                    "name": "approved",
                    "type": "address"
                },
                {
                    "indexed": true,
                    "internalType": "uint256",
                    "name": "tokenId",
                    "type": "uint256"
                }
            ],
            "name": "Approval",
            "type": "event"
        },
        {
            "anonymous": false,
            "inputs": [
                {
                    "indexed": true,
                    "internalType": "address",
                    "name": "owner",
                    "type": "address"
                },
                {
                    "indexed": true,
                    "internalType": "address",
                    "name": "operator",
                    "type": "address"
                },
                {
                    "indexed": false,
                    "internalType": "bool",
                    "name": "approved",
                    "type": "bool"
                }
            ],
            "name": "ApprovalForAll",
            "type": "event"
        },
        {
            "anonymous": false,
            "inputs": [
                {
                    "indexed": true,
                    "internalType": "address",
                    "name": "previousOwner",
                    "type": "address"
                },
                {
                    "indexed": true,
                    "internalType": "address",
                    "name": "newOwner",
                    "type": "address"
                }
            ],
            "name": "OwnershipTransferred",
            "type": "event"
        },
        {
            "anonymous": false,
            "inputs": [
                {
                    "indexed": true,
                    "internalType": "address",
                    "name": "from",
                    "type": "address"
                },
                {
                    "indexed": true,
                    "internalType": "address",
                    "name": "to",
                    "type": "address"
                },
                {
                    "indexed": true,
                    "internalType": "uint256",
                    "name": "tokenId",
                    "type": "uint256"
                }
            ],
            "name": "Transfer",
            "type": "event"
        },
        {
            "inputs": [
                {
                    "internalType": "address",
                    "name": "to",
                    "type": "address"
                },
                {
                    "internalType": "uint256",
                    "name": "tokenId",
                    "type": "uint256"
                }
            ],
            "name": "approve",
            "outputs": [],
            "stateMutability": "nonpayable",
            "type": "function"
        },
        {
            "inputs": [
                {
                    "internalType": "address",
                    "name": "owner",
                    "type": "address"
                }
            ],
            "name": "balanceOf",
            "outputs": [
                {
                    "internalType": "uint256",
                    "name": "",
                    "type": "uint256"
                }
            ],
            "stateMutability": "view",
            "type": "function"
        },
        {
            "inputs": [
                {
                    "internalType": "uint256",
                    "name": "tokenId",
                    "type": "uint256"
                }
            ],
            "name": "getApproved",
            "outputs": [
                {
                    "internalType": "address",
                    "name": "",
                    "type": "address"
                }
            ],
            "stateMutability": "view",
            "type": "function"
        },
        {
            "inputs": [],
            "name": "getBaseURI",
            "outputs": [
                {
                    "internalType": "string",
                    "name": "",
                    "type": "string"
                }
            ],
            "stateMutability": "view",
            "type": "function"
        },
        {
            "inputs": [
                {
                    "internalType": "address",
                    "name": "owner",
                    "type": "address"
                },
                {
                    "internalType": "address",
                    "name": "operator",
                    "type": "address"
                }
            ],
            "name": "isApprovedForAll",
            "outputs": [
                {
                    "internalType": "bool",
                    "name": "",
                    "type": "bool"
                }
            ],
            "stateMutability": "view",
            "type": "function"
        },
        {
            "inputs": [
                {
                    "internalType": "address",
                    "name": "_receiver",
                    "type": "address"
                }
            ],
            "name": "mint",
            "outputs": [],
            "stateMutability": "nonpayable",
            "type": "function"
        },
        {
            "inputs": [],
            "name": "name",
            "outputs": [
                {
                    "internalType": "string",
                    "name": "",
                    "type": "string"
                }
            ],
            "stateMutability": "view",
            "type": "function"
        },
        {
            "inputs": [],
            "name": "owner",
            "outputs": [
                {
                    "internalType": "address",
                    "name": "",
                    "type": "address"
                }
            ],
            "stateMutability": "view",
            "type": "function"
        },
        {
            "inputs": [
                {
                    "internalType": "uint256",
                    "name": "tokenId",
                    "type": "uint256"
                }
            ],
            "name": "ownerOf",
            "outputs": [
                {
                    "internalType": "address",
                    "name": "",
                    "type": "address"
                }
            ],
            "stateMutability": "view",
            "type": "function"
        },
        {
            "inputs": [],
            "name": "renounceOwnership",
            "outputs": [],
            "stateMutability": "nonpayable",
            "type": "function"
        },
        {
            "inputs": [
                {
                    "internalType": "address",
                    "name": "from",
                    "type": "address"
                },
                {
                    "internalType": "address",
                    "name": "to",
                    "type": "address"
                },
                {
                    "internalType": "uint256",
                    "name": "tokenId",
                    "type": "uint256"
                }
            ],
            "name": "safeTransferFrom",
            "outputs": [],
            "stateMutability": "nonpayable",
            "type": "function"
        },
        {
            "inputs": [
                {
                    "internalType": "address",
                    "name": "from",
                    "type": "address"
                },
                {
                    "internalType": "address",
                    "name": "to",
                    "type": "address"
                },
                {
                    "internalType": "uint256",
                    "name": "tokenId",
                    "type": "uint256"
                },
                {
                    "internalType": "bytes",
                    "name": "data",
                    "type": "bytes"
                }
            ],
            "name": "safeTransferFrom",
            "outputs": [],
            "stateMutability": "nonpayable",
            "type": "function"
        },
        {
            "inputs": [
                {
                    "internalType": "address",
                    "name": "operator",
                    "type": "address"
                },
                {
                    "internalType": "bool",
                    "name": "approved",
                    "type": "bool"
                }
            ],
            "name": "setApprovalForAll",
            "outputs": [],
            "stateMutability": "nonpayable",
            "type": "function"
        },
        {
            "inputs": [
                {
                    "internalType": "string",
                    "name": "baseURI_",
                    "type": "string"
                }
            ],
            "name": "setBaseURI",
            "outputs": [],
            "stateMutability": "nonpayable",
            "type": "function"
        },
        {
            "inputs": [
                {
                    "internalType": "bytes4",
                    "name": "interfaceId",
                    "type": "bytes4"
                }
            ],
            "name": "supportsInterface",
            "outputs": [
                {
                    "internalType": "bool",
                    "name": "",
                    "type": "bool"
                }
            ],
            "stateMutability": "view",
            "type": "function"
        },
        {
            "inputs": [],
            "name": "symbol",
            "outputs": [
                {
                    "internalType": "string",
                    "name": "",
                    "type": "string"
                }
            ],
            "stateMutability": "view",
            "type": "function"
        },
        {
            "inputs": [
                {
                    "internalType": "uint256",
                    "name": "_tokenID",
                    "type": "uint256"
                }
            ],
            "name": "tokenURI",
            "outputs": [
                {
                    "internalType": "string",
                    "name": "",
                    "type": "string"
                }
            ],
            "stateMutability": "view",
            "type": "function"
        },
        {
            "inputs": [
                {
                    "internalType": "address",
                    "name": "from",
                    "type": "address"
                },
                {
                    "internalType": "address",
                    "name": "to",
                    "type": "address"
                },
                {
                    "internalType": "uint256",
                    "name": "tokenId",
                    "type": "uint256"
                }
            ],
            "name": "transferFrom",
            "outputs": [],
            "stateMutability": "nonpayable",
            "type": "function"
        },
        {
            "inputs": [
                {
                    "internalType": "address",
                    "name": "newOwner",
                    "type": "address"
                }
            ],
            "name": "transferOwnership",
            "outputs": [],
            "stateMutability": "nonpayable",
            "type": "function"
        }
    ],
    "bytecode": "0x60806040523480156200001157600080fd5b506040518060400160405280600981526020017f53616d706c654e465400000000000000000000000000000000000000000000008152506040518060400160405280600581526020017f53504e465400000000000000000000000000000000000000000000000000000081525081600090816200008f919062000412565b508060019081620000a1919062000412565b505050620000c4620000b8620000ca60201b60201c565b620000d260201b60201c565b620004f9565b600033905090565b6000600660009054906101000a900473ffffffffffffffffffffffffffffffffffffffff16905081600660006101000a81548173ffffffffffffffffffffffffffffffffffffffff021916908373ffffffffffffffffffffffffffffffffffffffff1602179055508173ffffffffffffffffffffffffffffffffffffffff168173ffffffffffffffffffffffffffffffffffffffff167f8be0079c531659141344cd1fd0a4f28419497f9722a3daafe3b4186f6b6457e060405160405180910390a35050565b600081519050919050565b7f4e487b7100000000000000000000000000000000000000000000000000000000600052604160045260246000fd5b7f4e487b7100000000000000000000000000000000000000000000000000000000600052602260045260246000fd5b600060028204905060018216806200021a57607f821691505b60208210810362000230576200022f620001d2565b5b50919050565b60008190508160005260206000209050919050565b60006020601f8301049050919050565b600082821b905092915050565b6000600883026200029a7fffffffffffffffffffffffffffffffffffffffffffffffffffffffffffffffff826200025b565b620002a686836200025b565b95508019841693508086168417925050509392505050565b6000819050919050565b6000819050919050565b6000620002f3620002ed620002e784620002be565b620002c8565b620002be565b9050919050565b6000819050919050565b6200030f83620002d2565b620003276200031e82620002fa565b84845462000268565b825550505050565b600090565b6200033e6200032f565b6200034b81848462000304565b505050565b5b8181101562000373576200036760008262000334565b60018101905062000351565b5050565b601f821115620003c2576200038c8162000236565b62000397846200024b565b81016020851015620003a7578190505b620003bf620003b6856200024b565b83018262000350565b50505b505050565b600082821c905092915050565b6000620003e760001984600802620003c7565b1980831691505092915050565b6000620004028383620003d4565b9150826002028217905092915050565b6200041d8262000198565b67ffffffffffffffff811115620004395762000438620001a3565b5b62000445825462000201565b6200045282828562000377565b600060209050601f8311600181146200048a576000841562000475578287015190505b620004818582620003f4565b865550620004f1565b601f1984166200049a8662000236565b60005b82811015620004c4578489015182556001820191506020850194506020810190506200049d565b86831015620004e45784890151620004e0601f891682620003d4565b8355505b6001600288020188555050505b505050505050565b612f8780620005096000396000f3fe608060405234801561001057600080fd5b50600436106101215760003560e01c806370a08231116100ad578063a22cb46511610071578063a22cb465146102f4578063b88d4fde14610310578063c87b56dd1461032c578063e985e9c51461035c578063f2fde38b1461038c57610121565b806370a0823114610260578063714c539814610290578063715018a6146102ae5780638da5cb5b146102b857806395d89b41146102d657610121565b806323b872dd116100f457806323b872dd146101c057806342842e0e146101dc57806355f804b3146101f85780636352211e146102145780636a6278421461024457610121565b806301ffc9a71461012657806306fdde0314610156578063081812fc14610174578063095ea7b3146101a4575b600080fd5b610140600480360381019061013b9190611c9d565b6103a8565b60405161014d9190611ce5565b60405180910390f35b61015e61048a565b60405161016b9190611d90565b60405180910390f35b61018e60048036038101906101899190611de8565b61051c565b60405161019b9190611e56565b60405180910390f35b6101be60048036038101906101b99190611e9d565b610562565b005b6101da60048036038101906101d59190611edd565b610679565b005b6101f660048036038101906101f19190611edd565b6106d9565b005b610212600480360381019061020d9190612065565b6106f9565b005b61022e60048036038101906102299190611de8565b610714565b60405161023b9190611e56565b60405180910390f35b61025e600480360381019061025991906120ae565b61079a565b005b61027a600480360381019061027591906120ae565b6107c2565b60405161028791906120ea565b60405180910390f35b610298610879565b6040516102a59190611d90565b60405180910390f35b6102b661090b565b005b6102c061091f565b6040516102cd9190611e56565b60405180910390f35b6102de610949565b6040516102eb9190611d90565b60405180910390f35b61030e60048036038101906103099190612131565b6109db565b005b61032a60048036038101906103259190612212565b6109f1565b005b61034660048036038101906103419190611de8565b610a53565b6040516103539190611d90565b60405180910390f35b61037660048036038101906103719190612295565b610adb565b6040516103839190611ce5565b60405180910390f35b6103a660048036038101906103a191906120ae565b610b6f565b005b60007f80ac58cd000000000000000000000000000000000000000000000000000000007bffffffffffffffffffffffffffffffffffffffffffffffffffffffff1916827bffffffffffffffffffffffffffffffffffffffffffffffffffffffff1916148061047357507f5b5e139f000000000000000000000000000000000000000000000000000000007bffffffffffffffffffffffffffffffffffffffffffffffffffffffff1916827bffffffffffffffffffffffffffffffffffffffffffffffffffffffff1916145b80610483575061048282610bf2565b5b9050919050565b60606000805461049990612304565b80601f01602080910402602001604051908101604052809291908181526020018280546104c590612304565b80156105125780601f106104e757610100808354040283529160200191610512565b820191906000526020600020905b8154815290600101906020018083116104f557829003601f168201915b5050505050905090565b600061052782610c5c565b6004600083815260200190815260200160002060009054906101000a900473ffffffffffffffffffffffffffffffffffffffff169050919050565b600061056d82610714565b90508073ffffffffffffffffffffffffffffffffffffffff168373ffffffffffffffffffffffffffffffffffffffff16036105dd576040517f08c379a00000000000000000000000000000000000000000000000000000000081526004016105d4906123a7565b60405180910390fd5b8073ffffffffffffffffffffffffffffffffffffffff166105fc610ca7565b73ffffffffffffffffffffffffffffffffffffffff16148061062b575061062a81610625610ca7565b610adb565b5b61066a576040517f08c379a000000000000000000000000000000000000000000000000000000000815260040161066190612439565b60405180910390fd5b6106748383610caf565b505050565b61068a610684610ca7565b82610d68565b6106c9576040517f08c379a00000000000000000000000000000000000000000000000000000000081526004016106c0906124cb565b60405180910390fd5b6106d4838383610dfd565b505050565b6106f4838383604051806020016040528060008152506109f1565b505050565b6107016110f6565b80600890816107109190612697565b5050565b60008061072083611174565b9050600073ffffffffffffffffffffffffffffffffffffffff168173ffffffffffffffffffffffffffffffffffffffff1603610791576040517f08c379a0000000000000000000000000000000000000000000000000000000008152600401610788906127b5565b60405180910390fd5b80915050919050565b6107a26110f6565b6107b5816107b060076111b1565b6111bf565b6107bf60076111dd565b50565b60008073ffffffffffffffffffffffffffffffffffffffff168273ffffffffffffffffffffffffffffffffffffffff1603610832576040517f08c379a000000000000000000000000000000000000000000000000000000000815260040161082990612847565b60405180910390fd5b600360008373ffffffffffffffffffffffffffffffffffffffff1673ffffffffffffffffffffffffffffffffffffffff168152602001908152602001600020549050919050565b60606008805461088890612304565b80601f01602080910402602001604051908101604052809291908181526020018280546108b490612304565b80156109015780601f106108d657610100808354040283529160200191610901565b820191906000526020600020905b8154815290600101906020018083116108e457829003601f168201915b5050505050905090565b6109136110f6565b61091d60006111f3565b565b6000600660009054906101000a900473ffffffffffffffffffffffffffffffffffffffff16905090565b60606001805461095890612304565b80601f016020809104026020016040519081016040528092919081815260200182805461098490612304565b80156109d15780601f106109a6576101008083540402835291602001916109d1565b820191906000526020600020905b8154815290600101906020018083116109b457829003601f168201915b5050505050905090565b6109ed6109e6610ca7565b83836112b9565b5050565b610a026109fc610ca7565b83610d68565b610a41576040517f08c379a0000000000000000000000000000000000000000000000000000000008152600401610a38906124cb565b60405180910390fd5b610a4d84848484611425565b50505050565b6060610a5e82611481565b610a9d576040517f08c379a0000000000000000000000000000000000000000000000000000000008152600401610a94906128d9565b60405180910390fd5b6000610aa7610879565b905080610ab3846114c2565b604051602001610ac4929190612981565b604051602081830303815290604052915050919050565b6000600560008473ffffffffffffffffffffffffffffffffffffffff1673ffffffffffffffffffffffffffffffffffffffff16815260200190815260200160002060008373ffffffffffffffffffffffffffffffffffffffff1673ffffffffffffffffffffffffffffffffffffffff16815260200190815260200160002060009054906101000a900460ff16905092915050565b610b776110f6565b600073ffffffffffffffffffffffffffffffffffffffff168173ffffffffffffffffffffffffffffffffffffffff1603610be6576040517f08c379a0000000000000000000000000000000000000000000000000000000008152600401610bdd90612a22565b60405180910390fd5b610bef816111f3565b50565b60007f01ffc9a7000000000000000000000000000000000000000000000000000000007bffffffffffffffffffffffffffffffffffffffffffffffffffffffff1916827bffffffffffffffffffffffffffffffffffffffffffffffffffffffff1916149050919050565b610c6581611481565b610ca4576040517f08c379a0000000000000000000000000000000000000000000000000000000008152600401610c9b906127b5565b60405180910390fd5b50565b600033905090565b816004600083815260200190815260200160002060006101000a81548173ffffffffffffffffffffffffffffffffffffffff021916908373ffffffffffffffffffffffffffffffffffffffff160217905550808273ffffffffffffffffffffffffffffffffffffffff16610d2283610714565b73ffffffffffffffffffffffffffffffffffffffff167f8c5be1e5ebec7d5bd14f71427d1e84f3dd0314c0f7b2291e5b200ac8c7c3b92560405160405180910390a45050565b600080610d7483610714565b90508073ffffffffffffffffffffffffffffffffffffffff168473ffffffffffffffffffffffffffffffffffffffff161480610db65750610db58185610adb565b5b80610df457508373ffffffffffffffffffffffffffffffffffffffff16610ddc8461051c565b73ffffffffffffffffffffffffffffffffffffffff16145b91505092915050565b8273ffffffffffffffffffffffffffffffffffffffff16610e1d82610714565b73ffffffffffffffffffffffffffffffffffffffff1614610e73576040517f08c379a0000000000000000000000000000000000000000000000000000000008152600401610e6a90612ab4565b60405180910390fd5b600073ffffffffffffffffffffffffffffffffffffffff168273ffffffffffffffffffffffffffffffffffffffff1603610ee2576040517f08c379a0000000000000000000000000000000000000000000000000000000008152600401610ed990612b46565b60405180910390fd5b610eef8383836001611590565b8273ffffffffffffffffffffffffffffffffffffffff16610f0f82610714565b73ffffffffffffffffffffffffffffffffffffffff1614610f65576040517f08c379a0000000000000000000000000000000000000000000000000000000008152600401610f5c90612ab4565b60405180910390fd5b6004600082815260200190815260200160002060006101000a81549073ffffffffffffffffffffffffffffffffffffffff02191690556001600360008573ffffffffffffffffffffffffffffffffffffffff1673ffffffffffffffffffffffffffffffffffffffff168152602001908152602001600020600082825403925050819055506001600360008473ffffffffffffffffffffffffffffffffffffffff1673ffffffffffffffffffffffffffffffffffffffff16815260200190815260200160002060008282540192505081905550816002600083815260200190815260200160002060006101000a81548173ffffffffffffffffffffffffffffffffffffffff021916908373ffffffffffffffffffffffffffffffffffffffff160217905550808273ffffffffffffffffffffffffffffffffffffffff168473ffffffffffffffffffffffffffffffffffffffff167fddf252ad1be2c89b69c2b068fc378daa952ba7f163c4a11628f55a4df523b3ef60405160405180910390a46110f183838360016116b6565b505050565b6110fe610ca7565b73ffffffffffffffffffffffffffffffffffffffff1661111c61091f565b73ffffffffffffffffffffffffffffffffffffffff1614611172576040517f08c379a000000000000000000000000000000000000000000000000000000000815260040161116990612bb2565b60405180910390fd5b565b60006002600083815260200190815260200160002060009054906101000a900473ffffffffffffffffffffffffffffffffffffffff169050919050565b600081600001549050919050565b6111d98282604051806020016040528060008152506116bc565b5050565b6001816000016000828254019250508190555050565b6000600660009054906101000a900473ffffffffffffffffffffffffffffffffffffffff16905081600660006101000a81548173ffffffffffffffffffffffffffffffffffffffff021916908373ffffffffffffffffffffffffffffffffffffffff1602179055508173ffffffffffffffffffffffffffffffffffffffff168173ffffffffffffffffffffffffffffffffffffffff167f8be0079c531659141344cd1fd0a4f28419497f9722a3daafe3b4186f6b6457e060405160405180910390a35050565b8173ffffffffffffffffffffffffffffffffffffffff168373ffffffffffffffffffffffffffffffffffffffff1603611327576040517f08c379a000000000000000000000000000000000000000000000000000000000815260040161131e90612c1e565b60405180910390fd5b80600560008573ffffffffffffffffffffffffffffffffffffffff1673ffffffffffffffffffffffffffffffffffffffff16815260200190815260200160002060008473ffffffffffffffffffffffffffffffffffffffff1673ffffffffffffffffffffffffffffffffffffffff16815260200190815260200160002060006101000a81548160ff0219169083151502179055508173ffffffffffffffffffffffffffffffffffffffff168373ffffffffffffffffffffffffffffffffffffffff167f17307eab39ab6107e8899845ad3d59bd9653f200f220920489ca2b5937696c31836040516114189190611ce5565b60405180910390a3505050565b611430848484610dfd565b61143c84848484611717565b61147b576040517f08c379a000000000000000000000000000000000000000000000000000000000815260040161147290612cb0565b60405180910390fd5b50505050565b60008073ffffffffffffffffffffffffffffffffffffffff166114a383611174565b73ffffffffffffffffffffffffffffffffffffffff1614159050919050565b6060600060016114d18461189e565b01905060008167ffffffffffffffff8111156114f0576114ef611f3a565b5b6040519080825280601f01601f1916602001820160405280156115225781602001600182028036833780820191505090505b509050600082602001820190505b600115611585578080600190039150507f3031323334353637383961626364656600000000000000000000000000000000600a86061a8153600a858161157957611578612cd0565b5b04945060008503611530575b819350505050919050565b60018111156116b057600073ffffffffffffffffffffffffffffffffffffffff168473ffffffffffffffffffffffffffffffffffffffff16146116245780600360008673ffffffffffffffffffffffffffffffffffffffff1673ffffffffffffffffffffffffffffffffffffffff168152602001908152602001600020600082825461161c9190612d2e565b925050819055505b600073ffffffffffffffffffffffffffffffffffffffff168373ffffffffffffffffffffffffffffffffffffffff16146116af5780600360008573ffffffffffffffffffffffffffffffffffffffff1673ffffffffffffffffffffffffffffffffffffffff16815260200190815260200160002060008282546116a79190612d62565b925050819055505b5b50505050565b50505050565b6116c683836119f1565b6116d36000848484611717565b611712576040517f08c379a000000000000000000000000000000000000000000000000000000000815260040161170990612cb0565b60405180910390fd5b505050565b60006117388473ffffffffffffffffffffffffffffffffffffffff16611c0e565b15611891578373ffffffffffffffffffffffffffffffffffffffff1663150b7a02611761610ca7565b8786866040518563ffffffff1660e01b81526004016117839493929190612deb565b6020604051808303816000875af19250505080156117bf57506040513d601f19601f820116820180604052508101906117bc9190612e4c565b60015b611841573d80600081146117ef576040519150601f19603f3d011682016040523d82523d6000602084013e6117f4565b606091505b506000815103611839576040517f08c379a000000000000000000000000000000000000000000000000000000000815260040161183090612cb0565b60405180910390fd5b805181602001fd5b63150b7a0260e01b7bffffffffffffffffffffffffffffffffffffffffffffffffffffffff1916817bffffffffffffffffffffffffffffffffffffffffffffffffffffffff191614915050611896565b600190505b949350505050565b600080600090507a184f03e93ff9f4daa797ed6e38ed64bf6a1f01000000000000000083106118fc577a184f03e93ff9f4daa797ed6e38ed64bf6a1f01000000000000000083816118f2576118f1612cd0565b5b0492506040810190505b6d04ee2d6d415b85acef81000000008310611939576d04ee2d6d415b85acef8100000000838161192f5761192e612cd0565b5b0492506020810190505b662386f26fc10000831061196857662386f26fc10000838161195e5761195d612cd0565b5b0492506010810190505b6305f5e1008310611991576305f5e100838161198757611986612cd0565b5b0492506008810190505b61271083106119b65761271083816119ac576119ab612cd0565b5b0492506004810190505b606483106119d957606483816119cf576119ce612cd0565b5b0492506002810190505b600a83106119e8576001810190505b80915050919050565b600073ffffffffffffffffffffffffffffffffffffffff168273ffffffffffffffffffffffffffffffffffffffff1603611a60576040517f08c379a0000000000000000000000000000000000000000000000000000000008152600401611a5790612ec5565b60405180910390fd5b611a6981611481565b15611aa9576040517f08c379a0000000000000000000000000000000000000000000000000000000008152600401611aa090612f31565b60405180910390fd5b611ab7600083836001611590565b611ac081611481565b15611b00576040517f08c379a0000000000000000000000000000000000000000000000000000000008152600401611af790612f31565b60405180910390fd5b6001600360008473ffffffffffffffffffffffffffffffffffffffff1673ffffffffffffffffffffffffffffffffffffffff16815260200190815260200160002060008282540192505081905550816002600083815260200190815260200160002060006101000a81548173ffffffffffffffffffffffffffffffffffffffff021916908373ffffffffffffffffffffffffffffffffffffffff160217905550808273ffffffffffffffffffffffffffffffffffffffff16600073ffffffffffffffffffffffffffffffffffffffff167fddf252ad1be2c89b69c2b068fc378daa952ba7f163c4a11628f55a4df523b3ef60405160405180910390a4611c0a6000838360016116b6565b5050565b6000808273ffffffffffffffffffffffffffffffffffffffff163b119050919050565b6000604051905090565b600080fd5b600080fd5b60007fffffffff0000000000000000000000000000000000000000000000000000000082169050919050565b611c7a81611c45565b8114611c8557600080fd5b50565b600081359050611c9781611c71565b92915050565b600060208284031215611cb357611cb2611c3b565b5b6000611cc184828501611c88565b91505092915050565b60008115159050919050565b611cdf81611cca565b82525050565b6000602082019050611cfa6000830184611cd6565b92915050565b600081519050919050565b600082825260208201905092915050565b60005b83811015611d3a578082015181840152602081019050611d1f565b60008484015250505050565b6000601f19601f8301169050919050565b6000611d6282611d00565b611d6c8185611d0b565b9350611d7c818560208601611d1c565b611d8581611d46565b840191505092915050565b60006020820190508181036000830152611daa8184611d57565b905092915050565b6000819050919050565b611dc581611db2565b8114611dd057600080fd5b50565b600081359050611de281611dbc565b92915050565b600060208284031215611dfe57611dfd611c3b565b5b6000611e0c84828501611dd3565b91505092915050565b600073ffffffffffffffffffffffffffffffffffffffff82169050919050565b6000611e4082611e15565b9050919050565b611e5081611e35565b82525050565b6000602082019050611e6b6000830184611e47565b92915050565b611e7a81611e35565b8114611e8557600080fd5b50565b600081359050611e9781611e71565b92915050565b60008060408385031215611eb457611eb3611c3b565b5b6000611ec285828601611e88565b9250506020611ed385828601611dd3565b9150509250929050565b600080600060608486031215611ef657611ef5611c3b565b5b6000611f0486828701611e88565b9350506020611f1586828701611e88565b9250506040611f2686828701611dd3565b9150509250925092565b600080fd5b600080fd5b7f4e487b7100000000000000000000000000000000000000000000000000000000600052604160045260246000fd5b611f7282611d46565b810181811067ffffffffffffffff82111715611f9157611f90611f3a565b5b80604052505050565b6000611fa4611c31565b9050611fb08282611f69565b919050565b600067ffffffffffffffff821115611fd057611fcf611f3a565b5b611fd982611d46565b9050602081019050919050565b82818337600083830152505050565b600061200861200384611fb5565b611f9a565b90508281526020810184848401111561202457612023611f35565b5b61202f848285611fe6565b509392505050565b600082601f83011261204c5761204b611f30565b5b813561205c848260208601611ff5565b91505092915050565b60006020828403121561207b5761207a611c3b565b5b600082013567ffffffffffffffff81111561209957612098611c40565b5b6120a584828501612037565b91505092915050565b6000602082840312156120c4576120c3611c3b565b5b60006120d284828501611e88565b91505092915050565b6120e481611db2565b82525050565b60006020820190506120ff60008301846120db565b92915050565b61210e81611cca565b811461211957600080fd5b50565b60008135905061212b81612105565b92915050565b6000806040838503121561214857612147611c3b565b5b600061215685828601611e88565b92505060206121678582860161211c565b9150509250929050565b600067ffffffffffffffff82111561218c5761218b611f3a565b5b61219582611d46565b9050602081019050919050565b60006121b56121b084612171565b611f9a565b9050828152602081018484840111156121d1576121d0611f35565b5b6121dc848285611fe6565b509392505050565b600082601f8301126121f9576121f8611f30565b5b81356122098482602086016121a2565b91505092915050565b6000806000806080858703121561222c5761222b611c3b565b5b600061223a87828801611e88565b945050602061224b87828801611e88565b935050604061225c87828801611dd3565b925050606085013567ffffffffffffffff81111561227d5761227c611c40565b5b612289878288016121e4565b91505092959194509250565b600080604083850312156122ac576122ab611c3b565b5b60006122ba85828601611e88565b92505060206122cb85828601611e88565b9150509250929050565b7f4e487b7100000000000000000000000000000000000000000000000000000000600052602260045260246000fd5b6000600282049050600182168061231c57607f821691505b60208210810361232f5761232e6122d5565b5b50919050565b7f4552433732313a20617070726f76616c20746f2063757272656e74206f776e6560008201527f7200000000000000000000000000000000000000000000000000000000000000602082015250565b6000612391602183611d0b565b915061239c82612335565b604082019050919050565b600060208201905081810360008301526123c081612384565b9050919050565b7f4552433732313a20617070726f76652063616c6c6572206973206e6f7420746f60008201527f6b656e206f776e6572206f7220617070726f76656420666f7220616c6c000000602082015250565b6000612423603d83611d0b565b915061242e826123c7565b604082019050919050565b6000602082019050818103600083015261245281612416565b9050919050565b7f4552433732313a2063616c6c6572206973206e6f7420746f6b656e206f776e6560008201527f72206f7220617070726f76656400000000000000000000000000000000000000602082015250565b60006124b5602d83611d0b565b91506124c082612459565b604082019050919050565b600060208201905081810360008301526124e4816124a8565b9050919050565b60008190508160005260206000209050919050565b60006020601f8301049050919050565b600082821b905092915050565b60006008830261254d7fffffffffffffffffffffffffffffffffffffffffffffffffffffffffffffffff82612510565b6125578683612510565b95508019841693508086168417925050509392505050565b6000819050919050565b600061259461258f61258a84611db2565b61256f565b611db2565b9050919050565b6000819050919050565b6125ae83612579565b6125c26125ba8261259b565b84845461251d565b825550505050565b600090565b6125d76125ca565b6125e28184846125a5565b505050565b5b81811015612606576125fb6000826125cf565b6001810190506125e8565b5050565b601f82111561264b5761261c816124eb565b61262584612500565b81016020851015612634578190505b61264861264085612500565b8301826125e7565b50505b505050565b600082821c905092915050565b600061266e60001984600802612650565b1980831691505092915050565b6000612687838361265d565b9150826002028217905092915050565b6126a082611d00565b67ffffffffffffffff8111156126b9576126b8611f3a565b5b6126c38254612304565b6126ce82828561260a565b600060209050601f83116001811461270157600084156126ef578287015190505b6126f9858261267b565b865550612761565b601f19841661270f866124eb565b60005b8281101561273757848901518255600182019150602085019450602081019050612712565b868310156127545784890151612750601f89168261265d565b8355505b6001600288020188555050505b505050505050565b7f4552433732313a20696e76616c696420746f6b656e2049440000000000000000600082015250565b600061279f601883611d0b565b91506127aa82612769565b602082019050919050565b600060208201905081810360008301526127ce81612792565b9050919050565b7f4552433732313a2061646472657373207a65726f206973206e6f74206120766160008201527f6c6964206f776e65720000000000000000000000000000000000000000000000602082015250565b6000612831602983611d0b565b915061283c826127d5565b604082019050919050565b6000602082019050818103600083015261286081612824565b9050919050565b7f4552433732314d657461646174613a2055524920717565727920666f72206e6f60008201527f6e6578697374656e7420746f6b656e0000000000000000000000000000000000602082015250565b60006128c3602f83611d0b565b91506128ce82612867565b604082019050919050565b600060208201905081810360008301526128f2816128b6565b9050919050565b600081905092915050565b600061290f82611d00565b61291981856128f9565b9350612929818560208601611d1c565b80840191505092915050565b7f2f00000000000000000000000000000000000000000000000000000000000000600082015250565b600061296b6001836128f9565b915061297682612935565b600182019050919050565b600061298d8285612904565b91506129988261295e565b91506129a48284612904565b91508190509392505050565b7f4f776e61626c653a206e6577206f776e657220697320746865207a65726f206160008201527f6464726573730000000000000000000000000000000000000000000000000000602082015250565b6000612a0c602683611d0b565b9150612a17826129b0565b604082019050919050565b60006020820190508181036000830152612a3b816129ff565b9050919050565b7f4552433732313a207472616e736665722066726f6d20696e636f72726563742060008201527f6f776e6572000000000000000000000000000000000000000000000000000000602082015250565b6000612a9e602583611d0b565b9150612aa982612a42565b604082019050919050565b60006020820190508181036000830152612acd81612a91565b9050919050565b7f4552433732313a207472616e7366657220746f20746865207a65726f2061646460008201527f7265737300000000000000000000000000000000000000000000000000000000602082015250565b6000612b30602483611d0b565b9150612b3b82612ad4565b604082019050919050565b60006020820190508181036000830152612b5f81612b23565b9050919050565b7f4f776e61626c653a2063616c6c6572206973206e6f7420746865206f776e6572600082015250565b6000612b9c602083611d0b565b9150612ba782612b66565b602082019050919050565b60006020820190508181036000830152612bcb81612b8f565b9050919050565b7f4552433732313a20617070726f766520746f2063616c6c657200000000000000600082015250565b6000612c08601983611d0b565b9150612c1382612bd2565b602082019050919050565b60006020820190508181036000830152612c3781612bfb565b9050919050565b7f4552433732313a207472616e7366657220746f206e6f6e20455243373231526560008201527f63656976657220696d706c656d656e7465720000000000000000000000000000602082015250565b6000612c9a603283611d0b565b9150612ca582612c3e565b604082019050919050565b60006020820190508181036000830152612cc981612c8d565b9050919050565b7f4e487b7100000000000000000000000000000000000000000000000000000000600052601260045260246000fd5b7f4e487b7100000000000000000000000000000000000000000000000000000000600052601160045260246000fd5b6000612d3982611db2565b9150612d4483611db2565b9250828203905081811115612d5c57612d5b612cff565b5b92915050565b6000612d6d82611db2565b9150612d7883611db2565b9250828201905080821115612d9057612d8f612cff565b5b92915050565b600081519050919050565b600082825260208201905092915050565b6000612dbd82612d96565b612dc78185612da1565b9350612dd7818560208601611d1c565b612de081611d46565b840191505092915050565b6000608082019050612e006000830187611e47565b612e0d6020830186611e47565b612e1a60408301856120db565b8181036060830152612e2c8184612db2565b905095945050505050565b600081519050612e4681611c71565b92915050565b600060208284031215612e6257612e61611c3b565b5b6000612e7084828501612e37565b91505092915050565b7f4552433732313a206d696e7420746f20746865207a65726f2061646472657373600082015250565b6000612eaf602083611d0b565b9150612eba82612e79565b602082019050919050565b60006020820190508181036000830152612ede81612ea2565b9050919050565b7f4552433732313a20746f6b656e20616c7265616479206d696e74656400000000600082015250565b6000612f1b601c83611d0b565b9150612f2682612ee5565b602082019050919050565b60006020820190508181036000830152612f4a81612f0e565b905091905056fea2646970667358221220a038a5fb350ca5ce5bad927e5b3b343047bbd17e9bb7d9ac8f7b9b005798092464736f6c63430008110033",
    "linkReferences": {},
    "deployedLinkReferences": {}
}