{
  "_format": "hh-sol-artifact-1",
  "contractName": "LendingFactory",
  "sourceName": "contracts/LendingFactory.sol",
  "abi": [
    {
      "inputs": [],
      "stateMutability": "nonpayable",
      "type": "constructor"
    },
    {
      "anonymous": false,
      "inputs": [
        {
          "indexed": false,
          "internalType": "address payable",
          "name": "lender",
          "type": "address"
        },
        {
          "indexed": false,
          "internalType": "uint256",
          "name": "requestNumber",
          "type": "uint256"
        },
        {
          "indexed": false,
          "internalType": "uint256",
          "name": "offerNumber",
          "type": "uint256"
        },
        {
          "indexed": false,
          "internalType": "uint256",
          "name": "offerTokenAmount",
          "type": "uint256"
        },
        {
          "indexed": false,
          "internalType": "uint256",
          "name": "offerRate",
          "type": "uint256"
        },
        {
          "indexed": false,
          "internalType": "uint256",
          "name": "offerAmountOfTime",
          "type": "uint256"
        },
        {
          "indexed": false,
          "internalType": "uint256",
          "name": "offerPaymenTime",
          "type": "uint256"
        }
      ],
      "name": "LenderMakeOffer",
      "type": "event"
    },
    {
      "anonymous": false,
      "inputs": [
        {
          "indexed": true,
          "internalType": "address",
          "name": "previousOwner",
          "type": "address"
        },
        {
          "indexed": true,
          "internalType": "address",
          "name": "newOwner",
          "type": "address"
        }
      ],
      "name": "OwnershipTransferred",
      "type": "event"
    },
    {
      "anonymous": false,
      "inputs": [
        {
          "indexed": false,
          "internalType": "address",
          "name": "NFTAddress",
          "type": "address"
        }
      ],
      "name": "RegisterNFT",
      "type": "event"
    },
    {
      "anonymous": false,
      "inputs": [
        {
          "indexed": false,
          "internalType": "address",
          "name": "NFTAddress",
          "type": "address"
        }
      ],
      "name": "UnRegisterNFT",
      "type": "event"
    },
    {
      "anonymous": false,
      "inputs": [
        {
          "indexed": false,
          "internalType": "uint256",
          "name": "requestNumber",
          "type": "uint256"
        },
        {
          "indexed": false,
          "internalType": "uint256",
          "name": "offerNumber",
          "type": "uint256"
        },
        {
          "indexed": false,
          "internalType": "address",
          "name": "vendor",
          "type": "address"
        },
        {
          "indexed": false,
          "internalType": "address",
          "name": "lender",
          "type": "address"
        },
        {
          "indexed": false,
          "internalType": "contract ERC721",
          "name": "NFTAddress",
          "type": "address"
        },
        {
          "indexed": false,
          "internalType": "uint256",
          "name": "tokenId",
          "type": "uint256"
        },
        {
          "indexed": false,
          "internalType": "uint256",
          "name": "tokenAmount",
          "type": "uint256"
        },
        {
          "indexed": false,
          "internalType": "uint256",
          "name": "tokenRate",
          "type": "uint256"
        },
        {
          "indexed": false,
          "internalType": "uint256",
          "name": "amountOfTime",
          "type": "uint256"
        },
        {
          "indexed": false,
          "internalType": "uint256",
          "name": "deadLine",
          "type": "uint256"
        },
        {
          "indexed": false,
          "internalType": "uint256",
          "name": "paymentTime",
          "type": "uint256"
        },
        {
          "indexed": false,
          "internalType": "uint256",
          "name": "paymentCount",
          "type": "uint256"
        }
      ],
      "name": "VendorAcceptOffer",
      "type": "event"
    },
    {
      "anonymous": false,
      "inputs": [
        {
          "indexed": false,
          "internalType": "address",
          "name": "vendor",
          "type": "address"
        },
        {
          "indexed": false,
          "internalType": "contract ERC721",
          "name": "NFTAddress",
          "type": "address"
        },
        {
          "indexed": false,
          "internalType": "uint256",
          "name": "tokenId",
          "type": "uint256"
        },
        {
          "indexed": false,
          "internalType": "uint256",
          "name": "requestNumber",
          "type": "uint256"
        }
      ],
      "name": "VendorMakeRequest",
      "type": "event"
    },
    {
      "anonymous": false,
      "inputs": [
        {
          "indexed": false,
          "internalType": "uint256",
          "name": "requestNumber",
          "type": "uint256"
        },
        {
          "indexed": false,
          "internalType": "uint256",
          "name": "paidCounter",
          "type": "uint256"
        }
      ],
      "name": "VendorPayRountine",
      "type": "event"
    },
    {
      "anonymous": false,
      "inputs": [
        {
          "indexed": false,
          "internalType": "uint256",
          "name": "requestNumber",
          "type": "uint256"
        }
      ],
      "name": "VendorReddem",
      "type": "event"
    },
    {
      "anonymous": false,
      "inputs": [
        {
          "indexed": false,
          "internalType": "uint256",
          "name": "requestNumber",
          "type": "uint256"
        },
        {
          "indexed": false,
          "internalType": "address",
          "name": "_reciever",
          "type": "address"
        }
      ],
      "name": "WithDrawNFT",
      "type": "event"
    },
    {
      "inputs": [
        {
          "internalType": "address",
          "name": "",
          "type": "address"
        }
      ],
      "name": "addressBalance",
      "outputs": [
        {
          "internalType": "uint256",
          "name": "",
          "type": "uint256"
        }
      ],
      "stateMutability": "view",
      "type": "function"
    },
    {
      "inputs": [
        {
          "internalType": "uint256",
          "name": "_requestNumber",
          "type": "uint256"
        },
        {
          "internalType": "uint256",
          "name": "_offerNumber",
          "type": "uint256"
        }
      ],
      "name": "getOfferBook",
      "outputs": [
        {
          "components": [
            {
              "internalType": "address payable",
              "name": "lender",
              "type": "address"
            },
            {
              "internalType": "uint256",
              "name": "offerTokenAmount",
              "type": "uint256"
            },
            {
              "internalType": "uint256",
              "name": "offerRate",
              "type": "uint256"
            },
            {
              "internalType": "uint256",
              "name": "offerAmountOfTime",
              "type": "uint256"
            },
            {
              "internalType": "uint256",
              "name": "offerPaymentTime",
              "type": "uint256"
            }
          ],
          "internalType": "struct Offer.OfferDetail",
          "name": "",
          "type": "tuple"
        }
      ],
      "stateMutability": "view",
      "type": "function"
    },
    {
      "inputs": [
        {
          "internalType": "uint256",
          "name": "_requestNumber",
          "type": "uint256"
        }
      ],
      "name": "getReceiptBook",
      "outputs": [
        {
          "components": [
            {
              "internalType": "address",
              "name": "vendor",
              "type": "address"
            },
            {
              "internalType": "address",
              "name": "lender",
              "type": "address"
            },
            {
              "internalType": "contract ERC721",
              "name": "NFTAddress",
              "type": "address"
            },
            {
              "internalType": "uint256",
              "name": "tokenId",
              "type": "uint256"
            },
            {
              "internalType": "uint256",
              "name": "tokenAmount",
              "type": "uint256"
            },
            {
              "internalType": "uint256",
              "name": "tokenRate",
              "type": "uint256"
            },
            {
              "internalType": "uint256",
              "name": "amountOfTime",
              "type": "uint256"
            },
            {
              "internalType": "uint256",
              "name": "deadLine",
              "type": "uint256"
            },
            {
              "internalType": "uint256",
              "name": "paymentTime",
              "type": "uint256"
            },
            {
              "internalType": "uint256",
              "name": "paymentCount",
              "type": "uint256"
            }
          ],
          "internalType": "struct Receipt.ReceiptDetail",
          "name": "",
          "type": "tuple"
        }
      ],
      "stateMutability": "view",
      "type": "function"
    },
    {
      "inputs": [
        {
          "internalType": "uint256",
          "name": "_requestNumber",
          "type": "uint256"
        }
      ],
      "name": "getTokenMustPaidPerTime",
      "outputs": [
        {
          "internalType": "uint256",
          "name": "",
          "type": "uint256"
        }
      ],
      "stateMutability": "view",
      "type": "function"
    },
    {
      "inputs": [
        {
          "internalType": "uint256",
          "name": "_requestNumber",
          "type": "uint256"
        },
        {
          "internalType": "uint256",
          "name": "_offerRate",
          "type": "uint256"
        },
        {
          "internalType": "uint256",
          "name": "_amountOfTime",
          "type": "uint256"
        },
        {
          "internalType": "uint256",
          "name": "_paymentTime",
          "type": "uint256"
        }
      ],
      "name": "lenderMakeOffer",
      "outputs": [],
      "stateMutability": "payable",
      "type": "function"
    },
    {
      "inputs": [
        {
          "internalType": "contract ERC721",
          "name": "",
          "type": "address"
        },
        {
          "internalType": "address",
          "name": "",
          "type": "address"
        },
        {
          "internalType": "uint256",
          "name": "",
          "type": "uint256"
        }
      ],
      "name": "nftStatus",
      "outputs": [
        {
          "internalType": "bool",
          "name": "",
          "type": "bool"
        }
      ],
      "stateMutability": "view",
      "type": "function"
    },
    {
      "inputs": [
        {
          "internalType": "uint256",
          "name": "",
          "type": "uint256"
        },
        {
          "internalType": "uint256",
          "name": "",
          "type": "uint256"
        }
      ],
      "name": "offerBook",
      "outputs": [
        {
          "internalType": "address payable",
          "name": "lender",
          "type": "address"
        },
        {
          "internalType": "uint256",
          "name": "offerTokenAmount",
          "type": "uint256"
        },
        {
          "internalType": "uint256",
          "name": "offerRate",
          "type": "uint256"
        },
        {
          "internalType": "uint256",
          "name": "offerAmountOfTime",
          "type": "uint256"
        },
        {
          "internalType": "uint256",
          "name": "offerPaymentTime",
          "type": "uint256"
        }
      ],
      "stateMutability": "view",
      "type": "function"
    },
    {
      "inputs": [
        {
          "internalType": "uint256",
          "name": "",
          "type": "uint256"
        }
      ],
      "name": "offerOrder",
      "outputs": [
        {
          "internalType": "uint256",
          "name": "",
          "type": "uint256"
        }
      ],
      "stateMutability": "view",
      "type": "function"
    },
    {
      "inputs": [],
      "name": "owner",
      "outputs": [
        {
          "internalType": "address",
          "name": "",
          "type": "address"
        }
      ],
      "stateMutability": "view",
      "type": "function"
    },
    {
      "inputs": [
        {
          "internalType": "uint256",
          "name": "",
          "type": "uint256"
        }
      ],
      "name": "receiptBook",
      "outputs": [
        {
          "internalType": "address",
          "name": "vendor",
          "type": "address"
        },
        {
          "internalType": "address",
          "name": "lender",
          "type": "address"
        },
        {
          "internalType": "contract ERC721",
          "name": "NFTAddress",
          "type": "address"
        },
        {
          "internalType": "uint256",
          "name": "tokenId",
          "type": "uint256"
        },
        {
          "internalType": "uint256",
          "name": "tokenAmount",
          "type": "uint256"
        },
        {
          "internalType": "uint256",
          "name": "tokenRate",
          "type": "uint256"
        },
        {
          "internalType": "uint256",
          "name": "amountOfTime",
          "type": "uint256"
        },
        {
          "internalType": "uint256",
          "name": "deadLine",
          "type": "uint256"
        },
        {
          "internalType": "uint256",
          "name": "paymentTime",
          "type": "uint256"
        },
        {
          "internalType": "uint256",
          "name": "paymentCount",
          "type": "uint256"
        }
      ],
      "stateMutability": "view",
      "type": "function"
    },
    {
      "inputs": [
        {
          "internalType": "contract ERC721",
          "name": "_NFTAddress",
          "type": "address"
        }
      ],
      "name": "registerNFT",
      "outputs": [],
      "stateMutability": "nonpayable",
      "type": "function"
    },
    {
      "inputs": [
        {
          "internalType": "address",
          "name": "",
          "type": "address"
        }
      ],
      "name": "registerNFTs",
      "outputs": [
        {
          "internalType": "bool",
          "name": "",
          "type": "bool"
        }
      ],
      "stateMutability": "view",
      "type": "function"
    },
    {
      "inputs": [],
      "name": "renounceOwnership",
      "outputs": [],
      "stateMutability": "nonpayable",
      "type": "function"
    },
    {
      "inputs": [
        {
          "internalType": "address",
          "name": "newOwner",
          "type": "address"
        }
      ],
      "name": "transferOwnership",
      "outputs": [],
      "stateMutability": "nonpayable",
      "type": "function"
    },
    {
      "inputs": [
        {
          "internalType": "contract ERC721",
          "name": "_NFTAddress",
          "type": "address"
        }
      ],
      "name": "unRegisterNFT",
      "outputs": [],
      "stateMutability": "nonpayable",
      "type": "function"
    },
    {
      "inputs": [
        {
          "internalType": "uint256",
          "name": "_requestNumber",
          "type": "uint256"
        },
        {
          "internalType": "uint256",
          "name": "_offerNumber",
          "type": "uint256"
        }
      ],
      "name": "vendorAcceptOffer",
      "outputs": [],
      "stateMutability": "nonpayable",
      "type": "function"
    },
    {
      "inputs": [
        {
          "internalType": "contract ERC721",
          "name": "NFTAddress",
          "type": "address"
        },
        {
          "internalType": "uint256",
          "name": "tokenId",
          "type": "uint256"
        }
      ],
      "name": "vendorMakeRequest",
      "outputs": [],
      "stateMutability": "nonpayable",
      "type": "function"
    },
    {
      "inputs": [
        {
          "internalType": "uint256",
          "name": "_requestNumber",
          "type": "uint256"
        }
      ],
      "name": "vendorPayRountine",
      "outputs": [],
      "stateMutability": "payable",
      "type": "function"
    },
    {
      "inputs": [
        {
          "internalType": "uint256",
          "name": "_requestNumber",
          "type": "uint256"
        }
      ],
      "name": "withdrawNFT",
      "outputs": [],
      "stateMutability": "nonpayable",
      "type": "function"
    }
  ],
  "bytecode": "0x60806040523480156200001157600080fd5b5062000032620000266200003860201b60201c565b6200004060201b60201c565b62000104565b600033905090565b60008060009054906101000a900473ffffffffffffffffffffffffffffffffffffffff169050816000806101000a81548173ffffffffffffffffffffffffffffffffffffffff021916908373ffffffffffffffffffffffffffffffffffffffff1602179055508173ffffffffffffffffffffffffffffffffffffffff168173ffffffffffffffffffffffffffffffffffffffff167f8be0079c531659141344cd1fd0a4f28419497f9722a3daafe3b4186f6b6457e060405160405180910390a35050565b61345c80620001146000396000f3fe6080604052600436106101145760003560e01c80636aaf1f38116100a0578063a0925cbd11610064578063a0925cbd146103a5578063cbb78c9a146103e2578063f2fde38b1461040b578063fb3f28fe14610434578063fdf586d71461047557610114565b80636aaf1f38146102c0578063715018a6146102e957806376f59acf146103005780638da5cb5b1461033d5780639e3b6c4c1461036857610114565b806321576392116100e757806321576392146101b75780633ca5da8d146101f45780633ec4de35146102315780635f6fc51b1461026e578063665912c31461029757610114565b8063023245d71461011957806312a1dc1d146101425780631d727b231461017f5780631e90ca321461019b575b600080fd5b34801561012557600080fd5b50610140600480360381019061013b9190612242565b6104bb565b005b34801561014e57600080fd5b5061016960048036038101906101649190612242565b61074d565b60405161017691906123ea565b60405180910390f35b61019960048036038101906101949190612242565b6108c3565b005b6101b560048036038101906101b09190612406565b610c7a565b005b3480156101c357600080fd5b506101de60048036038101906101d991906124d7565b610f3a565b6040516101eb9190612545565b60405180910390f35b34801561020057600080fd5b5061021b60048036038101906102169190612560565b610f76565b6040516102289190612629565b60405180910390f35b34801561023d57600080fd5b5061025860048036038101906102539190612644565b611033565b6040516102659190612680565b60405180910390f35b34801561027a57600080fd5b506102956004803603810190610290919061269b565b61104b565b005b3480156102a357600080fd5b506102be60048036038101906102b991906126db565b6114d8565b005b3480156102cc57600080fd5b506102e760048036038101906102e291906126db565b611605565b005b3480156102f557600080fd5b506102fe611732565b005b34801561030c57600080fd5b5061032760048036038101906103229190612644565b611746565b6040516103349190612545565b60405180910390f35b34801561034957600080fd5b50610352611766565b60405161035f9190612717565b60405180910390f35b34801561037457600080fd5b5061038f600480360381019061038a9190612242565b61178f565b60405161039c9190612680565b60405180910390f35b3480156103b157600080fd5b506103cc60048036038101906103c79190612242565b6117a7565b6040516103d99190612680565b60405180910390f35b3480156103ee57600080fd5b5061040960048036038101906104049190612560565b61181a565b005b34801561041757600080fd5b50610432600480360381019061042d9190612644565b611d60565b005b34801561044057600080fd5b5061045b60048036038101906104569190612560565b611de3565b60405161046c959493929190612741565b60405180910390f35b34801561048157600080fd5b5061049c60048036038101906104979190612242565b611e46565b6040516104b29a999897969594939291906127a3565b60405180910390f35b60006104c68261074d565b9050600081604001519050816000015173ffffffffffffffffffffffffffffffffffffffff163373ffffffffffffffffffffffffffffffffffffffff16148061053e5750816020015173ffffffffffffffffffffffffffffffffffffffff163373ffffffffffffffffffffffffffffffffffffffff16145b61057d576040517f08c379a00000000000000000000000000000000000000000000000000000000081526004016105749061289c565b60405180910390fd5b816020015173ffffffffffffffffffffffffffffffffffffffff163373ffffffffffffffffffffffffffffffffffffffff160361064f5760008260c001518360e001516105ca91906128eb565b905060008361010001518460c001516105e3919061294e565b905060008183426105f491906128eb565b6105fe919061294e565b90508085610120015110610647576040517f08c379a000000000000000000000000000000000000000000000000000000000815260040161063e906129cb565b60405180910390fd5b50505061069c565b8161010001518261012001511461069b576040517f08c379a0000000000000000000000000000000000000000000000000000000008152600401610692906129cb565b60405180910390fd5b5b8073ffffffffffffffffffffffffffffffffffffffff166323b872dd303385606001516040518463ffffffff1660e01b81526004016106dd939291906129eb565b600060405180830381600087803b1580156106f757600080fd5b505af115801561070b573d6000803e3d6000fd5b505050507fc11b01f2a3c991d770c6779a695f6264d7189edc3e57260ec9a7f70a447452958333604051610740929190612a22565b60405180910390a1505050565b61075561212d565b60036000838152602001908152602001600020604051806101400160405290816000820160009054906101000a900473ffffffffffffffffffffffffffffffffffffffff1673ffffffffffffffffffffffffffffffffffffffff1673ffffffffffffffffffffffffffffffffffffffff1681526020016001820160009054906101000a900473ffffffffffffffffffffffffffffffffffffffff1673ffffffffffffffffffffffffffffffffffffffff1673ffffffffffffffffffffffffffffffffffffffff1681526020016002820160009054906101000a900473ffffffffffffffffffffffffffffffffffffffff1673ffffffffffffffffffffffffffffffffffffffff1673ffffffffffffffffffffffffffffffffffffffff1681526020016003820154815260200160048201548152602001600582015481526020016006820154815260200160078201548152602001600882015481526020016009820154815250509050919050565b60006003600083815260200190815260200160002090506000816006015482600701546108f091906128eb565b9050600082600801548360060154610908919061294e565b9050600081834261091991906128eb565b610923919061294e565b9050836009015484600901541061096f576040517f08c379a000000000000000000000000000000000000000000000000000000000815260040161096690612a97565b60405180910390fd5b80846009015410156109b6576040517f08c379a00000000000000000000000000000000000000000000000000000000081526004016109ad90612b03565b60405180910390fd5b60006109c1866117a7565b905080341015610a06576040517f08c379a00000000000000000000000000000000000000000000000000000000081526004016109fd90612b6f565b60405180910390fd5b8034610a1291906128eb565b600660003373ffffffffffffffffffffffffffffffffffffffff1673ffffffffffffffffffffffffffffffffffffffff1681526020019081526020016000206000828254610a609190612b8f565b92505081905550610aaa6040518060400160405280600b81526020017f746f6b656e416d6f756e740000000000000000000000000000000000000000008152508660040154611efa565b610b286040518060400160405280601b81526020017f206164647265737342616c616e63655b6d73672e73656e6465725d0000000000815250600660003373ffffffffffffffffffffffffffffffffffffffff1673ffffffffffffffffffffffffffffffffffffffff16815260200190815260200160002054611efa565b610b676040518060400160405280600d81526020017f746f6b656e4d757374506169640000000000000000000000000000000000000081525082611efa565b60008560010160009054906101000a900473ffffffffffffffffffffffffffffffffffffffff1690508073ffffffffffffffffffffffffffffffffffffffff166108fc839081150290604051600060405180830381858888f19350505050158015610bd6573d6000803e3d6000fd5b50856009016000815480929190610bec90612bc3565b9190505550610c346040518060400160405280600f81526020017f72642e7061796d656e74436f756e7400000000000000000000000000000000008152508760090154611efa565b7fa5b38515d2d022b2ba1ab51c9d7e7a65562e00e923943d9f63bc0318392551cc878760090154604051610c69929190612c0b565b60405180910390a150505050505050565b6000600560008681526020019081526020016000205490506000600360008781526020019081526020016000209050600073ffffffffffffffffffffffffffffffffffffffff168160000160009054906101000a900473ffffffffffffffffffffffffffffffffffffffff1673ffffffffffffffffffffffffffffffffffffffff1603610d3c576040517f08c379a0000000000000000000000000000000000000000000000000000000008152600401610d3390612c80565b60405180910390fd5b62093a808385610d4c919061294e565b10158015610d5c575062278d0084105b610d9b576040517f08c379a0000000000000000000000000000000000000000000000000000000008152600401610d9290612d12565b60405180910390fd5b6040518060a001604052803373ffffffffffffffffffffffffffffffffffffffff1681526020013481526020018681526020018581526020018481525060046000888152602001908152602001600020600084815260200190815260200160002060008201518160000160006101000a81548173ffffffffffffffffffffffffffffffffffffffff021916908373ffffffffffffffffffffffffffffffffffffffff160217905550602082015181600101556040820151816002015560608201518160030155608082015181600401559050506001600560008881526020019081526020016000206000828254610e929190612b8f565b9250508190555034600660003373ffffffffffffffffffffffffffffffffffffffff1673ffffffffffffffffffffffffffffffffffffffff1681526020019081526020016000206000828254610ee89190612b8f565b925050819055507f50f6b5023be496691b3891b86afe1c2608733fb577cf0e100d9d697d968f307533878434898989604051610f2a9796959493929190612d32565b60405180910390a1505050505050565b6007602052826000526040600020602052816000526040600020602052806000526040600020600092509250509054906101000a900460ff1681565b610f7e6121c2565b6004600084815260200190815260200160002060008381526020019081526020016000206040518060a00160405290816000820160009054906101000a900473ffffffffffffffffffffffffffffffffffffffff1673ffffffffffffffffffffffffffffffffffffffff1673ffffffffffffffffffffffffffffffffffffffff168152602001600182015481526020016002820154815260200160038201548152602001600482015481525050905092915050565b60066020528060005260406000206000915090505481565b3373ffffffffffffffffffffffffffffffffffffffff168273ffffffffffffffffffffffffffffffffffffffff16636352211e836040518263ffffffff1660e01b815260040161109b9190612680565b602060405180830381865afa1580156110b8573d6000803e3d6000fd5b505050506040513d601f19601f820116820180604052508101906110dc9190612db6565b73ffffffffffffffffffffffffffffffffffffffff1614611132576040517f08c379a000000000000000000000000000000000000000000000000000000000815260040161112990612e2f565b60405180910390fd5b60001515600760008473ffffffffffffffffffffffffffffffffffffffff1673ffffffffffffffffffffffffffffffffffffffff16815260200190815260200160002060003373ffffffffffffffffffffffffffffffffffffffff1673ffffffffffffffffffffffffffffffffffffffff168152602001908152602001600020600083815260200190815260200160002060009054906101000a900460ff16151514611213576040517f08c379a000000000000000000000000000000000000000000000000000000000815260040161120a90612e9b565b60405180910390fd5b6040518061014001604052803373ffffffffffffffffffffffffffffffffffffffff168152602001600073ffffffffffffffffffffffffffffffffffffffff1681526020018373ffffffffffffffffffffffffffffffffffffffff16815260200182815260200160008152602001600081526020016000815260200160008152602001600081526020016000815250600360006112b06001611f96565b815260200190815260200160002060008201518160000160006101000a81548173ffffffffffffffffffffffffffffffffffffffff021916908373ffffffffffffffffffffffffffffffffffffffff16021790555060208201518160010160006101000a81548173ffffffffffffffffffffffffffffffffffffffff021916908373ffffffffffffffffffffffffffffffffffffffff16021790555060408201518160020160006101000a81548173ffffffffffffffffffffffffffffffffffffffff021916908373ffffffffffffffffffffffffffffffffffffffff160217905550606082015181600301556080820151816004015560a0820151816005015560c0820151816006015560e08201518160070155610100820151816008015561012082015181600901559050506001600760008473ffffffffffffffffffffffffffffffffffffffff1673ffffffffffffffffffffffffffffffffffffffff16815260200190815260200160002060003373ffffffffffffffffffffffffffffffffffffffff1673ffffffffffffffffffffffffffffffffffffffff168152602001908152602001600020600083815260200190815260200160002060006101000a81548160ff0219169083151502179055507f9ab7201699b86631d498cffaafb83086e326cb6677b121cbf95e1417628681473383836114b26001611f96565b6040516114c29493929190612ebb565b60405180910390a16114d46001611fa4565b5050565b6114e0611fba565b60011515600260008373ffffffffffffffffffffffffffffffffffffffff1673ffffffffffffffffffffffffffffffffffffffff16815260200190815260200160002060009054906101000a900460ff16151503611573576040517f08c379a000000000000000000000000000000000000000000000000000000000815260040161156a90612f4c565b60405180910390fd5b6000600260008373ffffffffffffffffffffffffffffffffffffffff1673ffffffffffffffffffffffffffffffffffffffff16815260200190815260200160002060006101000a81548160ff0219169083151502179055507f47a68d495ca67fd0a225bf31f11c6546e283fd92264120d78a882a9a30357bb4816040516115fa9190612717565b60405180910390a150565b61160d611fba565b60011515600260008373ffffffffffffffffffffffffffffffffffffffff1673ffffffffffffffffffffffffffffffffffffffff16815260200190815260200160002060009054906101000a900460ff161515036116a0576040517f08c379a000000000000000000000000000000000000000000000000000000000815260040161169790612fb8565b60405180910390fd5b6001600260008373ffffffffffffffffffffffffffffffffffffffff1673ffffffffffffffffffffffffffffffffffffffff16815260200190815260200160002060006101000a81548160ff0219169083151502179055507f7fb5539ccc03b6d4621f2b708d17c807f41edb95f84db3fa93d785a4d9fe9889816040516117279190612717565b60405180910390a150565b61173a611fba565b6117446000612038565b565b60026020528060005260406000206000915054906101000a900460ff1681565b60008060009054906101000a900473ffffffffffffffffffffffffffffffffffffffff16905090565b60056020528060005260406000206000915090505481565b600080600360008481526020019081526020016000209050600081600801546064836005015484600401546117dc9190612fd8565b6117e6919061294e565b6117f0919061294e565b82600801548360040154611804919061294e565b61180e9190612b8f565b90508092505050919050565b813373ffffffffffffffffffffffffffffffffffffffff166003600083815260200190815260200160002060000160009054906101000a900473ffffffffffffffffffffffffffffffffffffffff1673ffffffffffffffffffffffffffffffffffffffff16146118bf576040517f08c379a00000000000000000000000000000000000000000000000000000000081526004016118b690613066565b60405180910390fd5b600060036000858152602001908152602001600020905060006004600086815260200190815260200160002060008581526020019081526020016000206040518060a00160405290816000820160009054906101000a900473ffffffffffffffffffffffffffffffffffffffff1673ffffffffffffffffffffffffffffffffffffffff1673ffffffffffffffffffffffffffffffffffffffff1681526020016001820154815260200160028201548152602001600382015481526020016004820154815250509050600073ffffffffffffffffffffffffffffffffffffffff16816000015173ffffffffffffffffffffffffffffffffffffffff16036119fa576040517f08c379a00000000000000000000000000000000000000000000000000000000081526004016119f1906130d2565b60405180910390fd5b806020015160066000836000015173ffffffffffffffffffffffffffffffffffffffff1673ffffffffffffffffffffffffffffffffffffffff168152602001908152602001600020541015611a84576040517f08c379a0000000000000000000000000000000000000000000000000000000008152600401611a7b90613164565b60405180910390fd5b80600001518260010160006101000a81548173ffffffffffffffffffffffffffffffffffffffff021916908373ffffffffffffffffffffffffffffffffffffffff160217905550806020015182600401819055508060400151826005018190555080606001518260060181905550806060015142611b029190612b8f565b82600701819055508060800151826008018190555060008260020160009054906101000a900473ffffffffffffffffffffffffffffffffffffffff1690508073ffffffffffffffffffffffffffffffffffffffff166323b872dd8460000160009054906101000a900473ffffffffffffffffffffffffffffffffffffffff163086600301546040518463ffffffff1660e01b8152600401611ba5939291906129eb565b600060405180830381600087803b158015611bbf57600080fd5b505af1158015611bd3573d6000803e3d6000fd5b5050505060003390508073ffffffffffffffffffffffffffffffffffffffff166108fc84602001519081150290604051600060405180830381858888f19350505050158015611c26573d6000803e3d6000fd5b50826020015160066000856000015173ffffffffffffffffffffffffffffffffffffffff1673ffffffffffffffffffffffffffffffffffffffff1681526020019081526020016000206000828254611c7e91906128eb565b925050819055507f8b3aca815e0141d6aae3d4f5be627d808bb2dce40bc3abf1bae0e53e6820440487878660000160009054906101000a900473ffffffffffffffffffffffffffffffffffffffff168760010160009054906101000a900473ffffffffffffffffffffffffffffffffffffffff168860020160009054906101000a900473ffffffffffffffffffffffffffffffffffffffff1689600301548a600401548b600501548c600601548d600701548e600801546000604051611d4f9c9b9a999897969594939291906131bf565b60405180910390a150505050505050565b611d68611fba565b600073ffffffffffffffffffffffffffffffffffffffff168173ffffffffffffffffffffffffffffffffffffffff1603611dd7576040517f08c379a0000000000000000000000000000000000000000000000000000000008152600401611dce906132eb565b60405180910390fd5b611de081612038565b50565b6004602052816000526040600020602052806000526040600020600091509150508060000160009054906101000a900473ffffffffffffffffffffffffffffffffffffffff16908060010154908060020154908060030154908060040154905085565b60036020528060005260406000206000915090508060000160009054906101000a900473ffffffffffffffffffffffffffffffffffffffff16908060010160009054906101000a900473ffffffffffffffffffffffffffffffffffffffff16908060020160009054906101000a900473ffffffffffffffffffffffffffffffffffffffff1690806003015490806004015490806005015490806006015490806007015490806008015490806009015490508a565b611f928282604051602401611f1092919061338a565b6040516020818303038152906040527fb60e72cc000000000000000000000000000000000000000000000000000000007bffffffffffffffffffffffffffffffffffffffffffffffffffffffff19166020820180517bffffffffffffffffffffffffffffffffffffffffffffffffffffffff83818316178352505050506120fc565b5050565b600081600001549050919050565b6001816000016000828254019250508190555050565b611fc2612125565b73ffffffffffffffffffffffffffffffffffffffff16611fe0611766565b73ffffffffffffffffffffffffffffffffffffffff1614612036576040517f08c379a000000000000000000000000000000000000000000000000000000000815260040161202d90613406565b60405180910390fd5b565b60008060009054906101000a900473ffffffffffffffffffffffffffffffffffffffff169050816000806101000a81548173ffffffffffffffffffffffffffffffffffffffff021916908373ffffffffffffffffffffffffffffffffffffffff1602179055508173ffffffffffffffffffffffffffffffffffffffff168173ffffffffffffffffffffffffffffffffffffffff167f8be0079c531659141344cd1fd0a4f28419497f9722a3daafe3b4186f6b6457e060405160405180910390a35050565b60008151905060006a636f6e736f6c652e6c6f679050602083016000808483855afa5050505050565b600033905090565b604051806101400160405280600073ffffffffffffffffffffffffffffffffffffffff168152602001600073ffffffffffffffffffffffffffffffffffffffff168152602001600073ffffffffffffffffffffffffffffffffffffffff168152602001600081526020016000815260200160008152602001600081526020016000815260200160008152602001600081525090565b6040518060a00160405280600073ffffffffffffffffffffffffffffffffffffffff168152602001600081526020016000815260200160008152602001600081525090565b600080fd5b6000819050919050565b61221f8161220c565b811461222a57600080fd5b50565b60008135905061223c81612216565b92915050565b60006020828403121561225857612257612207565b5b60006122668482850161222d565b91505092915050565b600073ffffffffffffffffffffffffffffffffffffffff82169050919050565b600061229a8261226f565b9050919050565b6122aa8161228f565b82525050565b6000819050919050565b60006122d56122d06122cb8461226f565b6122b0565b61226f565b9050919050565b60006122e7826122ba565b9050919050565b60006122f9826122dc565b9050919050565b612309816122ee565b82525050565b6123188161220c565b82525050565b6101408201600082015161233560008501826122a1565b50602082015161234860208501826122a1565b50604082015161235b6040850182612300565b50606082015161236e606085018261230f565b506080820151612381608085018261230f565b5060a082015161239460a085018261230f565b5060c08201516123a760c085018261230f565b5060e08201516123ba60e085018261230f565b506101008201516123cf61010085018261230f565b506101208201516123e461012085018261230f565b50505050565b600061014082019050612400600083018461231e565b92915050565b600080600080608085870312156124205761241f612207565b5b600061242e8782880161222d565b945050602061243f8782880161222d565b93505060406124508782880161222d565b92505060606124618782880161222d565b91505092959194509250565b60006124788261228f565b9050919050565b6124888161246d565b811461249357600080fd5b50565b6000813590506124a58161247f565b92915050565b6124b48161228f565b81146124bf57600080fd5b50565b6000813590506124d1816124ab565b92915050565b6000806000606084860312156124f0576124ef612207565b5b60006124fe86828701612496565b935050602061250f868287016124c2565b92505060406125208682870161222d565b9150509250925092565b60008115159050919050565b61253f8161252a565b82525050565b600060208201905061255a6000830184612536565b92915050565b6000806040838503121561257757612576612207565b5b60006125858582860161222d565b92505060206125968582860161222d565b9150509250929050565b60006125ab8261226f565b9050919050565b6125bb816125a0565b82525050565b60a0820160008201516125d760008501826125b2565b5060208201516125ea602085018261230f565b5060408201516125fd604085018261230f565b506060820151612610606085018261230f565b506080820151612623608085018261230f565b50505050565b600060a08201905061263e60008301846125c1565b92915050565b60006020828403121561265a57612659612207565b5b6000612668848285016124c2565b91505092915050565b61267a8161220c565b82525050565b60006020820190506126956000830184612671565b92915050565b600080604083850312156126b2576126b1612207565b5b60006126c085828601612496565b92505060206126d18582860161222d565b9150509250929050565b6000602082840312156126f1576126f0612207565b5b60006126ff84828501612496565b91505092915050565b6127118161228f565b82525050565b600060208201905061272c6000830184612708565b92915050565b61273b816125a0565b82525050565b600060a0820190506127566000830188612732565b6127636020830187612671565b6127706040830186612671565b61277d6060830185612671565b61278a6080830184612671565b9695505050505050565b61279d816122ee565b82525050565b6000610140820190506127b9600083018d612708565b6127c6602083018c612708565b6127d3604083018b612794565b6127e0606083018a612671565b6127ed6080830189612671565b6127fa60a0830188612671565b61280760c0830187612671565b61281460e0830186612671565b612822610100830185612671565b612830610120830184612671565b9b9a5050505050505050505050565b600082825260208201905092915050565b7f4c656e64696e673a206e6f742061626c6520746f206163636573730000000000600082015250565b6000612886601b8361283f565b915061289182612850565b602082019050919050565b600060208201905081810360008301526128b581612879565b9050919050565b7f4e487b7100000000000000000000000000000000000000000000000000000000600052601160045260246000fd5b60006128f68261220c565b91506129018361220c565b9250828203905081811115612919576129186128bc565b5b92915050565b7f4e487b7100000000000000000000000000000000000000000000000000000000600052601260045260246000fd5b60006129598261220c565b91506129648361220c565b9250826129745761297361291f565b5b828204905092915050565b7f4c656e64696e673a2052657175657374206f6e2074696d650000000000000000600082015250565b60006129b560188361283f565b91506129c08261297f565b602082019050919050565b600060208201905081810360008301526129e4816129a8565b9050919050565b6000606082019050612a006000830186612708565b612a0d6020830185612708565b612a1a6040830184612671565b949350505050565b6000604082019050612a376000830185612671565b612a446020830184612708565b9392505050565b7f4c656e64696e673a205061696420646f6e650000000000000000000000000000600082015250565b6000612a8160128361283f565b9150612a8c82612a4b565b602082019050919050565b60006020820190508181036000830152612ab081612a74565b9050919050565b7f4c656e64696e673a20526571756573742074696d65206f757400000000000000600082015250565b6000612aed60198361283f565b9150612af882612ab7565b602082019050919050565b60006020820190508181036000830152612b1c81612ae0565b9050919050565b7f4c656e64696e673a204e6f7420656e6f75676820657468000000000000000000600082015250565b6000612b5960178361283f565b9150612b6482612b23565b602082019050919050565b60006020820190508181036000830152612b8881612b4c565b9050919050565b6000612b9a8261220c565b9150612ba58361220c565b9250828201905080821115612bbd57612bbc6128bc565b5b92915050565b6000612bce8261220c565b91507fffffffffffffffffffffffffffffffffffffffffffffffffffffffffffffffff8203612c0057612bff6128bc565b5b600182019050919050565b6000604082019050612c206000830185612671565b612c2d6020830184612671565b9392505050565b7f4c656e64696e673a2072656365697074206d7573742065786973740000000000600082015250565b6000612c6a601b8361283f565b9150612c7582612c34565b602082019050919050565b60006020820190508181036000830152612c9981612c5d565b9050919050565b7f4c656e64696e673a206f666665722074696d6520616e64207061796d656e742060008201527f74696d6520617265206e6f742076616c69640000000000000000000000000000602082015250565b6000612cfc60328361283f565b9150612d0782612ca0565b604082019050919050565b60006020820190508181036000830152612d2b81612cef565b9050919050565b600060e082019050612d47600083018a612732565b612d546020830189612671565b612d616040830188612671565b612d6e6060830187612671565b612d7b6080830186612671565b612d8860a0830185612671565b612d9560c0830184612671565b98975050505050505050565b600081519050612db0816124ab565b92915050565b600060208284031215612dcc57612dcb612207565b5b6000612dda84828501612da1565b91505092915050565b7f4c656e64696e673a2073656e646572206d7573742068617665204e4654000000600082015250565b6000612e19601d8361283f565b9150612e2482612de3565b602082019050919050565b60006020820190508181036000830152612e4881612e0c565b9050919050565b7f4c656e64696e673a206e667420616c726561647920696e206d61726b65740000600082015250565b6000612e85601e8361283f565b9150612e9082612e4f565b602082019050919050565b60006020820190508181036000830152612eb481612e78565b9050919050565b6000608082019050612ed06000830187612708565b612edd6020830186612794565b612eea6040830185612671565b612ef76060830184612671565b95945050505050565b7f416c726561647920756e2d7265676973746f7200000000000000000000000000600082015250565b6000612f3660138361283f565b9150612f4182612f00565b602082019050919050565b60006020820190508181036000830152612f6581612f29565b9050919050565b7f416c7265616479207265676973746f7200000000000000000000000000000000600082015250565b6000612fa260108361283f565b9150612fad82612f6c565b602082019050919050565b60006020820190508181036000830152612fd181612f95565b9050919050565b6000612fe38261220c565b9150612fee8361220c565b9250828202612ffc8161220c565b91508282048414831517613013576130126128bc565b5b5092915050565b7f4c656e64696e673a204d7573742062652056656e646f72000000000000000000600082015250565b600061305060178361283f565b915061305b8261301a565b602082019050919050565b6000602082019050818103600083015261307f81613043565b9050919050565b7f4c656e64696e673a206f66666572206d75737420657869737400000000000000600082015250565b60006130bc60198361283f565b91506130c782613086565b602082019050919050565b600060208201905081810360008301526130eb816130af565b9050919050565b7f4c656e64696e673a204c656e6465722062616c616e636520646f6573206e6f7460008201527f20737570706f7274000000000000000000000000000000000000000000000000602082015250565b600061314e60288361283f565b9150613159826130f2565b604082019050919050565b6000602082019050818103600083015261317d81613141565b9050919050565b6000819050919050565b60006131a96131a461319f84613184565b6122b0565b61220c565b9050919050565b6131b98161318e565b82525050565b6000610180820190506131d5600083018f612671565b6131e2602083018e612671565b6131ef604083018d612708565b6131fc606083018c612708565b613209608083018b612794565b61321660a083018a612671565b61322360c0830189612671565b61323060e0830188612671565b61323e610100830187612671565b61324c610120830186612671565b61325a610140830185612671565b6132686101608301846131b0565b9d9c50505050505050505050505050565b7f4f776e61626c653a206e6577206f776e657220697320746865207a65726f206160008201527f6464726573730000000000000000000000000000000000000000000000000000602082015250565b60006132d560268361283f565b91506132e082613279565b604082019050919050565b60006020820190508181036000830152613304816132c8565b9050919050565b600081519050919050565b60005b83811015613334578082015181840152602081019050613319565b60008484015250505050565b6000601f19601f8301169050919050565b600061335c8261330b565b613366818561283f565b9350613376818560208601613316565b61337f81613340565b840191505092915050565b600060408201905081810360008301526133a48185613351565b90506133b36020830184612671565b9392505050565b7f4f776e61626c653a2063616c6c6572206973206e6f7420746865206f776e6572600082015250565b60006133f060208361283f565b91506133fb826133ba565b602082019050919050565b6000602082019050818103600083015261341f816133e3565b905091905056fea2646970667358221220744036e53ec9fdd01fcdd86f3481c0d6c7dbfc69fd58598d65ec91611bcf164b64736f6c63430008110033",
  "linkReferences": {},
  "deployedLinkReferences": {}
}