{
  "_format": "hh-sol-artifact-1",
  "contractName": "LendingFactory",
  "sourceName": "contracts/LendingFactory.sol",
  "abi": [
    {
      "inputs": [],
      "stateMutability": "nonpayable",
      "type": "constructor"
    },
    {
      "anonymous": false,
      "inputs": [
        {
          "indexed": false,
          "internalType": "address payable",
          "name": "lender",
          "type": "address"
        },
        {
          "indexed": false,
          "internalType": "uint256",
          "name": "requestNumber",
          "type": "uint256"
        },
        {
          "indexed": false,
          "internalType": "uint256",
          "name": "offerNumber",
          "type": "uint256"
        },
        {
          "indexed": false,
          "internalType": "uint256",
          "name": "offerTokenAmount",
          "type": "uint256"
        },
        {
          "indexed": false,
          "internalType": "uint256",
          "name": "offerRate",
          "type": "uint256"
        },
        {
          "indexed": false,
          "internalType": "uint256",
          "name": "offerAmountOfTime",
          "type": "uint256"
        },
        {
          "indexed": false,
          "internalType": "uint256",
          "name": "offerPaymenTime",
          "type": "uint256"
        }
      ],
      "name": "LenderMakeOffer",
      "type": "event"
    },
    {
      "anonymous": false,
      "inputs": [
        {
          "indexed": true,
          "internalType": "address",
          "name": "previousOwner",
          "type": "address"
        },
        {
          "indexed": true,
          "internalType": "address",
          "name": "newOwner",
          "type": "address"
        }
      ],
      "name": "OwnershipTransferred",
      "type": "event"
    },
    {
      "anonymous": false,
      "inputs": [
        {
          "indexed": false,
          "internalType": "address",
          "name": "_address",
          "type": "address"
        }
      ],
      "name": "RegisterLending",
      "type": "event"
    },
    {
      "anonymous": false,
      "inputs": [
        {
          "indexed": false,
          "internalType": "address",
          "name": "NFTAddress",
          "type": "address"
        }
      ],
      "name": "RegisterNFT",
      "type": "event"
    },
    {
      "anonymous": false,
      "inputs": [
        {
          "indexed": false,
          "internalType": "address",
          "name": "NFTAddress",
          "type": "address"
        }
      ],
      "name": "UnRegisterNFT",
      "type": "event"
    },
    {
      "anonymous": false,
      "inputs": [
        {
          "indexed": false,
          "internalType": "uint256",
          "name": "requestNumber",
          "type": "uint256"
        },
        {
          "indexed": false,
          "internalType": "uint256",
          "name": "offerNumber",
          "type": "uint256"
        }
      ],
      "name": "VendorAcceptOffer",
      "type": "event"
    },
    {
      "anonymous": false,
      "inputs": [
        {
          "indexed": false,
          "internalType": "address",
          "name": "vendor",
          "type": "address"
        },
        {
          "indexed": false,
          "internalType": "contract ERC721",
          "name": "NFTAddress",
          "type": "address"
        },
        {
          "indexed": false,
          "internalType": "uint256",
          "name": "tokenId",
          "type": "uint256"
        }
      ],
      "name": "VendorMakeRequest",
      "type": "event"
    },
    {
      "anonymous": false,
      "inputs": [
        {
          "indexed": false,
          "internalType": "uint256",
          "name": "requestNumber",
          "type": "uint256"
        },
        {
          "indexed": false,
          "internalType": "uint256",
          "name": "paidCounter",
          "type": "uint256"
        }
      ],
      "name": "VendorPayRountine",
      "type": "event"
    },
    {
      "anonymous": false,
      "inputs": [
        {
          "indexed": false,
          "internalType": "uint256",
          "name": "requestNumber",
          "type": "uint256"
        }
      ],
      "name": "VendorReddem",
      "type": "event"
    },
    {
      "anonymous": false,
      "inputs": [
        {
          "indexed": false,
          "internalType": "uint256",
          "name": "_requestNumber",
          "type": "uint256"
        },
        {
          "indexed": false,
          "internalType": "address",
          "name": "_reciever",
          "type": "address"
        }
      ],
      "name": "WithDrawNFT",
      "type": "event"
    },
    {
      "inputs": [
        {
          "internalType": "address",
          "name": "",
          "type": "address"
        }
      ],
      "name": "addressBalance",
      "outputs": [
        {
          "internalType": "uint256",
          "name": "",
          "type": "uint256"
        }
      ],
      "stateMutability": "view",
      "type": "function"
    },
    {
      "inputs": [
        {
          "internalType": "uint256",
          "name": "_requestNumber",
          "type": "uint256"
        },
        {
          "internalType": "uint256",
          "name": "_offerNumber",
          "type": "uint256"
        }
      ],
      "name": "getOfferBook",
      "outputs": [
        {
          "components": [
            {
              "internalType": "address payable",
              "name": "lender",
              "type": "address"
            },
            {
              "internalType": "uint256",
              "name": "offerTokenAmount",
              "type": "uint256"
            },
            {
              "internalType": "uint256",
              "name": "offerRate",
              "type": "uint256"
            },
            {
              "internalType": "uint256",
              "name": "offerAmountOfTime",
              "type": "uint256"
            },
            {
              "internalType": "uint256",
              "name": "offerPaymentTime",
              "type": "uint256"
            }
          ],
          "internalType": "struct Offer.OfferDetail",
          "name": "",
          "type": "tuple"
        }
      ],
      "stateMutability": "view",
      "type": "function"
    },
    {
      "inputs": [
        {
          "internalType": "uint256",
          "name": "_requestNumber",
          "type": "uint256"
        }
      ],
      "name": "getReceiptBook",
      "outputs": [
        {
          "components": [
            {
              "internalType": "address",
              "name": "vendor",
              "type": "address"
            },
            {
              "internalType": "address",
              "name": "lender",
              "type": "address"
            },
            {
              "internalType": "contract ERC721",
              "name": "NFTAddress",
              "type": "address"
            },
            {
              "internalType": "uint256",
              "name": "tokenId",
              "type": "uint256"
            },
            {
              "internalType": "uint256",
              "name": "tokenAmount",
              "type": "uint256"
            },
            {
              "internalType": "uint256",
              "name": "tokenRate",
              "type": "uint256"
            },
            {
              "internalType": "uint256",
              "name": "amountOfTime",
              "type": "uint256"
            },
            {
              "internalType": "uint256",
              "name": "deadLine",
              "type": "uint256"
            },
            {
              "internalType": "uint256",
              "name": "paymentTime",
              "type": "uint256"
            },
            {
              "internalType": "uint256",
              "name": "paymentCount",
              "type": "uint256"
            }
          ],
          "internalType": "struct Receipt.ReceiptDetail",
          "name": "",
          "type": "tuple"
        }
      ],
      "stateMutability": "view",
      "type": "function"
    },
    {
      "inputs": [
        {
          "internalType": "uint256",
          "name": "_requestNumber",
          "type": "uint256"
        }
      ],
      "name": "getTokenMustPaidPerTime",
      "outputs": [
        {
          "internalType": "uint256",
          "name": "",
          "type": "uint256"
        }
      ],
      "stateMutability": "view",
      "type": "function"
    },
    {
      "inputs": [
        {
          "internalType": "uint256",
          "name": "_requestNumber",
          "type": "uint256"
        },
        {
          "internalType": "uint256",
          "name": "_offerRate",
          "type": "uint256"
        },
        {
          "internalType": "uint256",
          "name": "_amountOfTime",
          "type": "uint256"
        },
        {
          "internalType": "uint256",
          "name": "_paymentTime",
          "type": "uint256"
        }
      ],
      "name": "lenderMakeOffer",
      "outputs": [],
      "stateMutability": "payable",
      "type": "function"
    },
    {
      "inputs": [
        {
          "internalType": "uint256",
          "name": "",
          "type": "uint256"
        },
        {
          "internalType": "uint256",
          "name": "",
          "type": "uint256"
        }
      ],
      "name": "offerBook",
      "outputs": [
        {
          "internalType": "address payable",
          "name": "lender",
          "type": "address"
        },
        {
          "internalType": "uint256",
          "name": "offerTokenAmount",
          "type": "uint256"
        },
        {
          "internalType": "uint256",
          "name": "offerRate",
          "type": "uint256"
        },
        {
          "internalType": "uint256",
          "name": "offerAmountOfTime",
          "type": "uint256"
        },
        {
          "internalType": "uint256",
          "name": "offerPaymentTime",
          "type": "uint256"
        }
      ],
      "stateMutability": "view",
      "type": "function"
    },
    {
      "inputs": [
        {
          "internalType": "uint256",
          "name": "",
          "type": "uint256"
        }
      ],
      "name": "offerOrder",
      "outputs": [
        {
          "internalType": "uint256",
          "name": "",
          "type": "uint256"
        }
      ],
      "stateMutability": "view",
      "type": "function"
    },
    {
      "inputs": [],
      "name": "owner",
      "outputs": [
        {
          "internalType": "address",
          "name": "",
          "type": "address"
        }
      ],
      "stateMutability": "view",
      "type": "function"
    },
    {
      "inputs": [
        {
          "internalType": "uint256",
          "name": "",
          "type": "uint256"
        }
      ],
      "name": "receiptBook",
      "outputs": [
        {
          "internalType": "address",
          "name": "vendor",
          "type": "address"
        },
        {
          "internalType": "address",
          "name": "lender",
          "type": "address"
        },
        {
          "internalType": "contract ERC721",
          "name": "NFTAddress",
          "type": "address"
        },
        {
          "internalType": "uint256",
          "name": "tokenId",
          "type": "uint256"
        },
        {
          "internalType": "uint256",
          "name": "tokenAmount",
          "type": "uint256"
        },
        {
          "internalType": "uint256",
          "name": "tokenRate",
          "type": "uint256"
        },
        {
          "internalType": "uint256",
          "name": "amountOfTime",
          "type": "uint256"
        },
        {
          "internalType": "uint256",
          "name": "deadLine",
          "type": "uint256"
        },
        {
          "internalType": "uint256",
          "name": "paymentTime",
          "type": "uint256"
        },
        {
          "internalType": "uint256",
          "name": "paymentCount",
          "type": "uint256"
        }
      ],
      "stateMutability": "view",
      "type": "function"
    },
    {
      "inputs": [
        {
          "internalType": "address",
          "name": "",
          "type": "address"
        }
      ],
      "name": "registerAddresses",
      "outputs": [
        {
          "internalType": "bool",
          "name": "",
          "type": "bool"
        }
      ],
      "stateMutability": "view",
      "type": "function"
    },
    {
      "inputs": [
        {
          "internalType": "address",
          "name": "",
          "type": "address"
        }
      ],
      "name": "registerERC721",
      "outputs": [
        {
          "internalType": "bool",
          "name": "",
          "type": "bool"
        }
      ],
      "stateMutability": "view",
      "type": "function"
    },
    {
      "inputs": [],
      "name": "registerLending",
      "outputs": [],
      "stateMutability": "nonpayable",
      "type": "function"
    },
    {
      "inputs": [
        {
          "internalType": "contract ERC721",
          "name": "_NFTAddress",
          "type": "address"
        }
      ],
      "name": "registerNFT",
      "outputs": [],
      "stateMutability": "nonpayable",
      "type": "function"
    },
    {
      "inputs": [
        {
          "internalType": "address",
          "name": "",
          "type": "address"
        }
      ],
      "name": "registerNFTs",
      "outputs": [
        {
          "internalType": "bool",
          "name": "",
          "type": "bool"
        }
      ],
      "stateMutability": "view",
      "type": "function"
    },
    {
      "inputs": [],
      "name": "renounceOwnership",
      "outputs": [],
      "stateMutability": "nonpayable",
      "type": "function"
    },
    {
      "inputs": [
        {
          "internalType": "address",
          "name": "newOwner",
          "type": "address"
        }
      ],
      "name": "transferOwnership",
      "outputs": [],
      "stateMutability": "nonpayable",
      "type": "function"
    },
    {
      "inputs": [
        {
          "internalType": "contract ERC721",
          "name": "_NFTAddress",
          "type": "address"
        }
      ],
      "name": "unRegisterNFT",
      "outputs": [],
      "stateMutability": "nonpayable",
      "type": "function"
    },
    {
      "inputs": [
        {
          "internalType": "uint256",
          "name": "_requestNumber",
          "type": "uint256"
        },
        {
          "internalType": "uint256",
          "name": "_offerNumber",
          "type": "uint256"
        }
      ],
      "name": "vendorAcceptOffer",
      "outputs": [],
      "stateMutability": "nonpayable",
      "type": "function"
    },
    {
      "inputs": [
        {
          "internalType": "contract ERC721",
          "name": "NFTAddress",
          "type": "address"
        },
        {
          "internalType": "uint256",
          "name": "tokenId",
          "type": "uint256"
        }
      ],
      "name": "vendorMakeRequest",
      "outputs": [],
      "stateMutability": "nonpayable",
      "type": "function"
    },
    {
      "inputs": [
        {
          "internalType": "uint256",
          "name": "_requestNumber",
          "type": "uint256"
        }
      ],
      "name": "vendorPayRountine",
      "outputs": [],
      "stateMutability": "payable",
      "type": "function"
    },
    {
      "inputs": [
        {
          "internalType": "uint256",
          "name": "_requestNumber",
          "type": "uint256"
        }
      ],
      "name": "withdrawNFT",
      "outputs": [],
      "stateMutability": "nonpayable",
      "type": "function"
    }
  ],
  "bytecode": "0x60806040523480156200001157600080fd5b5062000032620000266200003860201b60201c565b6200004060201b60201c565b62000104565b600033905090565b60008060009054906101000a900473ffffffffffffffffffffffffffffffffffffffff169050816000806101000a81548173ffffffffffffffffffffffffffffffffffffffff021916908373ffffffffffffffffffffffffffffffffffffffff1602179055508173ffffffffffffffffffffffffffffffffffffffff168173ffffffffffffffffffffffffffffffffffffffff167f8be0079c531659141344cd1fd0a4f28419497f9722a3daafe3b4186f6b6457e060405160405180910390a35050565b61342680620001146000396000f3fe60806040526004361061012a5760003560e01c8063715018a6116100ab578063a0925cbd1161006f578063a0925cbd146103d2578063b689876b1461040f578063cbb78c9a1461044c578063f2fde38b14610475578063fb3f28fe1461049e578063fdf586d7146104df5761012a565b8063715018a6146102ff57806376f59acf146103165780638da5cb5b146103535780639e3b6c4c1461037e5780639f6eb4f3146103bb5761012a565b80633ec4de35116100f25780633ec4de351461020a5780635f6fc51b14610247578063665912c3146102705780636aaf1f38146102995780636f26ba14146102c25761012a565b8063023245d71461012f57806312a1dc1d146101585780631d727b23146101955780631e90ca32146101b15780633ca5da8d146101cd575b600080fd5b34801561013b57600080fd5b5061015660048036038101906101519190612362565b610525565b005b34801561016457600080fd5b5061017f600480360381019061017a9190612362565b6107b7565b60405161018c919061250a565b60405180910390f35b6101af60048036038101906101aa9190612362565b61092d565b005b6101cb60048036038101906101c69190612526565b610ce4565b005b3480156101d957600080fd5b506101f460048036038101906101ef919061258d565b611037565b6040516102019190612656565b60405180910390f35b34801561021657600080fd5b50610231600480360381019061022c919061269d565b6110f4565b60405161023e91906126d9565b60405180910390f35b34801561025357600080fd5b5061026e60048036038101906102699190612732565b61110c565b005b34801561027c57600080fd5b5061029760048036038101906102929190612772565b61149a565b005b3480156102a557600080fd5b506102c060048036038101906102bb9190612772565b6115c7565b005b3480156102ce57600080fd5b506102e960048036038101906102e4919061269d565b6116f4565b6040516102f691906127ba565b60405180910390f35b34801561030b57600080fd5b50610314611714565b005b34801561032257600080fd5b5061033d6004803603810190610338919061269d565b611728565b60405161034a91906127ba565b60405180910390f35b34801561035f57600080fd5b50610368611748565b60405161037591906127e4565b60405180910390f35b34801561038a57600080fd5b506103a560048036038101906103a09190612362565b611771565b6040516103b291906126d9565b60405180910390f35b3480156103c757600080fd5b506103d0611789565b005b3480156103de57600080fd5b506103f960048036038101906103f49190612362565b6118ad565b60405161040691906126d9565b60405180910390f35b34801561041b57600080fd5b506104366004803603810190610431919061269d565b611920565b60405161044391906127ba565b60405180910390f35b34801561045857600080fd5b50610473600480360381019061046e919061258d565b611940565b005b34801561048157600080fd5b5061049c6004803603810190610497919061269d565b611e80565b005b3480156104aa57600080fd5b506104c560048036038101906104c0919061258d565b611f03565b6040516104d695949392919061280e565b60405180910390f35b3480156104eb57600080fd5b5061050660048036038101906105019190612362565b611f66565b60405161051c9a99989796959493929190612870565b60405180910390f35b6000610530826107b7565b9050600081604001519050816000015173ffffffffffffffffffffffffffffffffffffffff163373ffffffffffffffffffffffffffffffffffffffff1614806105a85750816020015173ffffffffffffffffffffffffffffffffffffffff163373ffffffffffffffffffffffffffffffffffffffff16145b6105e7576040517f08c379a00000000000000000000000000000000000000000000000000000000081526004016105de90612969565b60405180910390fd5b816020015173ffffffffffffffffffffffffffffffffffffffff163373ffffffffffffffffffffffffffffffffffffffff16036106b95760008260c001518360e0015161063491906129b8565b905060008361010001518460c0015161064d9190612a1b565b9050600081834261065e91906129b8565b6106689190612a1b565b905080856101200151106106b1576040517f08c379a00000000000000000000000000000000000000000000000000000000081526004016106a890612a98565b60405180910390fd5b505050610706565b81610100015182610120015114610705576040517f08c379a00000000000000000000000000000000000000000000000000000000081526004016106fc90612a98565b60405180910390fd5b5b8073ffffffffffffffffffffffffffffffffffffffff166323b872dd303385606001516040518463ffffffff1660e01b815260040161074793929190612ab8565b600060405180830381600087803b15801561076157600080fd5b505af1158015610775573d6000803e3d6000fd5b505050507fc11b01f2a3c991d770c6779a695f6264d7189edc3e57260ec9a7f70a4474529583336040516107aa929190612aef565b60405180910390a1505050565b6107bf61224d565b60046000838152602001908152602001600020604051806101400160405290816000820160009054906101000a900473ffffffffffffffffffffffffffffffffffffffff1673ffffffffffffffffffffffffffffffffffffffff1673ffffffffffffffffffffffffffffffffffffffff1681526020016001820160009054906101000a900473ffffffffffffffffffffffffffffffffffffffff1673ffffffffffffffffffffffffffffffffffffffff1673ffffffffffffffffffffffffffffffffffffffff1681526020016002820160009054906101000a900473ffffffffffffffffffffffffffffffffffffffff1673ffffffffffffffffffffffffffffffffffffffff1673ffffffffffffffffffffffffffffffffffffffff1681526020016003820154815260200160048201548152602001600582015481526020016006820154815260200160078201548152602001600882015481526020016009820154815250509050919050565b600060046000838152602001908152602001600020905060008160060154826007015461095a91906129b8565b90506000826008015483600601546109729190612a1b565b9050600081834261098391906129b8565b61098d9190612a1b565b905083600901548460090154106109d9576040517f08c379a00000000000000000000000000000000000000000000000000000000081526004016109d090612b64565b60405180910390fd5b8084600901541015610a20576040517f08c379a0000000000000000000000000000000000000000000000000000000008152600401610a1790612bd0565b60405180910390fd5b6000610a2b866118ad565b905080341015610a70576040517f08c379a0000000000000000000000000000000000000000000000000000000008152600401610a6790612c3c565b60405180910390fd5b8034610a7c91906129b8565b600860003373ffffffffffffffffffffffffffffffffffffffff1673ffffffffffffffffffffffffffffffffffffffff1681526020019081526020016000206000828254610aca9190612c5c565b92505081905550610b146040518060400160405280600b81526020017f746f6b656e416d6f756e74000000000000000000000000000000000000000000815250866004015461201a565b610b926040518060400160405280601b81526020017f206164647265737342616c616e63655b6d73672e73656e6465725d0000000000815250600860003373ffffffffffffffffffffffffffffffffffffffff1673ffffffffffffffffffffffffffffffffffffffff1681526020019081526020016000205461201a565b610bd16040518060400160405280600d81526020017f746f6b656e4d75737450616964000000000000000000000000000000000000008152508261201a565b60008560010160009054906101000a900473ffffffffffffffffffffffffffffffffffffffff1690508073ffffffffffffffffffffffffffffffffffffffff166108fc839081150290604051600060405180830381858888f19350505050158015610c40573d6000803e3d6000fd5b50856009016000815480929190610c5690612c90565b9190505550610c9e6040518060400160405280600f81526020017f72642e7061796d656e74436f756e740000000000000000000000000000000000815250876009015461201a565b7fa5b38515d2d022b2ba1ab51c9d7e7a65562e00e923943d9f63bc0318392551cc878760090154604051610cd3929190612cd8565b60405180910390a150505050505050565b60001515600260003373ffffffffffffffffffffffffffffffffffffffff1673ffffffffffffffffffffffffffffffffffffffff16815260200190815260200160002060009054906101000a900460ff16151503610d77576040517f08c379a0000000000000000000000000000000000000000000000000000000008152600401610d6e90612d4d565b60405180910390fd5b6000600660008681526020019081526020016000205490506000600460008781526020019081526020016000209050600073ffffffffffffffffffffffffffffffffffffffff168160000160009054906101000a900473ffffffffffffffffffffffffffffffffffffffff1673ffffffffffffffffffffffffffffffffffffffff1603610e39576040517f08c379a0000000000000000000000000000000000000000000000000000000008152600401610e3090612db9565b60405180910390fd5b62093a808385610e499190612a1b565b10158015610e59575062278d0084105b610e98576040517f08c379a0000000000000000000000000000000000000000000000000000000008152600401610e8f90612e4b565b60405180910390fd5b6040518060a001604052803373ffffffffffffffffffffffffffffffffffffffff1681526020013481526020018681526020018581526020018481525060056000888152602001908152602001600020600084815260200190815260200160002060008201518160000160006101000a81548173ffffffffffffffffffffffffffffffffffffffff021916908373ffffffffffffffffffffffffffffffffffffffff160217905550602082015181600101556040820151816002015560608201518160030155608082015181600401559050506001600660008881526020019081526020016000206000828254610f8f9190612c5c565b9250508190555034600860003373ffffffffffffffffffffffffffffffffffffffff1673ffffffffffffffffffffffffffffffffffffffff1681526020019081526020016000206000828254610fe59190612c5c565b925050819055507f50f6b5023be496691b3891b86afe1c2608733fb577cf0e100d9d697d968f3075338784348989896040516110279796959493929190612e6b565b60405180910390a1505050505050565b61103f6122e2565b6005600084815260200190815260200160002060008381526020019081526020016000206040518060a00160405290816000820160009054906101000a900473ffffffffffffffffffffffffffffffffffffffff1673ffffffffffffffffffffffffffffffffffffffff1673ffffffffffffffffffffffffffffffffffffffff168152602001600182015481526020016002820154815260200160038201548152602001600482015481525050905092915050565b60086020528060005260406000206000915090505481565b60001515600260003373ffffffffffffffffffffffffffffffffffffffff1673ffffffffffffffffffffffffffffffffffffffff16815260200190815260200160002060009054906101000a900460ff1615150361119f576040517f08c379a000000000000000000000000000000000000000000000000000000000815260040161119690612d4d565b60405180910390fd5b3373ffffffffffffffffffffffffffffffffffffffff168273ffffffffffffffffffffffffffffffffffffffff16636352211e836040518263ffffffff1660e01b81526004016111ef91906126d9565b602060405180830381865afa15801561120c573d6000803e3d6000fd5b505050506040513d601f19601f820116820180604052508101906112309190612eef565b73ffffffffffffffffffffffffffffffffffffffff1614611286576040517f08c379a000000000000000000000000000000000000000000000000000000000815260040161127d90612f68565b60405180910390fd5b6040518061014001604052803373ffffffffffffffffffffffffffffffffffffffff168152602001600073ffffffffffffffffffffffffffffffffffffffff1681526020018373ffffffffffffffffffffffffffffffffffffffff168152602001828152602001600081526020016000815260200160008152602001600081526020016000815260200160008152506004600061132360016120b6565b815260200190815260200160002060008201518160000160006101000a81548173ffffffffffffffffffffffffffffffffffffffff021916908373ffffffffffffffffffffffffffffffffffffffff16021790555060208201518160010160006101000a81548173ffffffffffffffffffffffffffffffffffffffff021916908373ffffffffffffffffffffffffffffffffffffffff16021790555060408201518160020160006101000a81548173ffffffffffffffffffffffffffffffffffffffff021916908373ffffffffffffffffffffffffffffffffffffffff160217905550606082015181600301556080820151816004015560a0820151816005015560c0820151816006015560e082015181600701556101008201518160080155610120820151816009015590505061145b60016120c4565b7f55cad5487a8d5706bf3bd54110cc7c218f67a1d7a7a5d9ac3118efb7e274072f33838360405161148e93929190612f88565b60405180910390a15050565b6114a26120da565b60011515600360008373ffffffffffffffffffffffffffffffffffffffff1673ffffffffffffffffffffffffffffffffffffffff16815260200190815260200160002060009054906101000a900460ff16151503611535576040517f08c379a000000000000000000000000000000000000000000000000000000000815260040161152c9061300b565b60405180910390fd5b6000600360008373ffffffffffffffffffffffffffffffffffffffff1673ffffffffffffffffffffffffffffffffffffffff16815260200190815260200160002060006101000a81548160ff0219169083151502179055507f47a68d495ca67fd0a225bf31f11c6546e283fd92264120d78a882a9a30357bb4816040516115bc91906127e4565b60405180910390a150565b6115cf6120da565b60011515600360008373ffffffffffffffffffffffffffffffffffffffff1673ffffffffffffffffffffffffffffffffffffffff16815260200190815260200160002060009054906101000a900460ff16151503611662576040517f08c379a000000000000000000000000000000000000000000000000000000000815260040161165990613077565b60405180910390fd5b6001600360008373ffffffffffffffffffffffffffffffffffffffff1673ffffffffffffffffffffffffffffffffffffffff16815260200190815260200160002060006101000a81548160ff0219169083151502179055507f7fb5539ccc03b6d4621f2b708d17c807f41edb95f84db3fa93d785a4d9fe9889816040516116e991906127e4565b60405180910390a150565b60026020528060005260406000206000915054906101000a900460ff1681565b61171c6120da565b6117266000612158565b565b60036020528060005260406000206000915054906101000a900460ff1681565b60008060009054906101000a900473ffffffffffffffffffffffffffffffffffffffff16905090565b60066020528060005260406000206000915090505481565b60011515600260003373ffffffffffffffffffffffffffffffffffffffff1673ffffffffffffffffffffffffffffffffffffffff16815260200190815260200160002060009054906101000a900460ff1615150361181c576040517f08c379a000000000000000000000000000000000000000000000000000000000815260040161181390613077565b60405180910390fd5b6001600260003373ffffffffffffffffffffffffffffffffffffffff1673ffffffffffffffffffffffffffffffffffffffff16815260200190815260200160002060006101000a81548160ff0219169083151502179055507fe3ef193e4129e2935a1b72a9bf22a4d3d4034fc81d7cda95a10ec614f338a50c336040516118a391906127e4565b60405180910390a1565b600080600460008481526020019081526020016000209050600081600801546064836005015484600401546118e29190613097565b6118ec9190612a1b565b6118f69190612a1b565b8260080154836004015461190a9190612a1b565b6119149190612c5c565b90508092505050919050565b60076020528060005260406000206000915054906101000a900460ff1681565b60001515600260003373ffffffffffffffffffffffffffffffffffffffff1673ffffffffffffffffffffffffffffffffffffffff16815260200190815260200160002060009054906101000a900460ff161515036119d3576040517f08c379a00000000000000000000000000000000000000000000000000000000081526004016119ca90612d4d565b60405180910390fd5b813373ffffffffffffffffffffffffffffffffffffffff166004600083815260200190815260200160002060000160009054906101000a900473ffffffffffffffffffffffffffffffffffffffff1673ffffffffffffffffffffffffffffffffffffffff1614611a78576040517f08c379a0000000000000000000000000000000000000000000000000000000008152600401611a6f90613125565b60405180910390fd5b600060046000858152602001908152602001600020905060006005600086815260200190815260200160002060008581526020019081526020016000206040518060a00160405290816000820160009054906101000a900473ffffffffffffffffffffffffffffffffffffffff1673ffffffffffffffffffffffffffffffffffffffff1673ffffffffffffffffffffffffffffffffffffffff1681526020016001820154815260200160028201548152602001600382015481526020016004820154815250509050600073ffffffffffffffffffffffffffffffffffffffff16816000015173ffffffffffffffffffffffffffffffffffffffff1603611bb3576040517f08c379a0000000000000000000000000000000000000000000000000000000008152600401611baa90613191565b60405180910390fd5b806020015160086000836000015173ffffffffffffffffffffffffffffffffffffffff1673ffffffffffffffffffffffffffffffffffffffff168152602001908152602001600020541015611c3d576040517f08c379a0000000000000000000000000000000000000000000000000000000008152600401611c3490613223565b60405180910390fd5b80600001518260010160006101000a81548173ffffffffffffffffffffffffffffffffffffffff021916908373ffffffffffffffffffffffffffffffffffffffff160217905550806020015182600401819055508060400151826005018190555080606001518260060181905550806060015142611cbb9190612c5c565b82600701819055508060800151826008018190555060008260020160009054906101000a900473ffffffffffffffffffffffffffffffffffffffff1690508073ffffffffffffffffffffffffffffffffffffffff166323b872dd8460000160009054906101000a900473ffffffffffffffffffffffffffffffffffffffff163086600301546040518463ffffffff1660e01b8152600401611d5e93929190612ab8565b600060405180830381600087803b158015611d7857600080fd5b505af1158015611d8c573d6000803e3d6000fd5b5050505060003390508073ffffffffffffffffffffffffffffffffffffffff166108fc84602001519081150290604051600060405180830381858888f19350505050158015611ddf573d6000803e3d6000fd5b50826020015160086000856000015173ffffffffffffffffffffffffffffffffffffffff1673ffffffffffffffffffffffffffffffffffffffff1681526020019081526020016000206000828254611e3791906129b8565b925050819055507f33480e6438de06b082e71645818d7d706fce12aa866dcefbb25301b3fed7f0af8787604051611e6f929190612cd8565b60405180910390a150505050505050565b611e886120da565b600073ffffffffffffffffffffffffffffffffffffffff168173ffffffffffffffffffffffffffffffffffffffff1603611ef7576040517f08c379a0000000000000000000000000000000000000000000000000000000008152600401611eee906132b5565b60405180910390fd5b611f0081612158565b50565b6005602052816000526040600020602052806000526040600020600091509150508060000160009054906101000a900473ffffffffffffffffffffffffffffffffffffffff16908060010154908060020154908060030154908060040154905085565b60046020528060005260406000206000915090508060000160009054906101000a900473ffffffffffffffffffffffffffffffffffffffff16908060010160009054906101000a900473ffffffffffffffffffffffffffffffffffffffff16908060020160009054906101000a900473ffffffffffffffffffffffffffffffffffffffff1690806003015490806004015490806005015490806006015490806007015490806008015490806009015490508a565b6120b28282604051602401612030929190613354565b6040516020818303038152906040527fb60e72cc000000000000000000000000000000000000000000000000000000007bffffffffffffffffffffffffffffffffffffffffffffffffffffffff19166020820180517bffffffffffffffffffffffffffffffffffffffffffffffffffffffff838183161783525050505061221c565b5050565b600081600001549050919050565b6001816000016000828254019250508190555050565b6120e2612245565b73ffffffffffffffffffffffffffffffffffffffff16612100611748565b73ffffffffffffffffffffffffffffffffffffffff1614612156576040517f08c379a000000000000000000000000000000000000000000000000000000000815260040161214d906133d0565b60405180910390fd5b565b60008060009054906101000a900473ffffffffffffffffffffffffffffffffffffffff169050816000806101000a81548173ffffffffffffffffffffffffffffffffffffffff021916908373ffffffffffffffffffffffffffffffffffffffff1602179055508173ffffffffffffffffffffffffffffffffffffffff168173ffffffffffffffffffffffffffffffffffffffff167f8be0079c531659141344cd1fd0a4f28419497f9722a3daafe3b4186f6b6457e060405160405180910390a35050565b60008151905060006a636f6e736f6c652e6c6f679050602083016000808483855afa5050505050565b600033905090565b604051806101400160405280600073ffffffffffffffffffffffffffffffffffffffff168152602001600073ffffffffffffffffffffffffffffffffffffffff168152602001600073ffffffffffffffffffffffffffffffffffffffff168152602001600081526020016000815260200160008152602001600081526020016000815260200160008152602001600081525090565b6040518060a00160405280600073ffffffffffffffffffffffffffffffffffffffff168152602001600081526020016000815260200160008152602001600081525090565b600080fd5b6000819050919050565b61233f8161232c565b811461234a57600080fd5b50565b60008135905061235c81612336565b92915050565b60006020828403121561237857612377612327565b5b60006123868482850161234d565b91505092915050565b600073ffffffffffffffffffffffffffffffffffffffff82169050919050565b60006123ba8261238f565b9050919050565b6123ca816123af565b82525050565b6000819050919050565b60006123f56123f06123eb8461238f565b6123d0565b61238f565b9050919050565b6000612407826123da565b9050919050565b6000612419826123fc565b9050919050565b6124298161240e565b82525050565b6124388161232c565b82525050565b6101408201600082015161245560008501826123c1565b50602082015161246860208501826123c1565b50604082015161247b6040850182612420565b50606082015161248e606085018261242f565b5060808201516124a1608085018261242f565b5060a08201516124b460a085018261242f565b5060c08201516124c760c085018261242f565b5060e08201516124da60e085018261242f565b506101008201516124ef61010085018261242f565b5061012082015161250461012085018261242f565b50505050565b600061014082019050612520600083018461243e565b92915050565b600080600080608085870312156125405761253f612327565b5b600061254e8782880161234d565b945050602061255f8782880161234d565b93505060406125708782880161234d565b92505060606125818782880161234d565b91505092959194509250565b600080604083850312156125a4576125a3612327565b5b60006125b28582860161234d565b92505060206125c38582860161234d565b9150509250929050565b60006125d88261238f565b9050919050565b6125e8816125cd565b82525050565b60a08201600082015161260460008501826125df565b506020820151612617602085018261242f565b50604082015161262a604085018261242f565b50606082015161263d606085018261242f565b506080820151612650608085018261242f565b50505050565b600060a08201905061266b60008301846125ee565b92915050565b61267a816123af565b811461268557600080fd5b50565b60008135905061269781612671565b92915050565b6000602082840312156126b3576126b2612327565b5b60006126c184828501612688565b91505092915050565b6126d38161232c565b82525050565b60006020820190506126ee60008301846126ca565b92915050565b60006126ff826123af565b9050919050565b61270f816126f4565b811461271a57600080fd5b50565b60008135905061272c81612706565b92915050565b6000806040838503121561274957612748612327565b5b60006127578582860161271d565b92505060206127688582860161234d565b9150509250929050565b60006020828403121561278857612787612327565b5b60006127968482850161271d565b91505092915050565b60008115159050919050565b6127b48161279f565b82525050565b60006020820190506127cf60008301846127ab565b92915050565b6127de816123af565b82525050565b60006020820190506127f960008301846127d5565b92915050565b612808816125cd565b82525050565b600060a08201905061282360008301886127ff565b61283060208301876126ca565b61283d60408301866126ca565b61284a60608301856126ca565b61285760808301846126ca565b9695505050505050565b61286a8161240e565b82525050565b600061014082019050612886600083018d6127d5565b612893602083018c6127d5565b6128a0604083018b612861565b6128ad606083018a6126ca565b6128ba60808301896126ca565b6128c760a08301886126ca565b6128d460c08301876126ca565b6128e160e08301866126ca565b6128ef6101008301856126ca565b6128fd6101208301846126ca565b9b9a5050505050505050505050565b600082825260208201905092915050565b7f4c656e64696e673a206e6f742061626c6520746f206163636573730000000000600082015250565b6000612953601b8361290c565b915061295e8261291d565b602082019050919050565b6000602082019050818103600083015261298281612946565b9050919050565b7f4e487b7100000000000000000000000000000000000000000000000000000000600052601160045260246000fd5b60006129c38261232c565b91506129ce8361232c565b92508282039050818111156129e6576129e5612989565b5b92915050565b7f4e487b7100000000000000000000000000000000000000000000000000000000600052601260045260246000fd5b6000612a268261232c565b9150612a318361232c565b925082612a4157612a406129ec565b5b828204905092915050565b7f4c656e64696e673a2052657175657374206f6e2074696d650000000000000000600082015250565b6000612a8260188361290c565b9150612a8d82612a4c565b602082019050919050565b60006020820190508181036000830152612ab181612a75565b9050919050565b6000606082019050612acd60008301866127d5565b612ada60208301856127d5565b612ae760408301846126ca565b949350505050565b6000604082019050612b0460008301856126ca565b612b1160208301846127d5565b9392505050565b7f4c656e64696e673a205061696420646f6e650000000000000000000000000000600082015250565b6000612b4e60128361290c565b9150612b5982612b18565b602082019050919050565b60006020820190508181036000830152612b7d81612b41565b9050919050565b7f4c656e64696e673a20526571756573742074696d65206f757400000000000000600082015250565b6000612bba60198361290c565b9150612bc582612b84565b602082019050919050565b60006020820190508181036000830152612be981612bad565b9050919050565b7f4c656e64696e673a204e6f7420656e6f75676820657468000000000000000000600082015250565b6000612c2660178361290c565b9150612c3182612bf0565b602082019050919050565b60006020820190508181036000830152612c5581612c19565b9050919050565b6000612c678261232c565b9150612c728361232c565b9250828201905080821115612c8a57612c89612989565b5b92915050565b6000612c9b8261232c565b91507fffffffffffffffffffffffffffffffffffffffffffffffffffffffffffffffff8203612ccd57612ccc612989565b5b600182019050919050565b6000604082019050612ced60008301856126ca565b612cfa60208301846126ca565b9392505050565b7f41646472657373206d7573742062652072656769737465726564000000000000600082015250565b6000612d37601a8361290c565b9150612d4282612d01565b602082019050919050565b60006020820190508181036000830152612d6681612d2a565b9050919050565b7f4c656e64696e673a2072656365697074206d7573742065786973740000000000600082015250565b6000612da3601b8361290c565b9150612dae82612d6d565b602082019050919050565b60006020820190508181036000830152612dd281612d96565b9050919050565b7f4c656e64696e673a206f666665722074696d6520616e64207061796d656e742060008201527f74696d6520617265206e6f742076616c69640000000000000000000000000000602082015250565b6000612e3560328361290c565b9150612e4082612dd9565b604082019050919050565b60006020820190508181036000830152612e6481612e28565b9050919050565b600060e082019050612e80600083018a6127ff565b612e8d60208301896126ca565b612e9a60408301886126ca565b612ea760608301876126ca565b612eb460808301866126ca565b612ec160a08301856126ca565b612ece60c08301846126ca565b98975050505050505050565b600081519050612ee981612671565b92915050565b600060208284031215612f0557612f04612327565b5b6000612f1384828501612eda565b91505092915050565b7f4c656e64696e673a2073656e646572206d7573742068617665204e4654000000600082015250565b6000612f52601d8361290c565b9150612f5d82612f1c565b602082019050919050565b60006020820190508181036000830152612f8181612f45565b9050919050565b6000606082019050612f9d60008301866127d5565b612faa6020830185612861565b612fb760408301846126ca565b949350505050565b7f416c726561647920756e2d7265676973746f7200000000000000000000000000600082015250565b6000612ff560138361290c565b915061300082612fbf565b602082019050919050565b6000602082019050818103600083015261302481612fe8565b9050919050565b7f416c7265616479207265676973746f7200000000000000000000000000000000600082015250565b600061306160108361290c565b915061306c8261302b565b602082019050919050565b6000602082019050818103600083015261309081613054565b9050919050565b60006130a28261232c565b91506130ad8361232c565b92508282026130bb8161232c565b915082820484148315176130d2576130d1612989565b5b5092915050565b7f4c656e64696e673a204d7573742062652056656e646f72000000000000000000600082015250565b600061310f60178361290c565b915061311a826130d9565b602082019050919050565b6000602082019050818103600083015261313e81613102565b9050919050565b7f4c656e64696e673a206f66666572206d75737420657869737400000000000000600082015250565b600061317b60198361290c565b915061318682613145565b602082019050919050565b600060208201905081810360008301526131aa8161316e565b9050919050565b7f4c656e64696e673a204c656e6465722062616c616e636520646f6573206e6f7460008201527f20737570706f7274000000000000000000000000000000000000000000000000602082015250565b600061320d60288361290c565b9150613218826131b1565b604082019050919050565b6000602082019050818103600083015261323c81613200565b9050919050565b7f4f776e61626c653a206e6577206f776e657220697320746865207a65726f206160008201527f6464726573730000000000000000000000000000000000000000000000000000602082015250565b600061329f60268361290c565b91506132aa82613243565b604082019050919050565b600060208201905081810360008301526132ce81613292565b9050919050565b600081519050919050565b60005b838110156132fe5780820151818401526020810190506132e3565b60008484015250505050565b6000601f19601f8301169050919050565b6000613326826132d5565b613330818561290c565b93506133408185602086016132e0565b6133498161330a565b840191505092915050565b6000604082019050818103600083015261336e818561331b565b905061337d60208301846126ca565b9392505050565b7f4f776e61626c653a2063616c6c6572206973206e6f7420746865206f776e6572600082015250565b60006133ba60208361290c565b91506133c582613384565b602082019050919050565b600060208201905081810360008301526133e9816133ad565b905091905056fea26469706673582212201d1b14f98421794c2a6cd0476bc823701639ecd913bff12278c65d5d85945a2e64736f6c63430008110033",
  "linkReferences": {},
  "deployedLinkReferences": {}
}