{
  "_format": "hh-sol-artifact-1",
  "contractName": "LendingFactory",
  "sourceName": "contracts/LendingFactory.sol",
  "abi": [
    {
      "inputs": [],
      "stateMutability": "nonpayable",
      "type": "constructor"
    },
    {
      "anonymous": false,
      "inputs": [
        {
          "indexed": false,
          "internalType": "address payable",
          "name": "lender",
          "type": "address"
        },
        {
          "indexed": false,
          "internalType": "uint256",
          "name": "requestNumber",
          "type": "uint256"
        },
        {
          "indexed": false,
          "internalType": "uint256",
          "name": "offerNumber",
          "type": "uint256"
        },
        {
          "indexed": false,
          "internalType": "uint256",
          "name": "offerTokenAmount",
          "type": "uint256"
        },
        {
          "indexed": false,
          "internalType": "uint256",
          "name": "offerRate",
          "type": "uint256"
        },
        {
          "indexed": false,
          "internalType": "uint256",
          "name": "offerAmountOfTime",
          "type": "uint256"
        },
        {
          "indexed": false,
          "internalType": "uint256",
          "name": "offerPaymenTime",
          "type": "uint256"
        }
      ],
      "name": "LenderMakeOffer",
      "type": "event"
    },
    {
      "anonymous": false,
      "inputs": [
        {
          "indexed": true,
          "internalType": "address",
          "name": "previousOwner",
          "type": "address"
        },
        {
          "indexed": true,
          "internalType": "address",
          "name": "newOwner",
          "type": "address"
        }
      ],
      "name": "OwnershipTransferred",
      "type": "event"
    },
    {
      "anonymous": false,
      "inputs": [
        {
          "indexed": false,
          "internalType": "address",
          "name": "NFTAddress",
          "type": "address"
        }
      ],
      "name": "RegisterNFT",
      "type": "event"
    },
    {
      "anonymous": false,
      "inputs": [
        {
          "indexed": false,
          "internalType": "address",
          "name": "NFTAddress",
          "type": "address"
        }
      ],
      "name": "UnRegisterNFT",
      "type": "event"
    },
    {
      "anonymous": false,
      "inputs": [
        {
          "indexed": false,
          "internalType": "uint256",
          "name": "requestNumber",
          "type": "uint256"
        },
        {
          "indexed": false,
          "internalType": "uint256",
          "name": "offerNumber",
          "type": "uint256"
        },
        {
          "indexed": false,
          "internalType": "address",
          "name": "vendor",
          "type": "address"
        },
        {
          "indexed": false,
          "internalType": "address",
          "name": "lender",
          "type": "address"
        },
        {
          "indexed": false,
          "internalType": "contract ERC721",
          "name": "NFTAddress",
          "type": "address"
        },
        {
          "indexed": false,
          "internalType": "uint256",
          "name": "tokenId",
          "type": "uint256"
        },
        {
          "indexed": false,
          "internalType": "uint256",
          "name": "tokenAmount",
          "type": "uint256"
        },
        {
          "indexed": false,
          "internalType": "uint256",
          "name": "tokenRate",
          "type": "uint256"
        },
        {
          "indexed": false,
          "internalType": "uint256",
          "name": "amountOfTime",
          "type": "uint256"
        },
        {
          "indexed": false,
          "internalType": "uint256",
          "name": "deadLine",
          "type": "uint256"
        },
        {
          "indexed": false,
          "internalType": "uint256",
          "name": "paymentTime",
          "type": "uint256"
        },
        {
          "indexed": false,
          "internalType": "uint256",
          "name": "paymentCount",
          "type": "uint256"
        }
      ],
      "name": "VendorAcceptOffer",
      "type": "event"
    },
    {
      "anonymous": false,
      "inputs": [
        {
          "indexed": false,
          "internalType": "address",
          "name": "vendor",
          "type": "address"
        },
        {
          "indexed": false,
          "internalType": "contract ERC721",
          "name": "NFTAddress",
          "type": "address"
        },
        {
          "indexed": false,
          "internalType": "uint256",
          "name": "tokenId",
          "type": "uint256"
        },
        {
          "indexed": false,
          "internalType": "uint256",
          "name": "requestNumber",
          "type": "uint256"
        }
      ],
      "name": "VendorMakeRequest",
      "type": "event"
    },
    {
      "anonymous": false,
      "inputs": [
        {
          "indexed": false,
          "internalType": "uint256",
          "name": "requestNumber",
          "type": "uint256"
        },
        {
          "indexed": false,
          "internalType": "uint256",
          "name": "paidCounter",
          "type": "uint256"
        }
      ],
      "name": "VendorPayRountine",
      "type": "event"
    },
    {
      "anonymous": false,
      "inputs": [
        {
          "indexed": false,
          "internalType": "uint256",
          "name": "requestNumber",
          "type": "uint256"
        }
      ],
      "name": "VendorReddem",
      "type": "event"
    },
    {
      "anonymous": false,
      "inputs": [
        {
          "indexed": false,
          "internalType": "uint256",
          "name": "requestNumber",
          "type": "uint256"
        },
        {
          "indexed": false,
          "internalType": "address",
          "name": "_reciever",
          "type": "address"
        }
      ],
      "name": "WithDrawNFT",
      "type": "event"
    },
    {
      "inputs": [
        {
          "internalType": "address",
          "name": "",
          "type": "address"
        }
      ],
      "name": "addressBalance",
      "outputs": [
        {
          "internalType": "uint256",
          "name": "",
          "type": "uint256"
        }
      ],
      "stateMutability": "view",
      "type": "function"
    },
    {
      "inputs": [],
      "name": "depositEth",
      "outputs": [],
      "stateMutability": "payable",
      "type": "function"
    },
    {
      "inputs": [
        {
          "internalType": "address",
          "name": "checker",
          "type": "address"
        }
      ],
      "name": "getAddressBalance",
      "outputs": [
        {
          "internalType": "uint256",
          "name": "",
          "type": "uint256"
        }
      ],
      "stateMutability": "view",
      "type": "function"
    },
    {
      "inputs": [
        {
          "internalType": "uint256",
          "name": "_requestNumber",
          "type": "uint256"
        },
        {
          "internalType": "uint256",
          "name": "_offerNumber",
          "type": "uint256"
        }
      ],
      "name": "getOfferBook",
      "outputs": [
        {
          "components": [
            {
              "internalType": "address payable",
              "name": "lender",
              "type": "address"
            },
            {
              "internalType": "uint256",
              "name": "offerTokenAmount",
              "type": "uint256"
            },
            {
              "internalType": "uint256",
              "name": "offerRate",
              "type": "uint256"
            },
            {
              "internalType": "uint256",
              "name": "offerAmountOfTime",
              "type": "uint256"
            },
            {
              "internalType": "uint256",
              "name": "offerPaymentTime",
              "type": "uint256"
            }
          ],
          "internalType": "struct Offer.OfferDetail",
          "name": "",
          "type": "tuple"
        }
      ],
      "stateMutability": "view",
      "type": "function"
    },
    {
      "inputs": [
        {
          "internalType": "uint256",
          "name": "_requestNumber",
          "type": "uint256"
        }
      ],
      "name": "getReceiptBook",
      "outputs": [
        {
          "components": [
            {
              "internalType": "address",
              "name": "vendor",
              "type": "address"
            },
            {
              "internalType": "address",
              "name": "lender",
              "type": "address"
            },
            {
              "internalType": "contract ERC721",
              "name": "NFTAddress",
              "type": "address"
            },
            {
              "internalType": "uint256",
              "name": "tokenId",
              "type": "uint256"
            },
            {
              "internalType": "uint256",
              "name": "tokenAmount",
              "type": "uint256"
            },
            {
              "internalType": "uint256",
              "name": "tokenRate",
              "type": "uint256"
            },
            {
              "internalType": "uint256",
              "name": "amountOfTime",
              "type": "uint256"
            },
            {
              "internalType": "uint256",
              "name": "deadLine",
              "type": "uint256"
            },
            {
              "internalType": "uint256",
              "name": "paymentTime",
              "type": "uint256"
            },
            {
              "internalType": "uint256",
              "name": "paymentCount",
              "type": "uint256"
            }
          ],
          "internalType": "struct Receipt.ReceiptDetail",
          "name": "",
          "type": "tuple"
        }
      ],
      "stateMutability": "view",
      "type": "function"
    },
    {
      "inputs": [
        {
          "internalType": "uint256",
          "name": "_requestNumber",
          "type": "uint256"
        }
      ],
      "name": "getTokenMustPaidPerTime",
      "outputs": [
        {
          "internalType": "uint256",
          "name": "",
          "type": "uint256"
        }
      ],
      "stateMutability": "view",
      "type": "function"
    },
    {
      "inputs": [
        {
          "internalType": "uint256",
          "name": "_requestNumber",
          "type": "uint256"
        },
        {
          "internalType": "uint256",
          "name": "_offerRate",
          "type": "uint256"
        },
        {
          "internalType": "uint256",
          "name": "_amountOfTime",
          "type": "uint256"
        },
        {
          "internalType": "uint256",
          "name": "_paymentTime",
          "type": "uint256"
        }
      ],
      "name": "lenderMakeOffer",
      "outputs": [],
      "stateMutability": "payable",
      "type": "function"
    },
    {
      "inputs": [
        {
          "internalType": "contract ERC721",
          "name": "",
          "type": "address"
        },
        {
          "internalType": "address",
          "name": "",
          "type": "address"
        },
        {
          "internalType": "uint256",
          "name": "",
          "type": "uint256"
        }
      ],
      "name": "nftStatus",
      "outputs": [
        {
          "internalType": "bool",
          "name": "",
          "type": "bool"
        }
      ],
      "stateMutability": "view",
      "type": "function"
    },
    {
      "inputs": [
        {
          "internalType": "uint256",
          "name": "",
          "type": "uint256"
        },
        {
          "internalType": "uint256",
          "name": "",
          "type": "uint256"
        }
      ],
      "name": "offerBook",
      "outputs": [
        {
          "internalType": "address payable",
          "name": "lender",
          "type": "address"
        },
        {
          "internalType": "uint256",
          "name": "offerTokenAmount",
          "type": "uint256"
        },
        {
          "internalType": "uint256",
          "name": "offerRate",
          "type": "uint256"
        },
        {
          "internalType": "uint256",
          "name": "offerAmountOfTime",
          "type": "uint256"
        },
        {
          "internalType": "uint256",
          "name": "offerPaymentTime",
          "type": "uint256"
        }
      ],
      "stateMutability": "view",
      "type": "function"
    },
    {
      "inputs": [
        {
          "internalType": "uint256",
          "name": "",
          "type": "uint256"
        }
      ],
      "name": "offerOrder",
      "outputs": [
        {
          "internalType": "uint256",
          "name": "",
          "type": "uint256"
        }
      ],
      "stateMutability": "view",
      "type": "function"
    },
    {
      "inputs": [],
      "name": "owner",
      "outputs": [
        {
          "internalType": "address",
          "name": "",
          "type": "address"
        }
      ],
      "stateMutability": "view",
      "type": "function"
    },
    {
      "inputs": [
        {
          "internalType": "uint256",
          "name": "",
          "type": "uint256"
        }
      ],
      "name": "receiptBook",
      "outputs": [
        {
          "internalType": "address",
          "name": "vendor",
          "type": "address"
        },
        {
          "internalType": "address",
          "name": "lender",
          "type": "address"
        },
        {
          "internalType": "contract ERC721",
          "name": "NFTAddress",
          "type": "address"
        },
        {
          "internalType": "uint256",
          "name": "tokenId",
          "type": "uint256"
        },
        {
          "internalType": "uint256",
          "name": "tokenAmount",
          "type": "uint256"
        },
        {
          "internalType": "uint256",
          "name": "tokenRate",
          "type": "uint256"
        },
        {
          "internalType": "uint256",
          "name": "amountOfTime",
          "type": "uint256"
        },
        {
          "internalType": "uint256",
          "name": "deadLine",
          "type": "uint256"
        },
        {
          "internalType": "uint256",
          "name": "paymentTime",
          "type": "uint256"
        },
        {
          "internalType": "uint256",
          "name": "paymentCount",
          "type": "uint256"
        }
      ],
      "stateMutability": "view",
      "type": "function"
    },
    {
      "inputs": [
        {
          "internalType": "contract ERC721",
          "name": "_NFTAddress",
          "type": "address"
        }
      ],
      "name": "registerNFT",
      "outputs": [],
      "stateMutability": "nonpayable",
      "type": "function"
    },
    {
      "inputs": [
        {
          "internalType": "address",
          "name": "",
          "type": "address"
        }
      ],
      "name": "registerNFTs",
      "outputs": [
        {
          "internalType": "bool",
          "name": "",
          "type": "bool"
        }
      ],
      "stateMutability": "view",
      "type": "function"
    },
    {
      "inputs": [],
      "name": "renounceOwnership",
      "outputs": [],
      "stateMutability": "nonpayable",
      "type": "function"
    },
    {
      "inputs": [
        {
          "internalType": "address",
          "name": "newOwner",
          "type": "address"
        }
      ],
      "name": "transferOwnership",
      "outputs": [],
      "stateMutability": "nonpayable",
      "type": "function"
    },
    {
      "inputs": [
        {
          "internalType": "contract ERC721",
          "name": "_NFTAddress",
          "type": "address"
        }
      ],
      "name": "unRegisterNFT",
      "outputs": [],
      "stateMutability": "nonpayable",
      "type": "function"
    },
    {
      "inputs": [
        {
          "internalType": "uint256",
          "name": "_requestNumber",
          "type": "uint256"
        },
        {
          "internalType": "uint256",
          "name": "_offerNumber",
          "type": "uint256"
        }
      ],
      "name": "vendorAcceptOffer",
      "outputs": [],
      "stateMutability": "nonpayable",
      "type": "function"
    },
    {
      "inputs": [
        {
          "internalType": "contract ERC721",
          "name": "NFTAddress",
          "type": "address"
        },
        {
          "internalType": "uint256",
          "name": "tokenId",
          "type": "uint256"
        }
      ],
      "name": "vendorMakeRequest",
      "outputs": [],
      "stateMutability": "nonpayable",
      "type": "function"
    },
    {
      "inputs": [
        {
          "internalType": "uint256",
          "name": "_requestNumber",
          "type": "uint256"
        }
      ],
      "name": "vendorPayRountine",
      "outputs": [],
      "stateMutability": "payable",
      "type": "function"
    },
    {
      "inputs": [
        {
          "internalType": "uint256",
          "name": "token",
          "type": "uint256"
        }
      ],
      "name": "withdrawEth",
      "outputs": [],
      "stateMutability": "payable",
      "type": "function"
    },
    {
      "inputs": [
        {
          "internalType": "uint256",
          "name": "_requestNumber",
          "type": "uint256"
        }
      ],
      "name": "withdrawNFT",
      "outputs": [],
      "stateMutability": "nonpayable",
      "type": "function"
    }
  ],
  "bytecode": "0x60806040523480156200001157600080fd5b5062000032620000266200003860201b60201c565b6200004060201b60201c565b62000104565b600033905090565b60008060009054906101000a900473ffffffffffffffffffffffffffffffffffffffff169050816000806101000a81548173ffffffffffffffffffffffffffffffffffffffff021916908373ffffffffffffffffffffffffffffffffffffffff1602179055508173ffffffffffffffffffffffffffffffffffffffff168173ffffffffffffffffffffffffffffffffffffffff167f8be0079c531659141344cd1fd0a4f28419497f9722a3daafe3b4186f6b6457e060405160405180910390a35050565b61392a80620001146000396000f3fe6080604052600436106101355760003560e01c80636aaf1f38116100ab578063a0925cbd1161006f578063a0925cbd1461040d578063c311d0491461044a578063cbb78c9a14610466578063f2fde38b1461048f578063fb3f28fe146104b8578063fdf586d7146104f957610135565b80636aaf1f3814610328578063715018a61461035157806376f59acf146103685780638da5cb5b146103a55780639e3b6c4c146103d057610135565b806335046722116100fd57806335046722146102155780633ca5da8d146102525780633ec4de351461028f578063439370b1146102cc5780635f6fc51b146102d6578063665912c3146102ff57610135565b8063023245d71461013a57806312a1dc1d146101635780631d727b23146101a05780631e90ca32146101bc57806321576392146101d8575b600080fd5b34801561014657600080fd5b50610161600480360381019061015c9190612612565b61053f565b005b34801561016f57600080fd5b5061018a60048036038101906101859190612612565b6107d1565b60405161019791906127ba565b60405180910390f35b6101ba60048036038101906101b59190612612565b610947565b005b6101d660048036038101906101d191906127d6565b610d18565b005b3480156101e457600080fd5b506101ff60048036038101906101fa91906128a7565b61101f565b60405161020c9190612915565b60405180910390f35b34801561022157600080fd5b5061023c60048036038101906102379190612930565b61105b565b604051610249919061296c565b60405180910390f35b34801561025e57600080fd5b5061027960048036038101906102749190612987565b6110a4565b6040516102869190612a50565b60405180910390f35b34801561029b57600080fd5b506102b660048036038101906102b19190612930565b611161565b6040516102c3919061296c565b60405180910390f35b6102d4611179565b005b3480156102e257600080fd5b506102fd60048036038101906102f89190612a6b565b6111d1565b005b34801561030b57600080fd5b5061032660048036038101906103219190612aab565b61165e565b005b34801561033457600080fd5b5061034f600480360381019061034a9190612aab565b61178b565b005b34801561035d57600080fd5b506103666118b8565b005b34801561037457600080fd5b5061038f600480360381019061038a9190612930565b6118cc565b60405161039c9190612915565b60405180910390f35b3480156103b157600080fd5b506103ba6118ec565b6040516103c79190612ae7565b60405180910390f35b3480156103dc57600080fd5b506103f760048036038101906103f29190612612565b611915565b604051610404919061296c565b60405180910390f35b34801561041957600080fd5b50610434600480360381019061042f9190612612565b61192d565b604051610441919061296c565b60405180910390f35b610464600480360381019061045f9190612612565b6119a0565b005b34801561047257600080fd5b5061048d60048036038101906104889190612987565b611b51565b005b34801561049b57600080fd5b506104b660048036038101906104b19190612930565b612097565b005b3480156104c457600080fd5b506104df60048036038101906104da9190612987565b61211a565b6040516104f0959493929190612b11565b60405180910390f35b34801561050557600080fd5b50610520600480360381019061051b9190612612565b61217d565b6040516105369a99989796959493929190612b73565b60405180910390f35b600061054a826107d1565b9050600081604001519050816000015173ffffffffffffffffffffffffffffffffffffffff163373ffffffffffffffffffffffffffffffffffffffff1614806105c25750816020015173ffffffffffffffffffffffffffffffffffffffff163373ffffffffffffffffffffffffffffffffffffffff16145b610601576040517f08c379a00000000000000000000000000000000000000000000000000000000081526004016105f890612c6c565b60405180910390fd5b816020015173ffffffffffffffffffffffffffffffffffffffff163373ffffffffffffffffffffffffffffffffffffffff16036106d35760008260c001518360e0015161064e9190612cbb565b905060008361010001518460c001516106679190612d1e565b905060008183426106789190612cbb565b6106829190612d1e565b905080856101200151106106cb576040517f08c379a00000000000000000000000000000000000000000000000000000000081526004016106c290612d9b565b60405180910390fd5b505050610720565b8161010001518261012001511461071f576040517f08c379a000000000000000000000000000000000000000000000000000000000815260040161071690612d9b565b60405180910390fd5b5b8073ffffffffffffffffffffffffffffffffffffffff166323b872dd303385606001516040518463ffffffff1660e01b815260040161076193929190612dbb565b600060405180830381600087803b15801561077b57600080fd5b505af115801561078f573d6000803e3d6000fd5b505050507fc11b01f2a3c991d770c6779a695f6264d7189edc3e57260ec9a7f70a4474529583336040516107c4929190612df2565b60405180910390a1505050565b6107d96124fd565b60036000838152602001908152602001600020604051806101400160405290816000820160009054906101000a900473ffffffffffffffffffffffffffffffffffffffff1673ffffffffffffffffffffffffffffffffffffffff1673ffffffffffffffffffffffffffffffffffffffff1681526020016001820160009054906101000a900473ffffffffffffffffffffffffffffffffffffffff1673ffffffffffffffffffffffffffffffffffffffff1673ffffffffffffffffffffffffffffffffffffffff1681526020016002820160009054906101000a900473ffffffffffffffffffffffffffffffffffffffff1673ffffffffffffffffffffffffffffffffffffffff1673ffffffffffffffffffffffffffffffffffffffff1681526020016003820154815260200160048201548152602001600582015481526020016006820154815260200160078201548152602001600882015481526020016009820154815250509050919050565b60006003600083815260200190815260200160002090506000816006015482600701546109749190612cbb565b905060008260080154836006015461098c9190612d1e565b9050600081834261099d9190612cbb565b6109a79190612d1e565b90506109b68460080154612231565b6109c38460090154612231565b8360090154846008015403610a0d576040517f08c379a0000000000000000000000000000000000000000000000000000000008152600401610a0490612e67565b60405180910390fd5b8084600901541015610a54576040517f08c379a0000000000000000000000000000000000000000000000000000000008152600401610a4b90612ed3565b60405180910390fd5b6000610a5f8661192d565b905080341015610aa4576040517f08c379a0000000000000000000000000000000000000000000000000000000008152600401610a9b90612f3f565b60405180910390fd5b8034610ab09190612cbb565b600660003373ffffffffffffffffffffffffffffffffffffffff1673ffffffffffffffffffffffffffffffffffffffff1681526020019081526020016000206000828254610afe9190612f5f565b92505081905550610b486040518060400160405280600b81526020017f746f6b656e416d6f756e7400000000000000000000000000000000000000000081525086600401546122ca565b610bc66040518060400160405280601b81526020017f206164647265737342616c616e63655b6d73672e73656e6465725d0000000000815250600660003373ffffffffffffffffffffffffffffffffffffffff1673ffffffffffffffffffffffffffffffffffffffff168152602001908152602001600020546122ca565b610c056040518060400160405280600d81526020017f746f6b656e4d7573745061696400000000000000000000000000000000000000815250826122ca565b60008560010160009054906101000a900473ffffffffffffffffffffffffffffffffffffffff1690508073ffffffffffffffffffffffffffffffffffffffff166108fc839081150290604051600060405180830381858888f19350505050158015610c74573d6000803e3d6000fd5b50856009016000815480929190610c8a90612f93565b9190505550610cd26040518060400160405280600f81526020017f72642e7061796d656e74436f756e74000000000000000000000000000000000081525087600901546122ca565b7fa5b38515d2d022b2ba1ab51c9d7e7a65562e00e923943d9f63bc0318392551cc878760090154604051610d07929190612fdb565b60405180910390a150505050505050565b6000600560008681526020019081526020016000205490506000600360008781526020019081526020016000209050600073ffffffffffffffffffffffffffffffffffffffff168160000160009054906101000a900473ffffffffffffffffffffffffffffffffffffffff1673ffffffffffffffffffffffffffffffffffffffff1603610dda576040517f08c379a0000000000000000000000000000000000000000000000000000000008152600401610dd190613050565b60405180910390fd5b6000816004015414610e21576040517f08c379a0000000000000000000000000000000000000000000000000000000008152600401610e18906130e2565b60405180910390fd5b62093a808385610e319190612d1e565b10158015610e41575062278d0084105b610e80576040517f08c379a0000000000000000000000000000000000000000000000000000000008152600401610e7790613174565b60405180910390fd5b6040518060a001604052803373ffffffffffffffffffffffffffffffffffffffff1681526020013481526020018681526020018581526020018481525060046000888152602001908152602001600020600084815260200190815260200160002060008201518160000160006101000a81548173ffffffffffffffffffffffffffffffffffffffff021916908373ffffffffffffffffffffffffffffffffffffffff160217905550602082015181600101556040820151816002015560608201518160030155608082015181600401559050506001600560008881526020019081526020016000206000828254610f779190612f5f565b9250508190555034600660003373ffffffffffffffffffffffffffffffffffffffff1673ffffffffffffffffffffffffffffffffffffffff1681526020019081526020016000206000828254610fcd9190612f5f565b925050819055507f50f6b5023be496691b3891b86afe1c2608733fb577cf0e100d9d697d968f30753387843489898960405161100f9796959493929190613194565b60405180910390a1505050505050565b6007602052826000526040600020602052816000526040600020602052806000526040600020600092509250509054906101000a900460ff1681565b6000600660008373ffffffffffffffffffffffffffffffffffffffff1673ffffffffffffffffffffffffffffffffffffffff168152602001908152602001600020549050919050565b6110ac612592565b6004600084815260200190815260200160002060008381526020019081526020016000206040518060a00160405290816000820160009054906101000a900473ffffffffffffffffffffffffffffffffffffffff1673ffffffffffffffffffffffffffffffffffffffff1673ffffffffffffffffffffffffffffffffffffffff168152602001600182015481526020016002820154815260200160038201548152602001600482015481525050905092915050565b60066020528060005260406000206000915090505481565b34600660003373ffffffffffffffffffffffffffffffffffffffff1673ffffffffffffffffffffffffffffffffffffffff16815260200190815260200160002060008282546111c89190612f5f565b92505081905550565b3373ffffffffffffffffffffffffffffffffffffffff168273ffffffffffffffffffffffffffffffffffffffff16636352211e836040518263ffffffff1660e01b8152600401611221919061296c565b602060405180830381865afa15801561123e573d6000803e3d6000fd5b505050506040513d601f19601f820116820180604052508101906112629190613218565b73ffffffffffffffffffffffffffffffffffffffff16146112b8576040517f08c379a00000000000000000000000000000000000000000000000000000000081526004016112af90613291565b60405180910390fd5b60001515600760008473ffffffffffffffffffffffffffffffffffffffff1673ffffffffffffffffffffffffffffffffffffffff16815260200190815260200160002060003373ffffffffffffffffffffffffffffffffffffffff1673ffffffffffffffffffffffffffffffffffffffff168152602001908152602001600020600083815260200190815260200160002060009054906101000a900460ff16151514611399576040517f08c379a0000000000000000000000000000000000000000000000000000000008152600401611390906132fd565b60405180910390fd5b6040518061014001604052803373ffffffffffffffffffffffffffffffffffffffff168152602001600073ffffffffffffffffffffffffffffffffffffffff1681526020018373ffffffffffffffffffffffffffffffffffffffff16815260200182815260200160008152602001600081526020016000815260200160008152602001600081526020016000815250600360006114366001612366565b815260200190815260200160002060008201518160000160006101000a81548173ffffffffffffffffffffffffffffffffffffffff021916908373ffffffffffffffffffffffffffffffffffffffff16021790555060208201518160010160006101000a81548173ffffffffffffffffffffffffffffffffffffffff021916908373ffffffffffffffffffffffffffffffffffffffff16021790555060408201518160020160006101000a81548173ffffffffffffffffffffffffffffffffffffffff021916908373ffffffffffffffffffffffffffffffffffffffff160217905550606082015181600301556080820151816004015560a0820151816005015560c0820151816006015560e08201518160070155610100820151816008015561012082015181600901559050506001600760008473ffffffffffffffffffffffffffffffffffffffff1673ffffffffffffffffffffffffffffffffffffffff16815260200190815260200160002060003373ffffffffffffffffffffffffffffffffffffffff1673ffffffffffffffffffffffffffffffffffffffff168152602001908152602001600020600083815260200190815260200160002060006101000a81548160ff0219169083151502179055507f9ab7201699b86631d498cffaafb83086e326cb6677b121cbf95e1417628681473383836116386001612366565b604051611648949392919061331d565b60405180910390a161165a6001612374565b5050565b61166661238a565b60011515600260008373ffffffffffffffffffffffffffffffffffffffff1673ffffffffffffffffffffffffffffffffffffffff16815260200190815260200160002060009054906101000a900460ff161515036116f9576040517f08c379a00000000000000000000000000000000000000000000000000000000081526004016116f0906133ae565b60405180910390fd5b6000600260008373ffffffffffffffffffffffffffffffffffffffff1673ffffffffffffffffffffffffffffffffffffffff16815260200190815260200160002060006101000a81548160ff0219169083151502179055507f47a68d495ca67fd0a225bf31f11c6546e283fd92264120d78a882a9a30357bb4816040516117809190612ae7565b60405180910390a150565b61179361238a565b60011515600260008373ffffffffffffffffffffffffffffffffffffffff1673ffffffffffffffffffffffffffffffffffffffff16815260200190815260200160002060009054906101000a900460ff16151503611826576040517f08c379a000000000000000000000000000000000000000000000000000000000815260040161181d9061341a565b60405180910390fd5b6001600260008373ffffffffffffffffffffffffffffffffffffffff1673ffffffffffffffffffffffffffffffffffffffff16815260200190815260200160002060006101000a81548160ff0219169083151502179055507f7fb5539ccc03b6d4621f2b708d17c807f41edb95f84db3fa93d785a4d9fe9889816040516118ad9190612ae7565b60405180910390a150565b6118c061238a565b6118ca6000612408565b565b60026020528060005260406000206000915054906101000a900460ff1681565b60008060009054906101000a900473ffffffffffffffffffffffffffffffffffffffff16905090565b60056020528060005260406000206000915090505481565b60008060036000848152602001908152602001600020905060008160080154606483600501548460040154611962919061343a565b61196c9190612d1e565b6119769190612d1e565b8260080154836004015461198a9190612d1e565b6119949190612f5f565b90508092505050919050565b6119e8600660003373ffffffffffffffffffffffffffffffffffffffff1673ffffffffffffffffffffffffffffffffffffffff16815260200190815260200160002054612231565b6000600660003373ffffffffffffffffffffffffffffffffffffffff1673ffffffffffffffffffffffffffffffffffffffff16815260200190815260200160002054905081811015611a6f576040517f08c379a0000000000000000000000000000000000000000000000000000000008152600401611a66906134c8565b60405180910390fd5b3373ffffffffffffffffffffffffffffffffffffffff166108fc839081150290604051600060405180830381858888f19350505050158015611ab5573d6000803e3d6000fd5b508181611ac29190612cbb565b600660003373ffffffffffffffffffffffffffffffffffffffff1673ffffffffffffffffffffffffffffffffffffffff16815260200190815260200160002081905550611b4d600660003373ffffffffffffffffffffffffffffffffffffffff1673ffffffffffffffffffffffffffffffffffffffff16815260200190815260200160002054612231565b5050565b813373ffffffffffffffffffffffffffffffffffffffff166003600083815260200190815260200160002060000160009054906101000a900473ffffffffffffffffffffffffffffffffffffffff1673ffffffffffffffffffffffffffffffffffffffff1614611bf6576040517f08c379a0000000000000000000000000000000000000000000000000000000008152600401611bed90613534565b60405180910390fd5b600060036000858152602001908152602001600020905060006004600086815260200190815260200160002060008581526020019081526020016000206040518060a00160405290816000820160009054906101000a900473ffffffffffffffffffffffffffffffffffffffff1673ffffffffffffffffffffffffffffffffffffffff1673ffffffffffffffffffffffffffffffffffffffff1681526020016001820154815260200160028201548152602001600382015481526020016004820154815250509050600073ffffffffffffffffffffffffffffffffffffffff16816000015173ffffffffffffffffffffffffffffffffffffffff1603611d31576040517f08c379a0000000000000000000000000000000000000000000000000000000008152600401611d28906135a0565b60405180910390fd5b806020015160066000836000015173ffffffffffffffffffffffffffffffffffffffff1673ffffffffffffffffffffffffffffffffffffffff168152602001908152602001600020541015611dbb576040517f08c379a0000000000000000000000000000000000000000000000000000000008152600401611db290613632565b60405180910390fd5b80600001518260010160006101000a81548173ffffffffffffffffffffffffffffffffffffffff021916908373ffffffffffffffffffffffffffffffffffffffff160217905550806020015182600401819055508060400151826005018190555080606001518260060181905550806060015142611e399190612f5f565b82600701819055508060800151826008018190555060008260020160009054906101000a900473ffffffffffffffffffffffffffffffffffffffff1690508073ffffffffffffffffffffffffffffffffffffffff166323b872dd8460000160009054906101000a900473ffffffffffffffffffffffffffffffffffffffff163086600301546040518463ffffffff1660e01b8152600401611edc93929190612dbb565b600060405180830381600087803b158015611ef657600080fd5b505af1158015611f0a573d6000803e3d6000fd5b5050505060003390508073ffffffffffffffffffffffffffffffffffffffff166108fc84602001519081150290604051600060405180830381858888f19350505050158015611f5d573d6000803e3d6000fd5b50826020015160066000856000015173ffffffffffffffffffffffffffffffffffffffff1673ffffffffffffffffffffffffffffffffffffffff1681526020019081526020016000206000828254611fb59190612cbb565b925050819055507f8b3aca815e0141d6aae3d4f5be627d808bb2dce40bc3abf1bae0e53e6820440487878660000160009054906101000a900473ffffffffffffffffffffffffffffffffffffffff168760010160009054906101000a900473ffffffffffffffffffffffffffffffffffffffff168860020160009054906101000a900473ffffffffffffffffffffffffffffffffffffffff1689600301548a600401548b600501548c600601548d600701548e6008015460006040516120869c9b9a9998979695949392919061368d565b60405180910390a150505050505050565b61209f61238a565b600073ffffffffffffffffffffffffffffffffffffffff168173ffffffffffffffffffffffffffffffffffffffff160361210e576040517f08c379a0000000000000000000000000000000000000000000000000000000008152600401612105906137b9565b60405180910390fd5b61211781612408565b50565b6004602052816000526040600020602052806000526040600020600091509150508060000160009054906101000a900473ffffffffffffffffffffffffffffffffffffffff16908060010154908060020154908060030154908060040154905085565b60036020528060005260406000206000915090508060000160009054906101000a900473ffffffffffffffffffffffffffffffffffffffff16908060010160009054906101000a900473ffffffffffffffffffffffffffffffffffffffff16908060020160009054906101000a900473ffffffffffffffffffffffffffffffffffffffff1690806003015490806004015490806005015490806006015490806007015490806008015490806009015490508a565b6122c781604051602401612245919061296c565b6040516020818303038152906040527ff82c50f1000000000000000000000000000000000000000000000000000000007bffffffffffffffffffffffffffffffffffffffffffffffffffffffff19166020820180517bffffffffffffffffffffffffffffffffffffffffffffffffffffffff83818316178352505050506124cc565b50565b61236282826040516024016122e0929190613858565b6040516020818303038152906040527fb60e72cc000000000000000000000000000000000000000000000000000000007bffffffffffffffffffffffffffffffffffffffffffffffffffffffff19166020820180517bffffffffffffffffffffffffffffffffffffffffffffffffffffffff83818316178352505050506124cc565b5050565b600081600001549050919050565b6001816000016000828254019250508190555050565b6123926124f5565b73ffffffffffffffffffffffffffffffffffffffff166123b06118ec565b73ffffffffffffffffffffffffffffffffffffffff1614612406576040517f08c379a00000000000000000000000000000000000000000000000000000000081526004016123fd906138d4565b60405180910390fd5b565b60008060009054906101000a900473ffffffffffffffffffffffffffffffffffffffff169050816000806101000a81548173ffffffffffffffffffffffffffffffffffffffff021916908373ffffffffffffffffffffffffffffffffffffffff1602179055508173ffffffffffffffffffffffffffffffffffffffff168173ffffffffffffffffffffffffffffffffffffffff167f8be0079c531659141344cd1fd0a4f28419497f9722a3daafe3b4186f6b6457e060405160405180910390a35050565b60008151905060006a636f6e736f6c652e6c6f679050602083016000808483855afa5050505050565b600033905090565b604051806101400160405280600073ffffffffffffffffffffffffffffffffffffffff168152602001600073ffffffffffffffffffffffffffffffffffffffff168152602001600073ffffffffffffffffffffffffffffffffffffffff168152602001600081526020016000815260200160008152602001600081526020016000815260200160008152602001600081525090565b6040518060a00160405280600073ffffffffffffffffffffffffffffffffffffffff168152602001600081526020016000815260200160008152602001600081525090565b600080fd5b6000819050919050565b6125ef816125dc565b81146125fa57600080fd5b50565b60008135905061260c816125e6565b92915050565b600060208284031215612628576126276125d7565b5b6000612636848285016125fd565b91505092915050565b600073ffffffffffffffffffffffffffffffffffffffff82169050919050565b600061266a8261263f565b9050919050565b61267a8161265f565b82525050565b6000819050919050565b60006126a56126a061269b8461263f565b612680565b61263f565b9050919050565b60006126b78261268a565b9050919050565b60006126c9826126ac565b9050919050565b6126d9816126be565b82525050565b6126e8816125dc565b82525050565b610140820160008201516127056000850182612671565b5060208201516127186020850182612671565b50604082015161272b60408501826126d0565b50606082015161273e60608501826126df565b50608082015161275160808501826126df565b5060a082015161276460a08501826126df565b5060c082015161277760c08501826126df565b5060e082015161278a60e08501826126df565b5061010082015161279f6101008501826126df565b506101208201516127b46101208501826126df565b50505050565b6000610140820190506127d060008301846126ee565b92915050565b600080600080608085870312156127f0576127ef6125d7565b5b60006127fe878288016125fd565b945050602061280f878288016125fd565b9350506040612820878288016125fd565b9250506060612831878288016125fd565b91505092959194509250565b60006128488261265f565b9050919050565b6128588161283d565b811461286357600080fd5b50565b6000813590506128758161284f565b92915050565b6128848161265f565b811461288f57600080fd5b50565b6000813590506128a18161287b565b92915050565b6000806000606084860312156128c0576128bf6125d7565b5b60006128ce86828701612866565b93505060206128df86828701612892565b92505060406128f0868287016125fd565b9150509250925092565b60008115159050919050565b61290f816128fa565b82525050565b600060208201905061292a6000830184612906565b92915050565b600060208284031215612946576129456125d7565b5b600061295484828501612892565b91505092915050565b612966816125dc565b82525050565b6000602082019050612981600083018461295d565b92915050565b6000806040838503121561299e5761299d6125d7565b5b60006129ac858286016125fd565b92505060206129bd858286016125fd565b9150509250929050565b60006129d28261263f565b9050919050565b6129e2816129c7565b82525050565b60a0820160008201516129fe60008501826129d9565b506020820151612a1160208501826126df565b506040820151612a2460408501826126df565b506060820151612a3760608501826126df565b506080820151612a4a60808501826126df565b50505050565b600060a082019050612a6560008301846129e8565b92915050565b60008060408385031215612a8257612a816125d7565b5b6000612a9085828601612866565b9250506020612aa1858286016125fd565b9150509250929050565b600060208284031215612ac157612ac06125d7565b5b6000612acf84828501612866565b91505092915050565b612ae18161265f565b82525050565b6000602082019050612afc6000830184612ad8565b92915050565b612b0b816129c7565b82525050565b600060a082019050612b266000830188612b02565b612b33602083018761295d565b612b40604083018661295d565b612b4d606083018561295d565b612b5a608083018461295d565b9695505050505050565b612b6d816126be565b82525050565b600061014082019050612b89600083018d612ad8565b612b96602083018c612ad8565b612ba3604083018b612b64565b612bb0606083018a61295d565b612bbd608083018961295d565b612bca60a083018861295d565b612bd760c083018761295d565b612be460e083018661295d565b612bf261010083018561295d565b612c0061012083018461295d565b9b9a5050505050505050505050565b600082825260208201905092915050565b7f4c656e64696e673a206e6f742061626c6520746f206163636573730000000000600082015250565b6000612c56601b83612c0f565b9150612c6182612c20565b602082019050919050565b60006020820190508181036000830152612c8581612c49565b9050919050565b7f4e487b7100000000000000000000000000000000000000000000000000000000600052601160045260246000fd5b6000612cc6826125dc565b9150612cd1836125dc565b9250828203905081811115612ce957612ce8612c8c565b5b92915050565b7f4e487b7100000000000000000000000000000000000000000000000000000000600052601260045260246000fd5b6000612d29826125dc565b9150612d34836125dc565b925082612d4457612d43612cef565b5b828204905092915050565b7f4c656e64696e673a2052657175657374206f6e2074696d650000000000000000600082015250565b6000612d85601883612c0f565b9150612d9082612d4f565b602082019050919050565b60006020820190508181036000830152612db481612d78565b9050919050565b6000606082019050612dd06000830186612ad8565b612ddd6020830185612ad8565b612dea604083018461295d565b949350505050565b6000604082019050612e07600083018561295d565b612e146020830184612ad8565b9392505050565b7f4c656e64696e673a205061696420646f6e650000000000000000000000000000600082015250565b6000612e51601283612c0f565b9150612e5c82612e1b565b602082019050919050565b60006020820190508181036000830152612e8081612e44565b9050919050565b7f4c656e64696e673a20526571756573742074696d65206f757400000000000000600082015250565b6000612ebd601983612c0f565b9150612ec882612e87565b602082019050919050565b60006020820190508181036000830152612eec81612eb0565b9050919050565b7f4c656e64696e673a204e6f7420656e6f75676820657468000000000000000000600082015250565b6000612f29601783612c0f565b9150612f3482612ef3565b602082019050919050565b60006020820190508181036000830152612f5881612f1c565b9050919050565b6000612f6a826125dc565b9150612f75836125dc565b9250828201905080821115612f8d57612f8c612c8c565b5b92915050565b6000612f9e826125dc565b91507fffffffffffffffffffffffffffffffffffffffffffffffffffffffffffffffff8203612fd057612fcf612c8c565b5b600182019050919050565b6000604082019050612ff0600083018561295d565b612ffd602083018461295d565b9392505050565b7f4c656e64696e673a2072656365697074206d7573742065786973740000000000600082015250565b600061303a601b83612c0f565b915061304582613004565b602082019050919050565b600060208201905081810360008301526130698161302d565b9050919050565b7f4c656e64696e673a2072656365697074206d757374207374696c6c206176616960008201527f6c61626c65000000000000000000000000000000000000000000000000000000602082015250565b60006130cc602583612c0f565b91506130d782613070565b604082019050919050565b600060208201905081810360008301526130fb816130bf565b9050919050565b7f4c656e64696e673a206f666665722074696d6520616e64207061796d656e742060008201527f74696d6520617265206e6f742076616c69640000000000000000000000000000602082015250565b600061315e603283612c0f565b915061316982613102565b604082019050919050565b6000602082019050818103600083015261318d81613151565b9050919050565b600060e0820190506131a9600083018a612b02565b6131b6602083018961295d565b6131c3604083018861295d565b6131d0606083018761295d565b6131dd608083018661295d565b6131ea60a083018561295d565b6131f760c083018461295d565b98975050505050505050565b6000815190506132128161287b565b92915050565b60006020828403121561322e5761322d6125d7565b5b600061323c84828501613203565b91505092915050565b7f4c656e64696e673a2073656e646572206d7573742068617665204e4654000000600082015250565b600061327b601d83612c0f565b915061328682613245565b602082019050919050565b600060208201905081810360008301526132aa8161326e565b9050919050565b7f4c656e64696e673a206e667420616c726561647920696e206d61726b65740000600082015250565b60006132e7601e83612c0f565b91506132f2826132b1565b602082019050919050565b60006020820190508181036000830152613316816132da565b9050919050565b60006080820190506133326000830187612ad8565b61333f6020830186612b64565b61334c604083018561295d565b613359606083018461295d565b95945050505050565b7f416c726561647920756e2d7265676973746f7200000000000000000000000000600082015250565b6000613398601383612c0f565b91506133a382613362565b602082019050919050565b600060208201905081810360008301526133c78161338b565b9050919050565b7f416c7265616479207265676973746f7200000000000000000000000000000000600082015250565b6000613404601083612c0f565b915061340f826133ce565b602082019050919050565b60006020820190508181036000830152613433816133f7565b9050919050565b6000613445826125dc565b9150613450836125dc565b925082820261345e816125dc565b9150828204841483151761347557613474612c8c565b5b5092915050565b7f496e76616c69642065746820616d6f756e740000000000000000000000000000600082015250565b60006134b2601283612c0f565b91506134bd8261347c565b602082019050919050565b600060208201905081810360008301526134e1816134a5565b9050919050565b7f4c656e64696e673a204d7573742062652056656e646f72000000000000000000600082015250565b600061351e601783612c0f565b9150613529826134e8565b602082019050919050565b6000602082019050818103600083015261354d81613511565b9050919050565b7f4c656e64696e673a206f66666572206d75737420657869737400000000000000600082015250565b600061358a601983612c0f565b915061359582613554565b602082019050919050565b600060208201905081810360008301526135b98161357d565b9050919050565b7f4c656e64696e673a204c656e6465722062616c616e636520646f6573206e6f7460008201527f20737570706f7274000000000000000000000000000000000000000000000000602082015250565b600061361c602883612c0f565b9150613627826135c0565b604082019050919050565b6000602082019050818103600083015261364b8161360f565b9050919050565b6000819050919050565b600061367761367261366d84613652565b612680565b6125dc565b9050919050565b6136878161365c565b82525050565b6000610180820190506136a3600083018f61295d565b6136b0602083018e61295d565b6136bd604083018d612ad8565b6136ca606083018c612ad8565b6136d7608083018b612b64565b6136e460a083018a61295d565b6136f160c083018961295d565b6136fe60e083018861295d565b61370c61010083018761295d565b61371a61012083018661295d565b61372861014083018561295d565b61373661016083018461367e565b9d9c50505050505050505050505050565b7f4f776e61626c653a206e6577206f776e657220697320746865207a65726f206160008201527f6464726573730000000000000000000000000000000000000000000000000000602082015250565b60006137a3602683612c0f565b91506137ae82613747565b604082019050919050565b600060208201905081810360008301526137d281613796565b9050919050565b600081519050919050565b60005b838110156138025780820151818401526020810190506137e7565b60008484015250505050565b6000601f19601f8301169050919050565b600061382a826137d9565b6138348185612c0f565b93506138448185602086016137e4565b61384d8161380e565b840191505092915050565b60006040820190508181036000830152613872818561381f565b9050613881602083018461295d565b9392505050565b7f4f776e61626c653a2063616c6c6572206973206e6f7420746865206f776e6572600082015250565b60006138be602083612c0f565b91506138c982613888565b602082019050919050565b600060208201905081810360008301526138ed816138b1565b905091905056fea2646970667358221220ffde821206987e4d76b3ac0fbe24b47efba816ba67558421a5370fdcc82e291864736f6c63430008110033",
  "linkReferences": {},
  "deployedLinkReferences": {}
}