{
  "_format": "hh-sol-artifact-1",
  "contractName": "LendingFactory",
  "sourceName": "contracts/LendingFactory.sol",
  "abi": [
    {
      "inputs": [],
      "stateMutability": "nonpayable",
      "type": "constructor"
    },
    {
      "anonymous": false,
      "inputs": [
        {
          "indexed": false,
          "internalType": "address payable",
          "name": "lender",
          "type": "address"
        },
        {
          "indexed": false,
          "internalType": "uint256",
          "name": "requestNumber",
          "type": "uint256"
        },
        {
          "indexed": false,
          "internalType": "uint256",
          "name": "offerNumber",
          "type": "uint256"
        },
        {
          "indexed": false,
          "internalType": "uint256",
          "name": "offerTokenAmount",
          "type": "uint256"
        },
        {
          "indexed": false,
          "internalType": "uint256",
          "name": "offerRate",
          "type": "uint256"
        },
        {
          "indexed": false,
          "internalType": "uint256",
          "name": "offerAmountOfTime",
          "type": "uint256"
        },
        {
          "indexed": false,
          "internalType": "uint256",
          "name": "offerPaymenTime",
          "type": "uint256"
        }
      ],
      "name": "LenderMakeOffer",
      "type": "event"
    },
    {
      "anonymous": false,
      "inputs": [
        {
          "indexed": true,
          "internalType": "address",
          "name": "previousOwner",
          "type": "address"
        },
        {
          "indexed": true,
          "internalType": "address",
          "name": "newOwner",
          "type": "address"
        }
      ],
      "name": "OwnershipTransferred",
      "type": "event"
    },
    {
      "anonymous": false,
      "inputs": [
        {
          "indexed": false,
          "internalType": "address",
          "name": "NFTAddress",
          "type": "address"
        }
      ],
      "name": "RegisterNFT",
      "type": "event"
    },
    {
      "anonymous": false,
      "inputs": [
        {
          "indexed": false,
          "internalType": "address",
          "name": "NFTAddress",
          "type": "address"
        }
      ],
      "name": "UnRegisterNFT",
      "type": "event"
    },
    {
      "anonymous": false,
      "inputs": [
        {
          "indexed": false,
          "internalType": "uint256",
          "name": "requestNumber",
          "type": "uint256"
        },
        {
          "indexed": false,
          "internalType": "uint256",
          "name": "offerNumber",
          "type": "uint256"
        },
        {
          "indexed": false,
          "internalType": "address",
          "name": "vendor",
          "type": "address"
        },
        {
          "indexed": false,
          "internalType": "address",
          "name": "lender",
          "type": "address"
        },
        {
          "indexed": false,
          "internalType": "contract ERC721",
          "name": "NFTAddress",
          "type": "address"
        },
        {
          "indexed": false,
          "internalType": "uint256",
          "name": "tokenId",
          "type": "uint256"
        },
        {
          "indexed": false,
          "internalType": "uint256",
          "name": "tokenAmount",
          "type": "uint256"
        },
        {
          "indexed": false,
          "internalType": "uint256",
          "name": "tokenRate",
          "type": "uint256"
        },
        {
          "indexed": false,
          "internalType": "uint256",
          "name": "amountOfTime",
          "type": "uint256"
        },
        {
          "indexed": false,
          "internalType": "uint256",
          "name": "deadLine",
          "type": "uint256"
        },
        {
          "indexed": false,
          "internalType": "uint256",
          "name": "paymentTime",
          "type": "uint256"
        },
        {
          "indexed": false,
          "internalType": "uint256",
          "name": "paymentCount",
          "type": "uint256"
        }
      ],
      "name": "VendorAcceptOffer",
      "type": "event"
    },
    {
      "anonymous": false,
      "inputs": [
        {
          "indexed": false,
          "internalType": "address",
          "name": "vendor",
          "type": "address"
        },
        {
          "indexed": false,
          "internalType": "contract ERC721",
          "name": "NFTAddress",
          "type": "address"
        },
        {
          "indexed": false,
          "internalType": "uint256",
          "name": "tokenId",
          "type": "uint256"
        },
        {
          "indexed": false,
          "internalType": "uint256",
          "name": "requestNumber",
          "type": "uint256"
        }
      ],
      "name": "VendorMakeRequest",
      "type": "event"
    },
    {
      "anonymous": false,
      "inputs": [
        {
          "indexed": false,
          "internalType": "uint256",
          "name": "requestNumber",
          "type": "uint256"
        },
        {
          "indexed": false,
          "internalType": "uint256",
          "name": "paidCounter",
          "type": "uint256"
        }
      ],
      "name": "VendorPayRountine",
      "type": "event"
    },
    {
      "anonymous": false,
      "inputs": [
        {
          "indexed": false,
          "internalType": "uint256",
          "name": "requestNumber",
          "type": "uint256"
        }
      ],
      "name": "VendorReddem",
      "type": "event"
    },
    {
      "anonymous": false,
      "inputs": [
        {
          "indexed": false,
          "internalType": "uint256",
          "name": "requestNumber",
          "type": "uint256"
        },
        {
          "indexed": false,
          "internalType": "address",
          "name": "_reciever",
          "type": "address"
        }
      ],
      "name": "WithDrawNFT",
      "type": "event"
    },
    {
      "inputs": [
        {
          "internalType": "address",
          "name": "",
          "type": "address"
        }
      ],
      "name": "addressBalance",
      "outputs": [
        {
          "internalType": "uint256",
          "name": "",
          "type": "uint256"
        }
      ],
      "stateMutability": "view",
      "type": "function"
    },
    {
      "inputs": [
        {
          "internalType": "address",
          "name": "checker",
          "type": "address"
        }
      ],
      "name": "getAddressBalance",
      "outputs": [
        {
          "internalType": "uint256",
          "name": "",
          "type": "uint256"
        }
      ],
      "stateMutability": "view",
      "type": "function"
    },
    {
      "inputs": [
        {
          "internalType": "uint256",
          "name": "_requestNumber",
          "type": "uint256"
        },
        {
          "internalType": "uint256",
          "name": "_offerNumber",
          "type": "uint256"
        }
      ],
      "name": "getOfferBook",
      "outputs": [
        {
          "components": [
            {
              "internalType": "address payable",
              "name": "lender",
              "type": "address"
            },
            {
              "internalType": "uint256",
              "name": "offerTokenAmount",
              "type": "uint256"
            },
            {
              "internalType": "uint256",
              "name": "offerRate",
              "type": "uint256"
            },
            {
              "internalType": "uint256",
              "name": "offerAmountOfTime",
              "type": "uint256"
            },
            {
              "internalType": "uint256",
              "name": "offerPaymentTime",
              "type": "uint256"
            }
          ],
          "internalType": "struct Offer.OfferDetail",
          "name": "",
          "type": "tuple"
        }
      ],
      "stateMutability": "view",
      "type": "function"
    },
    {
      "inputs": [
        {
          "internalType": "uint256",
          "name": "_requestNumber",
          "type": "uint256"
        }
      ],
      "name": "getReceiptBook",
      "outputs": [
        {
          "components": [
            {
              "internalType": "address",
              "name": "vendor",
              "type": "address"
            },
            {
              "internalType": "address",
              "name": "lender",
              "type": "address"
            },
            {
              "internalType": "contract ERC721",
              "name": "NFTAddress",
              "type": "address"
            },
            {
              "internalType": "uint256",
              "name": "tokenId",
              "type": "uint256"
            },
            {
              "internalType": "uint256",
              "name": "tokenAmount",
              "type": "uint256"
            },
            {
              "internalType": "uint256",
              "name": "tokenRate",
              "type": "uint256"
            },
            {
              "internalType": "uint256",
              "name": "amountOfTime",
              "type": "uint256"
            },
            {
              "internalType": "uint256",
              "name": "deadLine",
              "type": "uint256"
            },
            {
              "internalType": "uint256",
              "name": "paymentTime",
              "type": "uint256"
            },
            {
              "internalType": "uint256",
              "name": "paymentCount",
              "type": "uint256"
            }
          ],
          "internalType": "struct Receipt.ReceiptDetail",
          "name": "",
          "type": "tuple"
        }
      ],
      "stateMutability": "view",
      "type": "function"
    },
    {
      "inputs": [
        {
          "internalType": "uint256",
          "name": "_requestNumber",
          "type": "uint256"
        }
      ],
      "name": "getTokenMustPaidPerTime",
      "outputs": [
        {
          "internalType": "uint256",
          "name": "",
          "type": "uint256"
        }
      ],
      "stateMutability": "view",
      "type": "function"
    },
    {
      "inputs": [
        {
          "internalType": "uint256",
          "name": "_requestNumber",
          "type": "uint256"
        },
        {
          "internalType": "uint256",
          "name": "_offerRate",
          "type": "uint256"
        },
        {
          "internalType": "uint256",
          "name": "_amountOfTime",
          "type": "uint256"
        },
        {
          "internalType": "uint256",
          "name": "_paymentTime",
          "type": "uint256"
        }
      ],
      "name": "lenderMakeOffer",
      "outputs": [],
      "stateMutability": "payable",
      "type": "function"
    },
    {
      "inputs": [
        {
          "internalType": "contract ERC721",
          "name": "",
          "type": "address"
        },
        {
          "internalType": "address",
          "name": "",
          "type": "address"
        },
        {
          "internalType": "uint256",
          "name": "",
          "type": "uint256"
        }
      ],
      "name": "nftStatus",
      "outputs": [
        {
          "internalType": "bool",
          "name": "",
          "type": "bool"
        }
      ],
      "stateMutability": "view",
      "type": "function"
    },
    {
      "inputs": [
        {
          "internalType": "uint256",
          "name": "",
          "type": "uint256"
        },
        {
          "internalType": "uint256",
          "name": "",
          "type": "uint256"
        }
      ],
      "name": "offerBook",
      "outputs": [
        {
          "internalType": "address payable",
          "name": "lender",
          "type": "address"
        },
        {
          "internalType": "uint256",
          "name": "offerTokenAmount",
          "type": "uint256"
        },
        {
          "internalType": "uint256",
          "name": "offerRate",
          "type": "uint256"
        },
        {
          "internalType": "uint256",
          "name": "offerAmountOfTime",
          "type": "uint256"
        },
        {
          "internalType": "uint256",
          "name": "offerPaymentTime",
          "type": "uint256"
        }
      ],
      "stateMutability": "view",
      "type": "function"
    },
    {
      "inputs": [
        {
          "internalType": "uint256",
          "name": "",
          "type": "uint256"
        }
      ],
      "name": "offerOrder",
      "outputs": [
        {
          "internalType": "uint256",
          "name": "",
          "type": "uint256"
        }
      ],
      "stateMutability": "view",
      "type": "function"
    },
    {
      "inputs": [],
      "name": "owner",
      "outputs": [
        {
          "internalType": "address",
          "name": "",
          "type": "address"
        }
      ],
      "stateMutability": "view",
      "type": "function"
    },
    {
      "inputs": [
        {
          "internalType": "uint256",
          "name": "",
          "type": "uint256"
        }
      ],
      "name": "receiptBook",
      "outputs": [
        {
          "internalType": "address",
          "name": "vendor",
          "type": "address"
        },
        {
          "internalType": "address",
          "name": "lender",
          "type": "address"
        },
        {
          "internalType": "contract ERC721",
          "name": "NFTAddress",
          "type": "address"
        },
        {
          "internalType": "uint256",
          "name": "tokenId",
          "type": "uint256"
        },
        {
          "internalType": "uint256",
          "name": "tokenAmount",
          "type": "uint256"
        },
        {
          "internalType": "uint256",
          "name": "tokenRate",
          "type": "uint256"
        },
        {
          "internalType": "uint256",
          "name": "amountOfTime",
          "type": "uint256"
        },
        {
          "internalType": "uint256",
          "name": "deadLine",
          "type": "uint256"
        },
        {
          "internalType": "uint256",
          "name": "paymentTime",
          "type": "uint256"
        },
        {
          "internalType": "uint256",
          "name": "paymentCount",
          "type": "uint256"
        }
      ],
      "stateMutability": "view",
      "type": "function"
    },
    {
      "inputs": [
        {
          "internalType": "contract ERC721",
          "name": "_NFTAddress",
          "type": "address"
        }
      ],
      "name": "registerNFT",
      "outputs": [],
      "stateMutability": "nonpayable",
      "type": "function"
    },
    {
      "inputs": [
        {
          "internalType": "address",
          "name": "",
          "type": "address"
        }
      ],
      "name": "registerNFTs",
      "outputs": [
        {
          "internalType": "bool",
          "name": "",
          "type": "bool"
        }
      ],
      "stateMutability": "view",
      "type": "function"
    },
    {
      "inputs": [],
      "name": "renounceOwnership",
      "outputs": [],
      "stateMutability": "nonpayable",
      "type": "function"
    },
    {
      "inputs": [
        {
          "internalType": "address",
          "name": "newOwner",
          "type": "address"
        }
      ],
      "name": "transferOwnership",
      "outputs": [],
      "stateMutability": "nonpayable",
      "type": "function"
    },
    {
      "inputs": [
        {
          "internalType": "contract ERC721",
          "name": "_NFTAddress",
          "type": "address"
        }
      ],
      "name": "unRegisterNFT",
      "outputs": [],
      "stateMutability": "nonpayable",
      "type": "function"
    },
    {
      "inputs": [
        {
          "internalType": "uint256",
          "name": "_requestNumber",
          "type": "uint256"
        },
        {
          "internalType": "uint256",
          "name": "_offerNumber",
          "type": "uint256"
        }
      ],
      "name": "vendorAcceptOffer",
      "outputs": [],
      "stateMutability": "nonpayable",
      "type": "function"
    },
    {
      "inputs": [
        {
          "internalType": "contract ERC721",
          "name": "NFTAddress",
          "type": "address"
        },
        {
          "internalType": "uint256",
          "name": "tokenId",
          "type": "uint256"
        }
      ],
      "name": "vendorMakeRequest",
      "outputs": [],
      "stateMutability": "nonpayable",
      "type": "function"
    },
    {
      "inputs": [
        {
          "internalType": "uint256",
          "name": "_requestNumber",
          "type": "uint256"
        }
      ],
      "name": "vendorPayRountine",
      "outputs": [],
      "stateMutability": "payable",
      "type": "function"
    },
    {
      "inputs": [
        {
          "internalType": "uint256",
          "name": "token",
          "type": "uint256"
        }
      ],
      "name": "withdrawEth",
      "outputs": [],
      "stateMutability": "payable",
      "type": "function"
    },
    {
      "inputs": [
        {
          "internalType": "uint256",
          "name": "_requestNumber",
          "type": "uint256"
        }
      ],
      "name": "withdrawNFT",
      "outputs": [],
      "stateMutability": "nonpayable",
      "type": "function"
    }
  ],
  "bytecode": "0x60806040523480156200001157600080fd5b5062000032620000266200003860201b60201c565b6200004060201b60201c565b62000104565b600033905090565b60008060009054906101000a900473ffffffffffffffffffffffffffffffffffffffff169050816000806101000a81548173ffffffffffffffffffffffffffffffffffffffff021916908373ffffffffffffffffffffffffffffffffffffffff1602179055508173ffffffffffffffffffffffffffffffffffffffff168173ffffffffffffffffffffffffffffffffffffffff167f8be0079c531659141344cd1fd0a4f28419497f9722a3daafe3b4186f6b6457e060405160405180910390a35050565b61378480620001146000396000f3fe60806040526004361061012a5760003560e01c80636aaf1f38116100ab578063a0925cbd1161006f578063a0925cbd146103f8578063c311d04914610435578063cbb78c9a14610451578063f2fde38b1461047a578063fb3f28fe146104a3578063fdf586d7146104e45761012a565b80636aaf1f3814610313578063715018a61461033c57806376f59acf146103535780638da5cb5b146103905780639e3b6c4c146103bb5761012a565b806335046722116100f2578063350467221461020a5780633ca5da8d146102475780633ec4de35146102845780635f6fc51b146102c1578063665912c3146102ea5761012a565b8063023245d71461012f57806312a1dc1d146101585780631d727b23146101955780631e90ca32146101b157806321576392146101cd575b600080fd5b34801561013b57600080fd5b50610156600480360381019061015191906124d8565b61052a565b005b34801561016457600080fd5b5061017f600480360381019061017a91906124d8565b6107bc565b60405161018c9190612680565b60405180910390f35b6101af60048036038101906101aa91906124d8565b610932565b005b6101cb60048036038101906101c6919061269c565b610d03565b005b3480156101d957600080fd5b506101f460048036038101906101ef919061276d565b61100a565b60405161020191906127db565b60405180910390f35b34801561021657600080fd5b50610231600480360381019061022c91906127f6565b611046565b60405161023e9190612832565b60405180910390f35b34801561025357600080fd5b5061026e6004803603810190610269919061284d565b61108f565b60405161027b9190612916565b60405180910390f35b34801561029057600080fd5b506102ab60048036038101906102a691906127f6565b61114c565b6040516102b89190612832565b60405180910390f35b3480156102cd57600080fd5b506102e860048036038101906102e39190612931565b611164565b005b3480156102f657600080fd5b50610311600480360381019061030c9190612971565b6115f1565b005b34801561031f57600080fd5b5061033a60048036038101906103359190612971565b61171e565b005b34801561034857600080fd5b5061035161184b565b005b34801561035f57600080fd5b5061037a600480360381019061037591906127f6565b61185f565b60405161038791906127db565b60405180910390f35b34801561039c57600080fd5b506103a561187f565b6040516103b291906129ad565b60405180910390f35b3480156103c757600080fd5b506103e260048036038101906103dd91906124d8565b6118a8565b6040516103ef9190612832565b60405180910390f35b34801561040457600080fd5b5061041f600480360381019061041a91906124d8565b6118c0565b60405161042c9190612832565b60405180910390f35b61044f600480360381019061044a91906124d8565b611933565b005b34801561045d57600080fd5b506104786004803603810190610473919061284d565b611a17565b005b34801561048657600080fd5b506104a1600480360381019061049c91906127f6565b611f5d565b005b3480156104af57600080fd5b506104ca60048036038101906104c5919061284d565b611fe0565b6040516104db9594939291906129d7565b60405180910390f35b3480156104f057600080fd5b5061050b600480360381019061050691906124d8565b612043565b6040516105219a99989796959493929190612a39565b60405180910390f35b6000610535826107bc565b9050600081604001519050816000015173ffffffffffffffffffffffffffffffffffffffff163373ffffffffffffffffffffffffffffffffffffffff1614806105ad5750816020015173ffffffffffffffffffffffffffffffffffffffff163373ffffffffffffffffffffffffffffffffffffffff16145b6105ec576040517f08c379a00000000000000000000000000000000000000000000000000000000081526004016105e390612b32565b60405180910390fd5b816020015173ffffffffffffffffffffffffffffffffffffffff163373ffffffffffffffffffffffffffffffffffffffff16036106be5760008260c001518360e001516106399190612b81565b905060008361010001518460c001516106529190612be4565b905060008183426106639190612b81565b61066d9190612be4565b905080856101200151106106b6576040517f08c379a00000000000000000000000000000000000000000000000000000000081526004016106ad90612c61565b60405180910390fd5b50505061070b565b8161010001518261012001511461070a576040517f08c379a000000000000000000000000000000000000000000000000000000000815260040161070190612c61565b60405180910390fd5b5b8073ffffffffffffffffffffffffffffffffffffffff166323b872dd303385606001516040518463ffffffff1660e01b815260040161074c93929190612c81565b600060405180830381600087803b15801561076657600080fd5b505af115801561077a573d6000803e3d6000fd5b505050507fc11b01f2a3c991d770c6779a695f6264d7189edc3e57260ec9a7f70a4474529583336040516107af929190612cb8565b60405180910390a1505050565b6107c46123c3565b60036000838152602001908152602001600020604051806101400160405290816000820160009054906101000a900473ffffffffffffffffffffffffffffffffffffffff1673ffffffffffffffffffffffffffffffffffffffff1673ffffffffffffffffffffffffffffffffffffffff1681526020016001820160009054906101000a900473ffffffffffffffffffffffffffffffffffffffff1673ffffffffffffffffffffffffffffffffffffffff1673ffffffffffffffffffffffffffffffffffffffff1681526020016002820160009054906101000a900473ffffffffffffffffffffffffffffffffffffffff1673ffffffffffffffffffffffffffffffffffffffff1673ffffffffffffffffffffffffffffffffffffffff1681526020016003820154815260200160048201548152602001600582015481526020016006820154815260200160078201548152602001600882015481526020016009820154815250509050919050565b600060036000838152602001908152602001600020905060008160060154826007015461095f9190612b81565b90506000826008015483600601546109779190612be4565b905060008183426109889190612b81565b6109929190612be4565b90506109a184600801546120f7565b6109ae84600901546120f7565b83600901548460080154036109f8576040517f08c379a00000000000000000000000000000000000000000000000000000000081526004016109ef90612d2d565b60405180910390fd5b8084600901541015610a3f576040517f08c379a0000000000000000000000000000000000000000000000000000000008152600401610a3690612d99565b60405180910390fd5b6000610a4a866118c0565b905080341015610a8f576040517f08c379a0000000000000000000000000000000000000000000000000000000008152600401610a8690612e05565b60405180910390fd5b8034610a9b9190612b81565b600660003373ffffffffffffffffffffffffffffffffffffffff1673ffffffffffffffffffffffffffffffffffffffff1681526020019081526020016000206000828254610ae99190612e25565b92505081905550610b336040518060400160405280600b81526020017f746f6b656e416d6f756e740000000000000000000000000000000000000000008152508660040154612190565b610bb16040518060400160405280601b81526020017f206164647265737342616c616e63655b6d73672e73656e6465725d0000000000815250600660003373ffffffffffffffffffffffffffffffffffffffff1673ffffffffffffffffffffffffffffffffffffffff16815260200190815260200160002054612190565b610bf06040518060400160405280600d81526020017f746f6b656e4d757374506169640000000000000000000000000000000000000081525082612190565b60008560010160009054906101000a900473ffffffffffffffffffffffffffffffffffffffff1690508073ffffffffffffffffffffffffffffffffffffffff166108fc839081150290604051600060405180830381858888f19350505050158015610c5f573d6000803e3d6000fd5b50856009016000815480929190610c7590612e59565b9190505550610cbd6040518060400160405280600f81526020017f72642e7061796d656e74436f756e7400000000000000000000000000000000008152508760090154612190565b7fa5b38515d2d022b2ba1ab51c9d7e7a65562e00e923943d9f63bc0318392551cc878760090154604051610cf2929190612ea1565b60405180910390a150505050505050565b6000600560008681526020019081526020016000205490506000600360008781526020019081526020016000209050600073ffffffffffffffffffffffffffffffffffffffff168160000160009054906101000a900473ffffffffffffffffffffffffffffffffffffffff1673ffffffffffffffffffffffffffffffffffffffff1603610dc5576040517f08c379a0000000000000000000000000000000000000000000000000000000008152600401610dbc90612f16565b60405180910390fd5b6000816004015414610e0c576040517f08c379a0000000000000000000000000000000000000000000000000000000008152600401610e0390612fa8565b60405180910390fd5b62093a808385610e1c9190612be4565b10158015610e2c575062278d0084105b610e6b576040517f08c379a0000000000000000000000000000000000000000000000000000000008152600401610e629061303a565b60405180910390fd5b6040518060a001604052803373ffffffffffffffffffffffffffffffffffffffff1681526020013481526020018681526020018581526020018481525060046000888152602001908152602001600020600084815260200190815260200160002060008201518160000160006101000a81548173ffffffffffffffffffffffffffffffffffffffff021916908373ffffffffffffffffffffffffffffffffffffffff160217905550602082015181600101556040820151816002015560608201518160030155608082015181600401559050506001600560008881526020019081526020016000206000828254610f629190612e25565b9250508190555034600660003373ffffffffffffffffffffffffffffffffffffffff1673ffffffffffffffffffffffffffffffffffffffff1681526020019081526020016000206000828254610fb89190612e25565b925050819055507f50f6b5023be496691b3891b86afe1c2608733fb577cf0e100d9d697d968f307533878434898989604051610ffa979695949392919061305a565b60405180910390a1505050505050565b6007602052826000526040600020602052816000526040600020602052806000526040600020600092509250509054906101000a900460ff1681565b6000600660008373ffffffffffffffffffffffffffffffffffffffff1673ffffffffffffffffffffffffffffffffffffffff168152602001908152602001600020549050919050565b611097612458565b6004600084815260200190815260200160002060008381526020019081526020016000206040518060a00160405290816000820160009054906101000a900473ffffffffffffffffffffffffffffffffffffffff1673ffffffffffffffffffffffffffffffffffffffff1673ffffffffffffffffffffffffffffffffffffffff168152602001600182015481526020016002820154815260200160038201548152602001600482015481525050905092915050565b60066020528060005260406000206000915090505481565b3373ffffffffffffffffffffffffffffffffffffffff168273ffffffffffffffffffffffffffffffffffffffff16636352211e836040518263ffffffff1660e01b81526004016111b49190612832565b602060405180830381865afa1580156111d1573d6000803e3d6000fd5b505050506040513d601f19601f820116820180604052508101906111f591906130de565b73ffffffffffffffffffffffffffffffffffffffff161461124b576040517f08c379a000000000000000000000000000000000000000000000000000000000815260040161124290613157565b60405180910390fd5b60001515600760008473ffffffffffffffffffffffffffffffffffffffff1673ffffffffffffffffffffffffffffffffffffffff16815260200190815260200160002060003373ffffffffffffffffffffffffffffffffffffffff1673ffffffffffffffffffffffffffffffffffffffff168152602001908152602001600020600083815260200190815260200160002060009054906101000a900460ff1615151461132c576040517f08c379a0000000000000000000000000000000000000000000000000000000008152600401611323906131c3565b60405180910390fd5b6040518061014001604052803373ffffffffffffffffffffffffffffffffffffffff168152602001600073ffffffffffffffffffffffffffffffffffffffff1681526020018373ffffffffffffffffffffffffffffffffffffffff16815260200182815260200160008152602001600081526020016000815260200160008152602001600081526020016000815250600360006113c9600161222c565b815260200190815260200160002060008201518160000160006101000a81548173ffffffffffffffffffffffffffffffffffffffff021916908373ffffffffffffffffffffffffffffffffffffffff16021790555060208201518160010160006101000a81548173ffffffffffffffffffffffffffffffffffffffff021916908373ffffffffffffffffffffffffffffffffffffffff16021790555060408201518160020160006101000a81548173ffffffffffffffffffffffffffffffffffffffff021916908373ffffffffffffffffffffffffffffffffffffffff160217905550606082015181600301556080820151816004015560a0820151816005015560c0820151816006015560e08201518160070155610100820151816008015561012082015181600901559050506001600760008473ffffffffffffffffffffffffffffffffffffffff1673ffffffffffffffffffffffffffffffffffffffff16815260200190815260200160002060003373ffffffffffffffffffffffffffffffffffffffff1673ffffffffffffffffffffffffffffffffffffffff168152602001908152602001600020600083815260200190815260200160002060006101000a81548160ff0219169083151502179055507f9ab7201699b86631d498cffaafb83086e326cb6677b121cbf95e1417628681473383836115cb600161222c565b6040516115db94939291906131e3565b60405180910390a16115ed600161223a565b5050565b6115f9612250565b60011515600260008373ffffffffffffffffffffffffffffffffffffffff1673ffffffffffffffffffffffffffffffffffffffff16815260200190815260200160002060009054906101000a900460ff1615150361168c576040517f08c379a000000000000000000000000000000000000000000000000000000000815260040161168390613274565b60405180910390fd5b6000600260008373ffffffffffffffffffffffffffffffffffffffff1673ffffffffffffffffffffffffffffffffffffffff16815260200190815260200160002060006101000a81548160ff0219169083151502179055507f47a68d495ca67fd0a225bf31f11c6546e283fd92264120d78a882a9a30357bb48160405161171391906129ad565b60405180910390a150565b611726612250565b60011515600260008373ffffffffffffffffffffffffffffffffffffffff1673ffffffffffffffffffffffffffffffffffffffff16815260200190815260200160002060009054906101000a900460ff161515036117b9576040517f08c379a00000000000000000000000000000000000000000000000000000000081526004016117b0906132e0565b60405180910390fd5b6001600260008373ffffffffffffffffffffffffffffffffffffffff1673ffffffffffffffffffffffffffffffffffffffff16815260200190815260200160002060006101000a81548160ff0219169083151502179055507f7fb5539ccc03b6d4621f2b708d17c807f41edb95f84db3fa93d785a4d9fe98898160405161184091906129ad565b60405180910390a150565b611853612250565b61185d60006122ce565b565b60026020528060005260406000206000915054906101000a900460ff1681565b60008060009054906101000a900473ffffffffffffffffffffffffffffffffffffffff16905090565b60056020528060005260406000206000915090505481565b600080600360008481526020019081526020016000209050600081600801546064836005015484600401546118f59190613300565b6118ff9190612be4565b6119099190612be4565b8260080154836004015461191d9190612be4565b6119279190612e25565b90508092505050919050565b6000600660003373ffffffffffffffffffffffffffffffffffffffff1673ffffffffffffffffffffffffffffffffffffffff16815260200190815260200160002054905060003390508073ffffffffffffffffffffffffffffffffffffffff166108fc849081150290604051600060405180830381858888f193505050501580156119c2573d6000803e3d6000fd5b5082826119cf9190612b81565b600660003373ffffffffffffffffffffffffffffffffffffffff1673ffffffffffffffffffffffffffffffffffffffff16815260200190815260200160002081905550505050565b813373ffffffffffffffffffffffffffffffffffffffff166003600083815260200190815260200160002060000160009054906101000a900473ffffffffffffffffffffffffffffffffffffffff1673ffffffffffffffffffffffffffffffffffffffff1614611abc576040517f08c379a0000000000000000000000000000000000000000000000000000000008152600401611ab39061338e565b60405180910390fd5b600060036000858152602001908152602001600020905060006004600086815260200190815260200160002060008581526020019081526020016000206040518060a00160405290816000820160009054906101000a900473ffffffffffffffffffffffffffffffffffffffff1673ffffffffffffffffffffffffffffffffffffffff1673ffffffffffffffffffffffffffffffffffffffff1681526020016001820154815260200160028201548152602001600382015481526020016004820154815250509050600073ffffffffffffffffffffffffffffffffffffffff16816000015173ffffffffffffffffffffffffffffffffffffffff1603611bf7576040517f08c379a0000000000000000000000000000000000000000000000000000000008152600401611bee906133fa565b60405180910390fd5b806020015160066000836000015173ffffffffffffffffffffffffffffffffffffffff1673ffffffffffffffffffffffffffffffffffffffff168152602001908152602001600020541015611c81576040517f08c379a0000000000000000000000000000000000000000000000000000000008152600401611c789061348c565b60405180910390fd5b80600001518260010160006101000a81548173ffffffffffffffffffffffffffffffffffffffff021916908373ffffffffffffffffffffffffffffffffffffffff160217905550806020015182600401819055508060400151826005018190555080606001518260060181905550806060015142611cff9190612e25565b82600701819055508060800151826008018190555060008260020160009054906101000a900473ffffffffffffffffffffffffffffffffffffffff1690508073ffffffffffffffffffffffffffffffffffffffff166323b872dd8460000160009054906101000a900473ffffffffffffffffffffffffffffffffffffffff163086600301546040518463ffffffff1660e01b8152600401611da293929190612c81565b600060405180830381600087803b158015611dbc57600080fd5b505af1158015611dd0573d6000803e3d6000fd5b5050505060003390508073ffffffffffffffffffffffffffffffffffffffff166108fc84602001519081150290604051600060405180830381858888f19350505050158015611e23573d6000803e3d6000fd5b50826020015160066000856000015173ffffffffffffffffffffffffffffffffffffffff1673ffffffffffffffffffffffffffffffffffffffff1681526020019081526020016000206000828254611e7b9190612b81565b925050819055507f8b3aca815e0141d6aae3d4f5be627d808bb2dce40bc3abf1bae0e53e6820440487878660000160009054906101000a900473ffffffffffffffffffffffffffffffffffffffff168760010160009054906101000a900473ffffffffffffffffffffffffffffffffffffffff168860020160009054906101000a900473ffffffffffffffffffffffffffffffffffffffff1689600301548a600401548b600501548c600601548d600701548e600801546000604051611f4c9c9b9a999897969594939291906134e7565b60405180910390a150505050505050565b611f65612250565b600073ffffffffffffffffffffffffffffffffffffffff168173ffffffffffffffffffffffffffffffffffffffff1603611fd4576040517f08c379a0000000000000000000000000000000000000000000000000000000008152600401611fcb90613613565b60405180910390fd5b611fdd816122ce565b50565b6004602052816000526040600020602052806000526040600020600091509150508060000160009054906101000a900473ffffffffffffffffffffffffffffffffffffffff16908060010154908060020154908060030154908060040154905085565b60036020528060005260406000206000915090508060000160009054906101000a900473ffffffffffffffffffffffffffffffffffffffff16908060010160009054906101000a900473ffffffffffffffffffffffffffffffffffffffff16908060020160009054906101000a900473ffffffffffffffffffffffffffffffffffffffff1690806003015490806004015490806005015490806006015490806007015490806008015490806009015490508a565b61218d8160405160240161210b9190612832565b6040516020818303038152906040527ff82c50f1000000000000000000000000000000000000000000000000000000007bffffffffffffffffffffffffffffffffffffffffffffffffffffffff19166020820180517bffffffffffffffffffffffffffffffffffffffffffffffffffffffff8381831617835250505050612392565b50565b61222882826040516024016121a69291906136b2565b6040516020818303038152906040527fb60e72cc000000000000000000000000000000000000000000000000000000007bffffffffffffffffffffffffffffffffffffffffffffffffffffffff19166020820180517bffffffffffffffffffffffffffffffffffffffffffffffffffffffff8381831617835250505050612392565b5050565b600081600001549050919050565b6001816000016000828254019250508190555050565b6122586123bb565b73ffffffffffffffffffffffffffffffffffffffff1661227661187f565b73ffffffffffffffffffffffffffffffffffffffff16146122cc576040517f08c379a00000000000000000000000000000000000000000000000000000000081526004016122c39061372e565b60405180910390fd5b565b60008060009054906101000a900473ffffffffffffffffffffffffffffffffffffffff169050816000806101000a81548173ffffffffffffffffffffffffffffffffffffffff021916908373ffffffffffffffffffffffffffffffffffffffff1602179055508173ffffffffffffffffffffffffffffffffffffffff168173ffffffffffffffffffffffffffffffffffffffff167f8be0079c531659141344cd1fd0a4f28419497f9722a3daafe3b4186f6b6457e060405160405180910390a35050565b60008151905060006a636f6e736f6c652e6c6f679050602083016000808483855afa5050505050565b600033905090565b604051806101400160405280600073ffffffffffffffffffffffffffffffffffffffff168152602001600073ffffffffffffffffffffffffffffffffffffffff168152602001600073ffffffffffffffffffffffffffffffffffffffff168152602001600081526020016000815260200160008152602001600081526020016000815260200160008152602001600081525090565b6040518060a00160405280600073ffffffffffffffffffffffffffffffffffffffff168152602001600081526020016000815260200160008152602001600081525090565b600080fd5b6000819050919050565b6124b5816124a2565b81146124c057600080fd5b50565b6000813590506124d2816124ac565b92915050565b6000602082840312156124ee576124ed61249d565b5b60006124fc848285016124c3565b91505092915050565b600073ffffffffffffffffffffffffffffffffffffffff82169050919050565b600061253082612505565b9050919050565b61254081612525565b82525050565b6000819050919050565b600061256b61256661256184612505565b612546565b612505565b9050919050565b600061257d82612550565b9050919050565b600061258f82612572565b9050919050565b61259f81612584565b82525050565b6125ae816124a2565b82525050565b610140820160008201516125cb6000850182612537565b5060208201516125de6020850182612537565b5060408201516125f16040850182612596565b50606082015161260460608501826125a5565b50608082015161261760808501826125a5565b5060a082015161262a60a08501826125a5565b5060c082015161263d60c08501826125a5565b5060e082015161265060e08501826125a5565b506101008201516126656101008501826125a5565b5061012082015161267a6101208501826125a5565b50505050565b60006101408201905061269660008301846125b4565b92915050565b600080600080608085870312156126b6576126b561249d565b5b60006126c4878288016124c3565b94505060206126d5878288016124c3565b93505060406126e6878288016124c3565b92505060606126f7878288016124c3565b91505092959194509250565b600061270e82612525565b9050919050565b61271e81612703565b811461272957600080fd5b50565b60008135905061273b81612715565b92915050565b61274a81612525565b811461275557600080fd5b50565b60008135905061276781612741565b92915050565b6000806000606084860312156127865761278561249d565b5b60006127948682870161272c565b93505060206127a586828701612758565b92505060406127b6868287016124c3565b9150509250925092565b60008115159050919050565b6127d5816127c0565b82525050565b60006020820190506127f060008301846127cc565b92915050565b60006020828403121561280c5761280b61249d565b5b600061281a84828501612758565b91505092915050565b61282c816124a2565b82525050565b60006020820190506128476000830184612823565b92915050565b600080604083850312156128645761286361249d565b5b6000612872858286016124c3565b9250506020612883858286016124c3565b9150509250929050565b600061289882612505565b9050919050565b6128a88161288d565b82525050565b60a0820160008201516128c4600085018261289f565b5060208201516128d760208501826125a5565b5060408201516128ea60408501826125a5565b5060608201516128fd60608501826125a5565b50608082015161291060808501826125a5565b50505050565b600060a08201905061292b60008301846128ae565b92915050565b600080604083850312156129485761294761249d565b5b60006129568582860161272c565b9250506020612967858286016124c3565b9150509250929050565b6000602082840312156129875761298661249d565b5b60006129958482850161272c565b91505092915050565b6129a781612525565b82525050565b60006020820190506129c2600083018461299e565b92915050565b6129d18161288d565b82525050565b600060a0820190506129ec60008301886129c8565b6129f96020830187612823565b612a066040830186612823565b612a136060830185612823565b612a206080830184612823565b9695505050505050565b612a3381612584565b82525050565b600061014082019050612a4f600083018d61299e565b612a5c602083018c61299e565b612a69604083018b612a2a565b612a76606083018a612823565b612a836080830189612823565b612a9060a0830188612823565b612a9d60c0830187612823565b612aaa60e0830186612823565b612ab8610100830185612823565b612ac6610120830184612823565b9b9a5050505050505050505050565b600082825260208201905092915050565b7f4c656e64696e673a206e6f742061626c6520746f206163636573730000000000600082015250565b6000612b1c601b83612ad5565b9150612b2782612ae6565b602082019050919050565b60006020820190508181036000830152612b4b81612b0f565b9050919050565b7f4e487b7100000000000000000000000000000000000000000000000000000000600052601160045260246000fd5b6000612b8c826124a2565b9150612b97836124a2565b9250828203905081811115612baf57612bae612b52565b5b92915050565b7f4e487b7100000000000000000000000000000000000000000000000000000000600052601260045260246000fd5b6000612bef826124a2565b9150612bfa836124a2565b925082612c0a57612c09612bb5565b5b828204905092915050565b7f4c656e64696e673a2052657175657374206f6e2074696d650000000000000000600082015250565b6000612c4b601883612ad5565b9150612c5682612c15565b602082019050919050565b60006020820190508181036000830152612c7a81612c3e565b9050919050565b6000606082019050612c96600083018661299e565b612ca3602083018561299e565b612cb06040830184612823565b949350505050565b6000604082019050612ccd6000830185612823565b612cda602083018461299e565b9392505050565b7f4c656e64696e673a205061696420646f6e650000000000000000000000000000600082015250565b6000612d17601283612ad5565b9150612d2282612ce1565b602082019050919050565b60006020820190508181036000830152612d4681612d0a565b9050919050565b7f4c656e64696e673a20526571756573742074696d65206f757400000000000000600082015250565b6000612d83601983612ad5565b9150612d8e82612d4d565b602082019050919050565b60006020820190508181036000830152612db281612d76565b9050919050565b7f4c656e64696e673a204e6f7420656e6f75676820657468000000000000000000600082015250565b6000612def601783612ad5565b9150612dfa82612db9565b602082019050919050565b60006020820190508181036000830152612e1e81612de2565b9050919050565b6000612e30826124a2565b9150612e3b836124a2565b9250828201905080821115612e5357612e52612b52565b5b92915050565b6000612e64826124a2565b91507fffffffffffffffffffffffffffffffffffffffffffffffffffffffffffffffff8203612e9657612e95612b52565b5b600182019050919050565b6000604082019050612eb66000830185612823565b612ec36020830184612823565b9392505050565b7f4c656e64696e673a2072656365697074206d7573742065786973740000000000600082015250565b6000612f00601b83612ad5565b9150612f0b82612eca565b602082019050919050565b60006020820190508181036000830152612f2f81612ef3565b9050919050565b7f4c656e64696e673a2072656365697074206d757374207374696c6c206176616960008201527f6c61626c65000000000000000000000000000000000000000000000000000000602082015250565b6000612f92602583612ad5565b9150612f9d82612f36565b604082019050919050565b60006020820190508181036000830152612fc181612f85565b9050919050565b7f4c656e64696e673a206f666665722074696d6520616e64207061796d656e742060008201527f74696d6520617265206e6f742076616c69640000000000000000000000000000602082015250565b6000613024603283612ad5565b915061302f82612fc8565b604082019050919050565b6000602082019050818103600083015261305381613017565b9050919050565b600060e08201905061306f600083018a6129c8565b61307c6020830189612823565b6130896040830188612823565b6130966060830187612823565b6130a36080830186612823565b6130b060a0830185612823565b6130bd60c0830184612823565b98975050505050505050565b6000815190506130d881612741565b92915050565b6000602082840312156130f4576130f361249d565b5b6000613102848285016130c9565b91505092915050565b7f4c656e64696e673a2073656e646572206d7573742068617665204e4654000000600082015250565b6000613141601d83612ad5565b915061314c8261310b565b602082019050919050565b6000602082019050818103600083015261317081613134565b9050919050565b7f4c656e64696e673a206e667420616c726561647920696e206d61726b65740000600082015250565b60006131ad601e83612ad5565b91506131b882613177565b602082019050919050565b600060208201905081810360008301526131dc816131a0565b9050919050565b60006080820190506131f8600083018761299e565b6132056020830186612a2a565b6132126040830185612823565b61321f6060830184612823565b95945050505050565b7f416c726561647920756e2d7265676973746f7200000000000000000000000000600082015250565b600061325e601383612ad5565b915061326982613228565b602082019050919050565b6000602082019050818103600083015261328d81613251565b9050919050565b7f416c7265616479207265676973746f7200000000000000000000000000000000600082015250565b60006132ca601083612ad5565b91506132d582613294565b602082019050919050565b600060208201905081810360008301526132f9816132bd565b9050919050565b600061330b826124a2565b9150613316836124a2565b9250828202613324816124a2565b9150828204841483151761333b5761333a612b52565b5b5092915050565b7f4c656e64696e673a204d7573742062652056656e646f72000000000000000000600082015250565b6000613378601783612ad5565b915061338382613342565b602082019050919050565b600060208201905081810360008301526133a78161336b565b9050919050565b7f4c656e64696e673a206f66666572206d75737420657869737400000000000000600082015250565b60006133e4601983612ad5565b91506133ef826133ae565b602082019050919050565b60006020820190508181036000830152613413816133d7565b9050919050565b7f4c656e64696e673a204c656e6465722062616c616e636520646f6573206e6f7460008201527f20737570706f7274000000000000000000000000000000000000000000000000602082015250565b6000613476602883612ad5565b91506134818261341a565b604082019050919050565b600060208201905081810360008301526134a581613469565b9050919050565b6000819050919050565b60006134d16134cc6134c7846134ac565b612546565b6124a2565b9050919050565b6134e1816134b6565b82525050565b6000610180820190506134fd600083018f612823565b61350a602083018e612823565b613517604083018d61299e565b613524606083018c61299e565b613531608083018b612a2a565b61353e60a083018a612823565b61354b60c0830189612823565b61355860e0830188612823565b613566610100830187612823565b613574610120830186612823565b613582610140830185612823565b6135906101608301846134d8565b9d9c50505050505050505050505050565b7f4f776e61626c653a206e6577206f776e657220697320746865207a65726f206160008201527f6464726573730000000000000000000000000000000000000000000000000000602082015250565b60006135fd602683612ad5565b9150613608826135a1565b604082019050919050565b6000602082019050818103600083015261362c816135f0565b9050919050565b600081519050919050565b60005b8381101561365c578082015181840152602081019050613641565b60008484015250505050565b6000601f19601f8301169050919050565b600061368482613633565b61368e8185612ad5565b935061369e81856020860161363e565b6136a781613668565b840191505092915050565b600060408201905081810360008301526136cc8185613679565b90506136db6020830184612823565b9392505050565b7f4f776e61626c653a2063616c6c6572206973206e6f7420746865206f776e6572600082015250565b6000613718602083612ad5565b9150613723826136e2565b602082019050919050565b600060208201905081810360008301526137478161370b565b905091905056fea26469706673582212205781dc36866a3c21df02253196280de872be4ed7cb4eed78aac2a1a503fbed7d64736f6c63430008110033",
  "linkReferences": {},
  "deployedLinkReferences": {}
}