{
  "_format": "hh-sol-artifact-1",
  "contractName": "LendingFactory",
  "sourceName": "contracts/LendingFactory.sol",
  "abi": [
    {
      "inputs": [],
      "stateMutability": "nonpayable",
      "type": "constructor"
    },
    {
      "anonymous": false,
      "inputs": [
        {
          "indexed": false,
          "internalType": "address payable",
          "name": "lender",
          "type": "address"
        },
        {
          "indexed": false,
          "internalType": "uint256",
          "name": "requestNumber",
          "type": "uint256"
        },
        {
          "indexed": false,
          "internalType": "uint256",
          "name": "offerNumber",
          "type": "uint256"
        },
        {
          "indexed": false,
          "internalType": "uint256",
          "name": "offerTokenAmount",
          "type": "uint256"
        },
        {
          "indexed": false,
          "internalType": "uint256",
          "name": "offerRate",
          "type": "uint256"
        },
        {
          "indexed": false,
          "internalType": "uint256",
          "name": "offerAmountOfTime",
          "type": "uint256"
        },
        {
          "indexed": false,
          "internalType": "uint256",
          "name": "offerPaymenTime",
          "type": "uint256"
        }
      ],
      "name": "LenderMakeOffer",
      "type": "event"
    },
    {
      "anonymous": false,
      "inputs": [
        {
          "indexed": true,
          "internalType": "address",
          "name": "previousOwner",
          "type": "address"
        },
        {
          "indexed": true,
          "internalType": "address",
          "name": "newOwner",
          "type": "address"
        }
      ],
      "name": "OwnershipTransferred",
      "type": "event"
    },
    {
      "anonymous": false,
      "inputs": [
        {
          "indexed": false,
          "internalType": "address",
          "name": "NFTAddress",
          "type": "address"
        }
      ],
      "name": "RegisterNFT",
      "type": "event"
    },
    {
      "anonymous": false,
      "inputs": [
        {
          "indexed": false,
          "internalType": "address",
          "name": "NFTAddress",
          "type": "address"
        }
      ],
      "name": "UnRegisterNFT",
      "type": "event"
    },
    {
      "anonymous": false,
      "inputs": [
        {
          "indexed": false,
          "internalType": "uint256",
          "name": "requestNumber",
          "type": "uint256"
        },
        {
          "indexed": false,
          "internalType": "uint256",
          "name": "offerNumber",
          "type": "uint256"
        },
        {
          "indexed": false,
          "internalType": "address",
          "name": "vendor",
          "type": "address"
        },
        {
          "indexed": false,
          "internalType": "address",
          "name": "lender",
          "type": "address"
        },
        {
          "indexed": false,
          "internalType": "contract ERC721",
          "name": "NFTAddress",
          "type": "address"
        },
        {
          "indexed": false,
          "internalType": "uint256",
          "name": "tokenId",
          "type": "uint256"
        },
        {
          "indexed": false,
          "internalType": "uint256",
          "name": "tokenAmount",
          "type": "uint256"
        },
        {
          "indexed": false,
          "internalType": "uint256",
          "name": "tokenRate",
          "type": "uint256"
        },
        {
          "indexed": false,
          "internalType": "uint256",
          "name": "amountOfTime",
          "type": "uint256"
        },
        {
          "indexed": false,
          "internalType": "uint256",
          "name": "deadLine",
          "type": "uint256"
        },
        {
          "indexed": false,
          "internalType": "uint256",
          "name": "paymentTime",
          "type": "uint256"
        },
        {
          "indexed": false,
          "internalType": "uint256",
          "name": "paymentCount",
          "type": "uint256"
        }
      ],
      "name": "VendorAcceptOffer",
      "type": "event"
    },
    {
      "anonymous": false,
      "inputs": [
        {
          "indexed": false,
          "internalType": "address",
          "name": "vendor",
          "type": "address"
        },
        {
          "indexed": false,
          "internalType": "contract ERC721",
          "name": "NFTAddress",
          "type": "address"
        },
        {
          "indexed": false,
          "internalType": "uint256",
          "name": "tokenId",
          "type": "uint256"
        },
        {
          "indexed": false,
          "internalType": "uint256",
          "name": "requestNumber",
          "type": "uint256"
        }
      ],
      "name": "VendorMakeRequest",
      "type": "event"
    },
    {
      "anonymous": false,
      "inputs": [
        {
          "indexed": false,
          "internalType": "uint256",
          "name": "requestNumber",
          "type": "uint256"
        },
        {
          "indexed": false,
          "internalType": "uint256",
          "name": "paidCounter",
          "type": "uint256"
        }
      ],
      "name": "VendorPayRountine",
      "type": "event"
    },
    {
      "anonymous": false,
      "inputs": [
        {
          "indexed": false,
          "internalType": "uint256",
          "name": "requestNumber",
          "type": "uint256"
        }
      ],
      "name": "VendorReddem",
      "type": "event"
    },
    {
      "anonymous": false,
      "inputs": [
        {
          "indexed": false,
          "internalType": "uint256",
          "name": "requestNumber",
          "type": "uint256"
        },
        {
          "indexed": false,
          "internalType": "address",
          "name": "_reciever",
          "type": "address"
        }
      ],
      "name": "WithDrawNFT",
      "type": "event"
    },
    {
      "inputs": [
        {
          "internalType": "address",
          "name": "",
          "type": "address"
        }
      ],
      "name": "addressBalance",
      "outputs": [
        {
          "internalType": "uint256",
          "name": "",
          "type": "uint256"
        }
      ],
      "stateMutability": "view",
      "type": "function"
    },
    {
      "inputs": [],
      "name": "depositEth",
      "outputs": [],
      "stateMutability": "payable",
      "type": "function"
    },
    {
      "inputs": [
        {
          "internalType": "address",
          "name": "checker",
          "type": "address"
        }
      ],
      "name": "getAddressBalance",
      "outputs": [
        {
          "internalType": "uint256",
          "name": "",
          "type": "uint256"
        }
      ],
      "stateMutability": "view",
      "type": "function"
    },
    {
      "inputs": [
        {
          "internalType": "uint256",
          "name": "_requestNumber",
          "type": "uint256"
        },
        {
          "internalType": "uint256",
          "name": "_offerNumber",
          "type": "uint256"
        }
      ],
      "name": "getOfferBook",
      "outputs": [
        {
          "components": [
            {
              "internalType": "address payable",
              "name": "lender",
              "type": "address"
            },
            {
              "internalType": "uint256",
              "name": "offerTokenAmount",
              "type": "uint256"
            },
            {
              "internalType": "uint256",
              "name": "offerRate",
              "type": "uint256"
            },
            {
              "internalType": "uint256",
              "name": "offerAmountOfTime",
              "type": "uint256"
            },
            {
              "internalType": "uint256",
              "name": "offerPaymentTime",
              "type": "uint256"
            }
          ],
          "internalType": "struct Offer.OfferDetail",
          "name": "",
          "type": "tuple"
        }
      ],
      "stateMutability": "view",
      "type": "function"
    },
    {
      "inputs": [
        {
          "internalType": "uint256",
          "name": "_requestNumber",
          "type": "uint256"
        }
      ],
      "name": "getReceiptBook",
      "outputs": [
        {
          "components": [
            {
              "internalType": "address",
              "name": "vendor",
              "type": "address"
            },
            {
              "internalType": "address",
              "name": "lender",
              "type": "address"
            },
            {
              "internalType": "contract ERC721",
              "name": "NFTAddress",
              "type": "address"
            },
            {
              "internalType": "uint256",
              "name": "tokenId",
              "type": "uint256"
            },
            {
              "internalType": "uint256",
              "name": "tokenAmount",
              "type": "uint256"
            },
            {
              "internalType": "uint256",
              "name": "tokenRate",
              "type": "uint256"
            },
            {
              "internalType": "uint256",
              "name": "amountOfTime",
              "type": "uint256"
            },
            {
              "internalType": "uint256",
              "name": "deadLine",
              "type": "uint256"
            },
            {
              "internalType": "uint256",
              "name": "paymentTime",
              "type": "uint256"
            },
            {
              "internalType": "uint256",
              "name": "paymentCount",
              "type": "uint256"
            }
          ],
          "internalType": "struct Receipt.ReceiptDetail",
          "name": "",
          "type": "tuple"
        }
      ],
      "stateMutability": "view",
      "type": "function"
    },
    {
      "inputs": [
        {
          "internalType": "uint256",
          "name": "_requestNumber",
          "type": "uint256"
        }
      ],
      "name": "getTokenMustPaidPerTime",
      "outputs": [
        {
          "internalType": "uint256",
          "name": "",
          "type": "uint256"
        }
      ],
      "stateMutability": "view",
      "type": "function"
    },
    {
      "inputs": [
        {
          "internalType": "uint256",
          "name": "_requestNumber",
          "type": "uint256"
        },
        {
          "internalType": "uint256",
          "name": "_offerRate",
          "type": "uint256"
        },
        {
          "internalType": "uint256",
          "name": "_amountOfTime",
          "type": "uint256"
        },
        {
          "internalType": "uint256",
          "name": "_paymentTime",
          "type": "uint256"
        }
      ],
      "name": "lenderMakeOffer",
      "outputs": [],
      "stateMutability": "payable",
      "type": "function"
    },
    {
      "inputs": [
        {
          "internalType": "contract ERC721",
          "name": "",
          "type": "address"
        },
        {
          "internalType": "address",
          "name": "",
          "type": "address"
        },
        {
          "internalType": "uint256",
          "name": "",
          "type": "uint256"
        }
      ],
      "name": "nftStatus",
      "outputs": [
        {
          "internalType": "bool",
          "name": "",
          "type": "bool"
        }
      ],
      "stateMutability": "view",
      "type": "function"
    },
    {
      "inputs": [
        {
          "internalType": "uint256",
          "name": "",
          "type": "uint256"
        },
        {
          "internalType": "uint256",
          "name": "",
          "type": "uint256"
        }
      ],
      "name": "offerBook",
      "outputs": [
        {
          "internalType": "address payable",
          "name": "lender",
          "type": "address"
        },
        {
          "internalType": "uint256",
          "name": "offerTokenAmount",
          "type": "uint256"
        },
        {
          "internalType": "uint256",
          "name": "offerRate",
          "type": "uint256"
        },
        {
          "internalType": "uint256",
          "name": "offerAmountOfTime",
          "type": "uint256"
        },
        {
          "internalType": "uint256",
          "name": "offerPaymentTime",
          "type": "uint256"
        }
      ],
      "stateMutability": "view",
      "type": "function"
    },
    {
      "inputs": [
        {
          "internalType": "uint256",
          "name": "",
          "type": "uint256"
        }
      ],
      "name": "offerOrder",
      "outputs": [
        {
          "internalType": "uint256",
          "name": "",
          "type": "uint256"
        }
      ],
      "stateMutability": "view",
      "type": "function"
    },
    {
      "inputs": [],
      "name": "owner",
      "outputs": [
        {
          "internalType": "address",
          "name": "",
          "type": "address"
        }
      ],
      "stateMutability": "view",
      "type": "function"
    },
    {
      "inputs": [
        {
          "internalType": "uint256",
          "name": "",
          "type": "uint256"
        }
      ],
      "name": "receiptBook",
      "outputs": [
        {
          "internalType": "address",
          "name": "vendor",
          "type": "address"
        },
        {
          "internalType": "address",
          "name": "lender",
          "type": "address"
        },
        {
          "internalType": "contract ERC721",
          "name": "NFTAddress",
          "type": "address"
        },
        {
          "internalType": "uint256",
          "name": "tokenId",
          "type": "uint256"
        },
        {
          "internalType": "uint256",
          "name": "tokenAmount",
          "type": "uint256"
        },
        {
          "internalType": "uint256",
          "name": "tokenRate",
          "type": "uint256"
        },
        {
          "internalType": "uint256",
          "name": "amountOfTime",
          "type": "uint256"
        },
        {
          "internalType": "uint256",
          "name": "deadLine",
          "type": "uint256"
        },
        {
          "internalType": "uint256",
          "name": "paymentTime",
          "type": "uint256"
        },
        {
          "internalType": "uint256",
          "name": "paymentCount",
          "type": "uint256"
        }
      ],
      "stateMutability": "view",
      "type": "function"
    },
    {
      "inputs": [
        {
          "internalType": "contract ERC721",
          "name": "_NFTAddress",
          "type": "address"
        }
      ],
      "name": "registerNFT",
      "outputs": [],
      "stateMutability": "nonpayable",
      "type": "function"
    },
    {
      "inputs": [
        {
          "internalType": "address",
          "name": "",
          "type": "address"
        }
      ],
      "name": "registerNFTs",
      "outputs": [
        {
          "internalType": "bool",
          "name": "",
          "type": "bool"
        }
      ],
      "stateMutability": "view",
      "type": "function"
    },
    {
      "inputs": [],
      "name": "renounceOwnership",
      "outputs": [],
      "stateMutability": "nonpayable",
      "type": "function"
    },
    {
      "inputs": [
        {
          "internalType": "address",
          "name": "newOwner",
          "type": "address"
        }
      ],
      "name": "transferOwnership",
      "outputs": [],
      "stateMutability": "nonpayable",
      "type": "function"
    },
    {
      "inputs": [
        {
          "internalType": "contract ERC721",
          "name": "_NFTAddress",
          "type": "address"
        }
      ],
      "name": "unRegisterNFT",
      "outputs": [],
      "stateMutability": "nonpayable",
      "type": "function"
    },
    {
      "inputs": [
        {
          "internalType": "uint256",
          "name": "_requestNumber",
          "type": "uint256"
        },
        {
          "internalType": "uint256",
          "name": "_offerNumber",
          "type": "uint256"
        }
      ],
      "name": "vendorAcceptOffer",
      "outputs": [],
      "stateMutability": "nonpayable",
      "type": "function"
    },
    {
      "inputs": [
        {
          "internalType": "contract ERC721",
          "name": "NFTAddress",
          "type": "address"
        },
        {
          "internalType": "uint256",
          "name": "tokenId",
          "type": "uint256"
        }
      ],
      "name": "vendorMakeRequest",
      "outputs": [],
      "stateMutability": "nonpayable",
      "type": "function"
    },
    {
      "inputs": [
        {
          "internalType": "uint256",
          "name": "_requestNumber",
          "type": "uint256"
        }
      ],
      "name": "vendorPayRountine",
      "outputs": [],
      "stateMutability": "payable",
      "type": "function"
    },
    {
      "inputs": [
        {
          "internalType": "uint256",
          "name": "token",
          "type": "uint256"
        }
      ],
      "name": "withdrawEth",
      "outputs": [],
      "stateMutability": "payable",
      "type": "function"
    },
    {
      "inputs": [
        {
          "internalType": "uint256",
          "name": "_requestNumber",
          "type": "uint256"
        }
      ],
      "name": "withdrawNFT",
      "outputs": [],
      "stateMutability": "nonpayable",
      "type": "function"
    }
  ],
  "bytecode": "0x60806040523480156200001157600080fd5b5062000032620000266200003860201b60201c565b6200004060201b60201c565b62000104565b600033905090565b60008060009054906101000a900473ffffffffffffffffffffffffffffffffffffffff169050816000806101000a81548173ffffffffffffffffffffffffffffffffffffffff021916908373ffffffffffffffffffffffffffffffffffffffff1602179055508173ffffffffffffffffffffffffffffffffffffffff168173ffffffffffffffffffffffffffffffffffffffff167f8be0079c531659141344cd1fd0a4f28419497f9722a3daafe3b4186f6b6457e060405160405180910390a35050565b6139dc80620001146000396000f3fe6080604052600436106101355760003560e01c80636aaf1f38116100ab578063a0925cbd1161006f578063a0925cbd1461040d578063c311d0491461044a578063cbb78c9a14610466578063f2fde38b1461048f578063fb3f28fe146104b8578063fdf586d7146104f957610135565b80636aaf1f3814610328578063715018a61461035157806376f59acf146103685780638da5cb5b146103a55780639e3b6c4c146103d057610135565b806335046722116100fd57806335046722146102155780633ca5da8d146102525780633ec4de351461028f578063439370b1146102cc5780635f6fc51b146102d6578063665912c3146102ff57610135565b8063023245d71461013a57806312a1dc1d146101635780631d727b23146101a05780631e90ca32146101bc57806321576392146101d8575b600080fd5b34801561014657600080fd5b50610161600480360381019061015c91906126c4565b61053f565b005b34801561016f57600080fd5b5061018a600480360381019061018591906126c4565b610883565b604051610197919061286c565b60405180910390f35b6101ba60048036038101906101b591906126c4565b6109f9565b005b6101d660048036038101906101d19190612888565b610dca565b005b3480156101e457600080fd5b506101ff60048036038101906101fa9190612959565b6110d1565b60405161020c91906129c7565b60405180910390f35b34801561022157600080fd5b5061023c600480360381019061023791906129e2565b61110d565b6040516102499190612a1e565b60405180910390f35b34801561025e57600080fd5b5061027960048036038101906102749190612a39565b611156565b6040516102869190612b02565b60405180910390f35b34801561029b57600080fd5b506102b660048036038101906102b191906129e2565b611213565b6040516102c39190612a1e565b60405180910390f35b6102d461122b565b005b3480156102e257600080fd5b506102fd60048036038101906102f89190612b1d565b611283565b005b34801561030b57600080fd5b5061032660048036038101906103219190612b5d565b611710565b005b34801561033457600080fd5b5061034f600480360381019061034a9190612b5d565b61183d565b005b34801561035d57600080fd5b5061036661196a565b005b34801561037457600080fd5b5061038f600480360381019061038a91906129e2565b61197e565b60405161039c91906129c7565b60405180910390f35b3480156103b157600080fd5b506103ba61199e565b6040516103c79190612b99565b60405180910390f35b3480156103dc57600080fd5b506103f760048036038101906103f291906126c4565b6119c7565b6040516104049190612a1e565b60405180910390f35b34801561041957600080fd5b50610434600480360381019061042f91906126c4565b6119df565b6040516104419190612a1e565b60405180910390f35b610464600480360381019061045f91906126c4565b611a52565b005b34801561047257600080fd5b5061048d60048036038101906104889190612a39565b611c03565b005b34801561049b57600080fd5b506104b660048036038101906104b191906129e2565b612149565b005b3480156104c457600080fd5b506104df60048036038101906104da9190612a39565b6121cc565b6040516104f0959493929190612bc3565b60405180910390f35b34801561050557600080fd5b50610520600480360381019061051b91906126c4565b61222f565b6040516105369a99989796959493929190612c25565b60405180910390f35b600061054a82610883565b9050600081604001519050816000015173ffffffffffffffffffffffffffffffffffffffff163373ffffffffffffffffffffffffffffffffffffffff1614806105c25750816020015173ffffffffffffffffffffffffffffffffffffffff163373ffffffffffffffffffffffffffffffffffffffff16145b610601576040517f08c379a00000000000000000000000000000000000000000000000000000000081526004016105f890612d1e565b60405180910390fd5b816020015173ffffffffffffffffffffffffffffffffffffffff163373ffffffffffffffffffffffffffffffffffffffff16036106d35760008260c001518360e0015161064e9190612d6d565b905060008361010001518460c001516106679190612dd0565b905060008183426106789190612d6d565b6106829190612dd0565b905080856101200151106106cb576040517f08c379a00000000000000000000000000000000000000000000000000000000081526004016106c290612e4d565b60405180910390fd5b505050610720565b8161010001518261012001511461071f576040517f08c379a000000000000000000000000000000000000000000000000000000000815260040161071690612e4d565b60405180910390fd5b5b600060076000846040015173ffffffffffffffffffffffffffffffffffffffff1673ffffffffffffffffffffffffffffffffffffffff1681526020019081526020016000206000846000015173ffffffffffffffffffffffffffffffffffffffff1673ffffffffffffffffffffffffffffffffffffffff16815260200190815260200160002060008460600151815260200190815260200160002060006101000a81548160ff0219169083151502179055508073ffffffffffffffffffffffffffffffffffffffff166323b872dd303385606001516040518463ffffffff1660e01b815260040161081393929190612e6d565b600060405180830381600087803b15801561082d57600080fd5b505af1158015610841573d6000803e3d6000fd5b505050507fc11b01f2a3c991d770c6779a695f6264d7189edc3e57260ec9a7f70a447452958333604051610876929190612ea4565b60405180910390a1505050565b61088b6125af565b60036000838152602001908152602001600020604051806101400160405290816000820160009054906101000a900473ffffffffffffffffffffffffffffffffffffffff1673ffffffffffffffffffffffffffffffffffffffff1673ffffffffffffffffffffffffffffffffffffffff1681526020016001820160009054906101000a900473ffffffffffffffffffffffffffffffffffffffff1673ffffffffffffffffffffffffffffffffffffffff1673ffffffffffffffffffffffffffffffffffffffff1681526020016002820160009054906101000a900473ffffffffffffffffffffffffffffffffffffffff1673ffffffffffffffffffffffffffffffffffffffff1673ffffffffffffffffffffffffffffffffffffffff1681526020016003820154815260200160048201548152602001600582015481526020016006820154815260200160078201548152602001600882015481526020016009820154815250509050919050565b6000600360008381526020019081526020016000209050600081600601548260070154610a269190612d6d565b9050600082600801548360060154610a3e9190612dd0565b90506000818342610a4f9190612d6d565b610a599190612dd0565b9050610a6884600801546122e3565b610a7584600901546122e3565b8360090154846008015403610abf576040517f08c379a0000000000000000000000000000000000000000000000000000000008152600401610ab690612f19565b60405180910390fd5b8084600901541015610b06576040517f08c379a0000000000000000000000000000000000000000000000000000000008152600401610afd90612f85565b60405180910390fd5b6000610b11866119df565b905080341015610b56576040517f08c379a0000000000000000000000000000000000000000000000000000000008152600401610b4d90612ff1565b60405180910390fd5b8034610b629190612d6d565b600660003373ffffffffffffffffffffffffffffffffffffffff1673ffffffffffffffffffffffffffffffffffffffff1681526020019081526020016000206000828254610bb09190613011565b92505081905550610bfa6040518060400160405280600b81526020017f746f6b656e416d6f756e74000000000000000000000000000000000000000000815250866004015461237c565b610c786040518060400160405280601b81526020017f206164647265737342616c616e63655b6d73672e73656e6465725d0000000000815250600660003373ffffffffffffffffffffffffffffffffffffffff1673ffffffffffffffffffffffffffffffffffffffff1681526020019081526020016000205461237c565b610cb76040518060400160405280600d81526020017f746f6b656e4d75737450616964000000000000000000000000000000000000008152508261237c565b60008560010160009054906101000a900473ffffffffffffffffffffffffffffffffffffffff1690508073ffffffffffffffffffffffffffffffffffffffff166108fc839081150290604051600060405180830381858888f19350505050158015610d26573d6000803e3d6000fd5b50856009016000815480929190610d3c90613045565b9190505550610d846040518060400160405280600f81526020017f72642e7061796d656e74436f756e740000000000000000000000000000000000815250876009015461237c565b7fa5b38515d2d022b2ba1ab51c9d7e7a65562e00e923943d9f63bc0318392551cc878760090154604051610db992919061308d565b60405180910390a150505050505050565b6000600560008681526020019081526020016000205490506000600360008781526020019081526020016000209050600073ffffffffffffffffffffffffffffffffffffffff168160000160009054906101000a900473ffffffffffffffffffffffffffffffffffffffff1673ffffffffffffffffffffffffffffffffffffffff1603610e8c576040517f08c379a0000000000000000000000000000000000000000000000000000000008152600401610e8390613102565b60405180910390fd5b6000816004015414610ed3576040517f08c379a0000000000000000000000000000000000000000000000000000000008152600401610eca90613194565b60405180910390fd5b62093a808385610ee39190612dd0565b10158015610ef3575062278d0084105b610f32576040517f08c379a0000000000000000000000000000000000000000000000000000000008152600401610f2990613226565b60405180910390fd5b6040518060a001604052803373ffffffffffffffffffffffffffffffffffffffff1681526020013481526020018681526020018581526020018481525060046000888152602001908152602001600020600084815260200190815260200160002060008201518160000160006101000a81548173ffffffffffffffffffffffffffffffffffffffff021916908373ffffffffffffffffffffffffffffffffffffffff1602179055506020820151816001015560408201518160020155606082015181600301556080820151816004015590505060016005600088815260200190815260200160002060008282546110299190613011565b9250508190555034600660003373ffffffffffffffffffffffffffffffffffffffff1673ffffffffffffffffffffffffffffffffffffffff168152602001908152602001600020600082825461107f9190613011565b925050819055507f50f6b5023be496691b3891b86afe1c2608733fb577cf0e100d9d697d968f3075338784348989896040516110c19796959493929190613246565b60405180910390a1505050505050565b6007602052826000526040600020602052816000526040600020602052806000526040600020600092509250509054906101000a900460ff1681565b6000600660008373ffffffffffffffffffffffffffffffffffffffff1673ffffffffffffffffffffffffffffffffffffffff168152602001908152602001600020549050919050565b61115e612644565b6004600084815260200190815260200160002060008381526020019081526020016000206040518060a00160405290816000820160009054906101000a900473ffffffffffffffffffffffffffffffffffffffff1673ffffffffffffffffffffffffffffffffffffffff1673ffffffffffffffffffffffffffffffffffffffff168152602001600182015481526020016002820154815260200160038201548152602001600482015481525050905092915050565b60066020528060005260406000206000915090505481565b34600660003373ffffffffffffffffffffffffffffffffffffffff1673ffffffffffffffffffffffffffffffffffffffff168152602001908152602001600020600082825461127a9190613011565b92505081905550565b3373ffffffffffffffffffffffffffffffffffffffff168273ffffffffffffffffffffffffffffffffffffffff16636352211e836040518263ffffffff1660e01b81526004016112d39190612a1e565b602060405180830381865afa1580156112f0573d6000803e3d6000fd5b505050506040513d601f19601f8201168201806040525081019061131491906132ca565b73ffffffffffffffffffffffffffffffffffffffff161461136a576040517f08c379a000000000000000000000000000000000000000000000000000000000815260040161136190613343565b60405180910390fd5b60001515600760008473ffffffffffffffffffffffffffffffffffffffff1673ffffffffffffffffffffffffffffffffffffffff16815260200190815260200160002060003373ffffffffffffffffffffffffffffffffffffffff1673ffffffffffffffffffffffffffffffffffffffff168152602001908152602001600020600083815260200190815260200160002060009054906101000a900460ff1615151461144b576040517f08c379a0000000000000000000000000000000000000000000000000000000008152600401611442906133af565b60405180910390fd5b6040518061014001604052803373ffffffffffffffffffffffffffffffffffffffff168152602001600073ffffffffffffffffffffffffffffffffffffffff1681526020018373ffffffffffffffffffffffffffffffffffffffff16815260200182815260200160008152602001600081526020016000815260200160008152602001600081526020016000815250600360006114e86001612418565b815260200190815260200160002060008201518160000160006101000a81548173ffffffffffffffffffffffffffffffffffffffff021916908373ffffffffffffffffffffffffffffffffffffffff16021790555060208201518160010160006101000a81548173ffffffffffffffffffffffffffffffffffffffff021916908373ffffffffffffffffffffffffffffffffffffffff16021790555060408201518160020160006101000a81548173ffffffffffffffffffffffffffffffffffffffff021916908373ffffffffffffffffffffffffffffffffffffffff160217905550606082015181600301556080820151816004015560a0820151816005015560c0820151816006015560e08201518160070155610100820151816008015561012082015181600901559050506001600760008473ffffffffffffffffffffffffffffffffffffffff1673ffffffffffffffffffffffffffffffffffffffff16815260200190815260200160002060003373ffffffffffffffffffffffffffffffffffffffff1673ffffffffffffffffffffffffffffffffffffffff168152602001908152602001600020600083815260200190815260200160002060006101000a81548160ff0219169083151502179055507f9ab7201699b86631d498cffaafb83086e326cb6677b121cbf95e1417628681473383836116ea6001612418565b6040516116fa94939291906133cf565b60405180910390a161170c6001612426565b5050565b61171861243c565b60011515600260008373ffffffffffffffffffffffffffffffffffffffff1673ffffffffffffffffffffffffffffffffffffffff16815260200190815260200160002060009054906101000a900460ff161515036117ab576040517f08c379a00000000000000000000000000000000000000000000000000000000081526004016117a290613460565b60405180910390fd5b6000600260008373ffffffffffffffffffffffffffffffffffffffff1673ffffffffffffffffffffffffffffffffffffffff16815260200190815260200160002060006101000a81548160ff0219169083151502179055507f47a68d495ca67fd0a225bf31f11c6546e283fd92264120d78a882a9a30357bb4816040516118329190612b99565b60405180910390a150565b61184561243c565b60011515600260008373ffffffffffffffffffffffffffffffffffffffff1673ffffffffffffffffffffffffffffffffffffffff16815260200190815260200160002060009054906101000a900460ff161515036118d8576040517f08c379a00000000000000000000000000000000000000000000000000000000081526004016118cf906134cc565b60405180910390fd5b6001600260008373ffffffffffffffffffffffffffffffffffffffff1673ffffffffffffffffffffffffffffffffffffffff16815260200190815260200160002060006101000a81548160ff0219169083151502179055507f7fb5539ccc03b6d4621f2b708d17c807f41edb95f84db3fa93d785a4d9fe98898160405161195f9190612b99565b60405180910390a150565b61197261243c565b61197c60006124ba565b565b60026020528060005260406000206000915054906101000a900460ff1681565b60008060009054906101000a900473ffffffffffffffffffffffffffffffffffffffff16905090565b60056020528060005260406000206000915090505481565b60008060036000848152602001908152602001600020905060008160080154606483600501548460040154611a1491906134ec565b611a1e9190612dd0565b611a289190612dd0565b82600801548360040154611a3c9190612dd0565b611a469190613011565b90508092505050919050565b611a9a600660003373ffffffffffffffffffffffffffffffffffffffff1673ffffffffffffffffffffffffffffffffffffffff168152602001908152602001600020546122e3565b6000600660003373ffffffffffffffffffffffffffffffffffffffff1673ffffffffffffffffffffffffffffffffffffffff16815260200190815260200160002054905081811015611b21576040517f08c379a0000000000000000000000000000000000000000000000000000000008152600401611b189061357a565b60405180910390fd5b3373ffffffffffffffffffffffffffffffffffffffff166108fc839081150290604051600060405180830381858888f19350505050158015611b67573d6000803e3d6000fd5b508181611b749190612d6d565b600660003373ffffffffffffffffffffffffffffffffffffffff1673ffffffffffffffffffffffffffffffffffffffff16815260200190815260200160002081905550611bff600660003373ffffffffffffffffffffffffffffffffffffffff1673ffffffffffffffffffffffffffffffffffffffff168152602001908152602001600020546122e3565b5050565b813373ffffffffffffffffffffffffffffffffffffffff166003600083815260200190815260200160002060000160009054906101000a900473ffffffffffffffffffffffffffffffffffffffff1673ffffffffffffffffffffffffffffffffffffffff1614611ca8576040517f08c379a0000000000000000000000000000000000000000000000000000000008152600401611c9f906135e6565b60405180910390fd5b600060036000858152602001908152602001600020905060006004600086815260200190815260200160002060008581526020019081526020016000206040518060a00160405290816000820160009054906101000a900473ffffffffffffffffffffffffffffffffffffffff1673ffffffffffffffffffffffffffffffffffffffff1673ffffffffffffffffffffffffffffffffffffffff1681526020016001820154815260200160028201548152602001600382015481526020016004820154815250509050600073ffffffffffffffffffffffffffffffffffffffff16816000015173ffffffffffffffffffffffffffffffffffffffff1603611de3576040517f08c379a0000000000000000000000000000000000000000000000000000000008152600401611dda90613652565b60405180910390fd5b806020015160066000836000015173ffffffffffffffffffffffffffffffffffffffff1673ffffffffffffffffffffffffffffffffffffffff168152602001908152602001600020541015611e6d576040517f08c379a0000000000000000000000000000000000000000000000000000000008152600401611e64906136e4565b60405180910390fd5b80600001518260010160006101000a81548173ffffffffffffffffffffffffffffffffffffffff021916908373ffffffffffffffffffffffffffffffffffffffff160217905550806020015182600401819055508060400151826005018190555080606001518260060181905550806060015142611eeb9190613011565b82600701819055508060800151826008018190555060008260020160009054906101000a900473ffffffffffffffffffffffffffffffffffffffff1690508073ffffffffffffffffffffffffffffffffffffffff166323b872dd8460000160009054906101000a900473ffffffffffffffffffffffffffffffffffffffff163086600301546040518463ffffffff1660e01b8152600401611f8e93929190612e6d565b600060405180830381600087803b158015611fa857600080fd5b505af1158015611fbc573d6000803e3d6000fd5b5050505060003390508073ffffffffffffffffffffffffffffffffffffffff166108fc84602001519081150290604051600060405180830381858888f1935050505015801561200f573d6000803e3d6000fd5b50826020015160066000856000015173ffffffffffffffffffffffffffffffffffffffff1673ffffffffffffffffffffffffffffffffffffffff16815260200190815260200160002060008282546120679190612d6d565b925050819055507f8b3aca815e0141d6aae3d4f5be627d808bb2dce40bc3abf1bae0e53e6820440487878660000160009054906101000a900473ffffffffffffffffffffffffffffffffffffffff168760010160009054906101000a900473ffffffffffffffffffffffffffffffffffffffff168860020160009054906101000a900473ffffffffffffffffffffffffffffffffffffffff1689600301548a600401548b600501548c600601548d600701548e6008015460006040516121389c9b9a9998979695949392919061373f565b60405180910390a150505050505050565b61215161243c565b600073ffffffffffffffffffffffffffffffffffffffff168173ffffffffffffffffffffffffffffffffffffffff16036121c0576040517f08c379a00000000000000000000000000000000000000000000000000000000081526004016121b79061386b565b60405180910390fd5b6121c9816124ba565b50565b6004602052816000526040600020602052806000526040600020600091509150508060000160009054906101000a900473ffffffffffffffffffffffffffffffffffffffff16908060010154908060020154908060030154908060040154905085565b60036020528060005260406000206000915090508060000160009054906101000a900473ffffffffffffffffffffffffffffffffffffffff16908060010160009054906101000a900473ffffffffffffffffffffffffffffffffffffffff16908060020160009054906101000a900473ffffffffffffffffffffffffffffffffffffffff1690806003015490806004015490806005015490806006015490806007015490806008015490806009015490508a565b612379816040516024016122f79190612a1e565b6040516020818303038152906040527ff82c50f1000000000000000000000000000000000000000000000000000000007bffffffffffffffffffffffffffffffffffffffffffffffffffffffff19166020820180517bffffffffffffffffffffffffffffffffffffffffffffffffffffffff838183161783525050505061257e565b50565b612414828260405160240161239292919061390a565b6040516020818303038152906040527fb60e72cc000000000000000000000000000000000000000000000000000000007bffffffffffffffffffffffffffffffffffffffffffffffffffffffff19166020820180517bffffffffffffffffffffffffffffffffffffffffffffffffffffffff838183161783525050505061257e565b5050565b600081600001549050919050565b6001816000016000828254019250508190555050565b6124446125a7565b73ffffffffffffffffffffffffffffffffffffffff1661246261199e565b73ffffffffffffffffffffffffffffffffffffffff16146124b8576040517f08c379a00000000000000000000000000000000000000000000000000000000081526004016124af90613986565b60405180910390fd5b565b60008060009054906101000a900473ffffffffffffffffffffffffffffffffffffffff169050816000806101000a81548173ffffffffffffffffffffffffffffffffffffffff021916908373ffffffffffffffffffffffffffffffffffffffff1602179055508173ffffffffffffffffffffffffffffffffffffffff168173ffffffffffffffffffffffffffffffffffffffff167f8be0079c531659141344cd1fd0a4f28419497f9722a3daafe3b4186f6b6457e060405160405180910390a35050565b60008151905060006a636f6e736f6c652e6c6f679050602083016000808483855afa5050505050565b600033905090565b604051806101400160405280600073ffffffffffffffffffffffffffffffffffffffff168152602001600073ffffffffffffffffffffffffffffffffffffffff168152602001600073ffffffffffffffffffffffffffffffffffffffff168152602001600081526020016000815260200160008152602001600081526020016000815260200160008152602001600081525090565b6040518060a00160405280600073ffffffffffffffffffffffffffffffffffffffff168152602001600081526020016000815260200160008152602001600081525090565b600080fd5b6000819050919050565b6126a18161268e565b81146126ac57600080fd5b50565b6000813590506126be81612698565b92915050565b6000602082840312156126da576126d9612689565b5b60006126e8848285016126af565b91505092915050565b600073ffffffffffffffffffffffffffffffffffffffff82169050919050565b600061271c826126f1565b9050919050565b61272c81612711565b82525050565b6000819050919050565b600061275761275261274d846126f1565b612732565b6126f1565b9050919050565b60006127698261273c565b9050919050565b600061277b8261275e565b9050919050565b61278b81612770565b82525050565b61279a8161268e565b82525050565b610140820160008201516127b76000850182612723565b5060208201516127ca6020850182612723565b5060408201516127dd6040850182612782565b5060608201516127f06060850182612791565b5060808201516128036080850182612791565b5060a082015161281660a0850182612791565b5060c082015161282960c0850182612791565b5060e082015161283c60e0850182612791565b50610100820151612851610100850182612791565b50610120820151612866610120850182612791565b50505050565b60006101408201905061288260008301846127a0565b92915050565b600080600080608085870312156128a2576128a1612689565b5b60006128b0878288016126af565b94505060206128c1878288016126af565b93505060406128d2878288016126af565b92505060606128e3878288016126af565b91505092959194509250565b60006128fa82612711565b9050919050565b61290a816128ef565b811461291557600080fd5b50565b60008135905061292781612901565b92915050565b61293681612711565b811461294157600080fd5b50565b6000813590506129538161292d565b92915050565b60008060006060848603121561297257612971612689565b5b600061298086828701612918565b935050602061299186828701612944565b92505060406129a2868287016126af565b9150509250925092565b60008115159050919050565b6129c1816129ac565b82525050565b60006020820190506129dc60008301846129b8565b92915050565b6000602082840312156129f8576129f7612689565b5b6000612a0684828501612944565b91505092915050565b612a188161268e565b82525050565b6000602082019050612a336000830184612a0f565b92915050565b60008060408385031215612a5057612a4f612689565b5b6000612a5e858286016126af565b9250506020612a6f858286016126af565b9150509250929050565b6000612a84826126f1565b9050919050565b612a9481612a79565b82525050565b60a082016000820151612ab06000850182612a8b565b506020820151612ac36020850182612791565b506040820151612ad66040850182612791565b506060820151612ae96060850182612791565b506080820151612afc6080850182612791565b50505050565b600060a082019050612b176000830184612a9a565b92915050565b60008060408385031215612b3457612b33612689565b5b6000612b4285828601612918565b9250506020612b53858286016126af565b9150509250929050565b600060208284031215612b7357612b72612689565b5b6000612b8184828501612918565b91505092915050565b612b9381612711565b82525050565b6000602082019050612bae6000830184612b8a565b92915050565b612bbd81612a79565b82525050565b600060a082019050612bd86000830188612bb4565b612be56020830187612a0f565b612bf26040830186612a0f565b612bff6060830185612a0f565b612c0c6080830184612a0f565b9695505050505050565b612c1f81612770565b82525050565b600061014082019050612c3b600083018d612b8a565b612c48602083018c612b8a565b612c55604083018b612c16565b612c62606083018a612a0f565b612c6f6080830189612a0f565b612c7c60a0830188612a0f565b612c8960c0830187612a0f565b612c9660e0830186612a0f565b612ca4610100830185612a0f565b612cb2610120830184612a0f565b9b9a5050505050505050505050565b600082825260208201905092915050565b7f4c656e64696e673a206e6f742061626c6520746f206163636573730000000000600082015250565b6000612d08601b83612cc1565b9150612d1382612cd2565b602082019050919050565b60006020820190508181036000830152612d3781612cfb565b9050919050565b7f4e487b7100000000000000000000000000000000000000000000000000000000600052601160045260246000fd5b6000612d788261268e565b9150612d838361268e565b9250828203905081811115612d9b57612d9a612d3e565b5b92915050565b7f4e487b7100000000000000000000000000000000000000000000000000000000600052601260045260246000fd5b6000612ddb8261268e565b9150612de68361268e565b925082612df657612df5612da1565b5b828204905092915050565b7f4c656e64696e673a2052657175657374206f6e2074696d650000000000000000600082015250565b6000612e37601883612cc1565b9150612e4282612e01565b602082019050919050565b60006020820190508181036000830152612e6681612e2a565b9050919050565b6000606082019050612e826000830186612b8a565b612e8f6020830185612b8a565b612e9c6040830184612a0f565b949350505050565b6000604082019050612eb96000830185612a0f565b612ec66020830184612b8a565b9392505050565b7f4c656e64696e673a205061696420646f6e650000000000000000000000000000600082015250565b6000612f03601283612cc1565b9150612f0e82612ecd565b602082019050919050565b60006020820190508181036000830152612f3281612ef6565b9050919050565b7f4c656e64696e673a20526571756573742074696d65206f757400000000000000600082015250565b6000612f6f601983612cc1565b9150612f7a82612f39565b602082019050919050565b60006020820190508181036000830152612f9e81612f62565b9050919050565b7f4c656e64696e673a204e6f7420656e6f75676820657468000000000000000000600082015250565b6000612fdb601783612cc1565b9150612fe682612fa5565b602082019050919050565b6000602082019050818103600083015261300a81612fce565b9050919050565b600061301c8261268e565b91506130278361268e565b925082820190508082111561303f5761303e612d3e565b5b92915050565b60006130508261268e565b91507fffffffffffffffffffffffffffffffffffffffffffffffffffffffffffffffff820361308257613081612d3e565b5b600182019050919050565b60006040820190506130a26000830185612a0f565b6130af6020830184612a0f565b9392505050565b7f4c656e64696e673a2072656365697074206d7573742065786973740000000000600082015250565b60006130ec601b83612cc1565b91506130f7826130b6565b602082019050919050565b6000602082019050818103600083015261311b816130df565b9050919050565b7f4c656e64696e673a2072656365697074206d757374207374696c6c206176616960008201527f6c61626c65000000000000000000000000000000000000000000000000000000602082015250565b600061317e602583612cc1565b915061318982613122565b604082019050919050565b600060208201905081810360008301526131ad81613171565b9050919050565b7f4c656e64696e673a206f666665722074696d6520616e64207061796d656e742060008201527f74696d6520617265206e6f742076616c69640000000000000000000000000000602082015250565b6000613210603283612cc1565b915061321b826131b4565b604082019050919050565b6000602082019050818103600083015261323f81613203565b9050919050565b600060e08201905061325b600083018a612bb4565b6132686020830189612a0f565b6132756040830188612a0f565b6132826060830187612a0f565b61328f6080830186612a0f565b61329c60a0830185612a0f565b6132a960c0830184612a0f565b98975050505050505050565b6000815190506132c48161292d565b92915050565b6000602082840312156132e0576132df612689565b5b60006132ee848285016132b5565b91505092915050565b7f4c656e64696e673a2073656e646572206d7573742068617665204e4654000000600082015250565b600061332d601d83612cc1565b9150613338826132f7565b602082019050919050565b6000602082019050818103600083015261335c81613320565b9050919050565b7f4c656e64696e673a206e667420616c726561647920696e206d61726b65740000600082015250565b6000613399601e83612cc1565b91506133a482613363565b602082019050919050565b600060208201905081810360008301526133c88161338c565b9050919050565b60006080820190506133e46000830187612b8a565b6133f16020830186612c16565b6133fe6040830185612a0f565b61340b6060830184612a0f565b95945050505050565b7f416c726561647920756e2d7265676973746f7200000000000000000000000000600082015250565b600061344a601383612cc1565b915061345582613414565b602082019050919050565b600060208201905081810360008301526134798161343d565b9050919050565b7f416c7265616479207265676973746f7200000000000000000000000000000000600082015250565b60006134b6601083612cc1565b91506134c182613480565b602082019050919050565b600060208201905081810360008301526134e5816134a9565b9050919050565b60006134f78261268e565b91506135028361268e565b92508282026135108161268e565b9150828204841483151761352757613526612d3e565b5b5092915050565b7f496e76616c69642065746820616d6f756e740000000000000000000000000000600082015250565b6000613564601283612cc1565b915061356f8261352e565b602082019050919050565b6000602082019050818103600083015261359381613557565b9050919050565b7f4c656e64696e673a204d7573742062652056656e646f72000000000000000000600082015250565b60006135d0601783612cc1565b91506135db8261359a565b602082019050919050565b600060208201905081810360008301526135ff816135c3565b9050919050565b7f4c656e64696e673a206f66666572206d75737420657869737400000000000000600082015250565b600061363c601983612cc1565b915061364782613606565b602082019050919050565b6000602082019050818103600083015261366b8161362f565b9050919050565b7f4c656e64696e673a204c656e6465722062616c616e636520646f6573206e6f7460008201527f20737570706f7274000000000000000000000000000000000000000000000000602082015250565b60006136ce602883612cc1565b91506136d982613672565b604082019050919050565b600060208201905081810360008301526136fd816136c1565b9050919050565b6000819050919050565b600061372961372461371f84613704565b612732565b61268e565b9050919050565b6137398161370e565b82525050565b600061018082019050613755600083018f612a0f565b613762602083018e612a0f565b61376f604083018d612b8a565b61377c606083018c612b8a565b613789608083018b612c16565b61379660a083018a612a0f565b6137a360c0830189612a0f565b6137b060e0830188612a0f565b6137be610100830187612a0f565b6137cc610120830186612a0f565b6137da610140830185612a0f565b6137e8610160830184613730565b9d9c50505050505050505050505050565b7f4f776e61626c653a206e6577206f776e657220697320746865207a65726f206160008201527f6464726573730000000000000000000000000000000000000000000000000000602082015250565b6000613855602683612cc1565b9150613860826137f9565b604082019050919050565b6000602082019050818103600083015261388481613848565b9050919050565b600081519050919050565b60005b838110156138b4578082015181840152602081019050613899565b60008484015250505050565b6000601f19601f8301169050919050565b60006138dc8261388b565b6138e68185612cc1565b93506138f6818560208601613896565b6138ff816138c0565b840191505092915050565b6000604082019050818103600083015261392481856138d1565b90506139336020830184612a0f565b9392505050565b7f4f776e61626c653a2063616c6c6572206973206e6f7420746865206f776e6572600082015250565b6000613970602083612cc1565b915061397b8261393a565b602082019050919050565b6000602082019050818103600083015261399f81613963565b905091905056fea26469706673582212203d334ba6e2afc20d0cc651479631196a0bb7dcfbae8eb61b99596263c52022e264736f6c63430008110033",
  "linkReferences": {},
  "deployedLinkReferences": {}
}