{
  "_format": "hh-sol-artifact-1",
  "contractName": "LendingFactory",
  "sourceName": "contracts/LendingFactory.sol",
  "abi": [
    {
      "inputs": [],
      "stateMutability": "nonpayable",
      "type": "constructor"
    },
    {
      "anonymous": false,
      "inputs": [
        {
          "indexed": false,
          "internalType": "address payable",
          "name": "lender",
          "type": "address"
        },
        {
          "indexed": false,
          "internalType": "uint256",
          "name": "requestNumber",
          "type": "uint256"
        },
        {
          "indexed": false,
          "internalType": "uint256",
          "name": "offerNumber",
          "type": "uint256"
        },
        {
          "indexed": false,
          "internalType": "uint256",
          "name": "offerTokenAmount",
          "type": "uint256"
        },
        {
          "indexed": false,
          "internalType": "uint256",
          "name": "offerRate",
          "type": "uint256"
        },
        {
          "indexed": false,
          "internalType": "uint256",
          "name": "offerAmountOfTime",
          "type": "uint256"
        },
        {
          "indexed": false,
          "internalType": "uint256",
          "name": "offerPaymenTime",
          "type": "uint256"
        }
      ],
      "name": "LenderMakeOffer",
      "type": "event"
    },
    {
      "anonymous": false,
      "inputs": [
        {
          "indexed": true,
          "internalType": "address",
          "name": "previousOwner",
          "type": "address"
        },
        {
          "indexed": true,
          "internalType": "address",
          "name": "newOwner",
          "type": "address"
        }
      ],
      "name": "OwnershipTransferred",
      "type": "event"
    },
    {
      "anonymous": false,
      "inputs": [
        {
          "indexed": false,
          "internalType": "address",
          "name": "NFTAddress",
          "type": "address"
        }
      ],
      "name": "RegisterNFT",
      "type": "event"
    },
    {
      "anonymous": false,
      "inputs": [
        {
          "indexed": false,
          "internalType": "address",
          "name": "NFTAddress",
          "type": "address"
        }
      ],
      "name": "UnRegisterNFT",
      "type": "event"
    },
    {
      "anonymous": false,
      "inputs": [
        {
          "indexed": false,
          "internalType": "uint256",
          "name": "requestNumber",
          "type": "uint256"
        },
        {
          "indexed": false,
          "internalType": "uint256",
          "name": "offerNumber",
          "type": "uint256"
        },
        {
          "indexed": false,
          "internalType": "address",
          "name": "vendor",
          "type": "address"
        },
        {
          "indexed": false,
          "internalType": "address",
          "name": "lender",
          "type": "address"
        },
        {
          "indexed": false,
          "internalType": "contract ERC721",
          "name": "NFTAddress",
          "type": "address"
        },
        {
          "indexed": false,
          "internalType": "uint256",
          "name": "tokenId",
          "type": "uint256"
        },
        {
          "indexed": false,
          "internalType": "uint256",
          "name": "tokenAmount",
          "type": "uint256"
        },
        {
          "indexed": false,
          "internalType": "uint256",
          "name": "tokenRate",
          "type": "uint256"
        },
        {
          "indexed": false,
          "internalType": "uint256",
          "name": "amountOfTime",
          "type": "uint256"
        },
        {
          "indexed": false,
          "internalType": "uint256",
          "name": "deadLine",
          "type": "uint256"
        },
        {
          "indexed": false,
          "internalType": "uint256",
          "name": "paymentTime",
          "type": "uint256"
        },
        {
          "indexed": false,
          "internalType": "uint256",
          "name": "paymentCount",
          "type": "uint256"
        }
      ],
      "name": "VendorAcceptOffer",
      "type": "event"
    },
    {
      "anonymous": false,
      "inputs": [
        {
          "indexed": false,
          "internalType": "address",
          "name": "vendor",
          "type": "address"
        },
        {
          "indexed": false,
          "internalType": "contract ERC721",
          "name": "NFTAddress",
          "type": "address"
        },
        {
          "indexed": false,
          "internalType": "uint256",
          "name": "tokenId",
          "type": "uint256"
        },
        {
          "indexed": false,
          "internalType": "uint256",
          "name": "requestNumber",
          "type": "uint256"
        }
      ],
      "name": "VendorMakeRequest",
      "type": "event"
    },
    {
      "anonymous": false,
      "inputs": [
        {
          "indexed": false,
          "internalType": "uint256",
          "name": "requestNumber",
          "type": "uint256"
        },
        {
          "indexed": false,
          "internalType": "uint256",
          "name": "paidCounter",
          "type": "uint256"
        }
      ],
      "name": "VendorPayRountine",
      "type": "event"
    },
    {
      "anonymous": false,
      "inputs": [
        {
          "indexed": false,
          "internalType": "uint256",
          "name": "requestNumber",
          "type": "uint256"
        }
      ],
      "name": "VendorReddem",
      "type": "event"
    },
    {
      "anonymous": false,
      "inputs": [
        {
          "indexed": false,
          "internalType": "uint256",
          "name": "requestNumber",
          "type": "uint256"
        },
        {
          "indexed": false,
          "internalType": "address",
          "name": "_reciever",
          "type": "address"
        }
      ],
      "name": "WithDrawNFT",
      "type": "event"
    },
    {
      "inputs": [
        {
          "internalType": "address",
          "name": "",
          "type": "address"
        }
      ],
      "name": "addressBalance",
      "outputs": [
        {
          "internalType": "uint256",
          "name": "",
          "type": "uint256"
        }
      ],
      "stateMutability": "view",
      "type": "function"
    },
    {
      "inputs": [
        {
          "internalType": "uint256",
          "name": "_requestNumber",
          "type": "uint256"
        }
      ],
      "name": "checkAbleToWithDrawNft",
      "outputs": [
        {
          "internalType": "bool",
          "name": "",
          "type": "bool"
        }
      ],
      "stateMutability": "view",
      "type": "function"
    },
    {
      "inputs": [],
      "name": "depositEth",
      "outputs": [],
      "stateMutability": "payable",
      "type": "function"
    },
    {
      "inputs": [
        {
          "internalType": "address",
          "name": "checker",
          "type": "address"
        }
      ],
      "name": "getAddressBalance",
      "outputs": [
        {
          "internalType": "uint256",
          "name": "",
          "type": "uint256"
        }
      ],
      "stateMutability": "view",
      "type": "function"
    },
    {
      "inputs": [
        {
          "internalType": "uint256",
          "name": "_requestNumber",
          "type": "uint256"
        },
        {
          "internalType": "uint256",
          "name": "_offerNumber",
          "type": "uint256"
        }
      ],
      "name": "getOfferBook",
      "outputs": [
        {
          "components": [
            {
              "internalType": "address payable",
              "name": "lender",
              "type": "address"
            },
            {
              "internalType": "uint256",
              "name": "offerTokenAmount",
              "type": "uint256"
            },
            {
              "internalType": "uint256",
              "name": "offerRate",
              "type": "uint256"
            },
            {
              "internalType": "uint256",
              "name": "offerAmountOfTime",
              "type": "uint256"
            },
            {
              "internalType": "uint256",
              "name": "offerPaymentTime",
              "type": "uint256"
            }
          ],
          "internalType": "struct Offer.OfferDetail",
          "name": "",
          "type": "tuple"
        }
      ],
      "stateMutability": "view",
      "type": "function"
    },
    {
      "inputs": [
        {
          "internalType": "uint256",
          "name": "_requestNumber",
          "type": "uint256"
        }
      ],
      "name": "getReceiptBook",
      "outputs": [
        {
          "components": [
            {
              "internalType": "address",
              "name": "vendor",
              "type": "address"
            },
            {
              "internalType": "address",
              "name": "lender",
              "type": "address"
            },
            {
              "internalType": "contract ERC721",
              "name": "NFTAddress",
              "type": "address"
            },
            {
              "internalType": "uint256",
              "name": "tokenId",
              "type": "uint256"
            },
            {
              "internalType": "uint256",
              "name": "tokenAmount",
              "type": "uint256"
            },
            {
              "internalType": "uint256",
              "name": "tokenRate",
              "type": "uint256"
            },
            {
              "internalType": "uint256",
              "name": "amountOfTime",
              "type": "uint256"
            },
            {
              "internalType": "uint256",
              "name": "deadLine",
              "type": "uint256"
            },
            {
              "internalType": "uint256",
              "name": "paymentTime",
              "type": "uint256"
            },
            {
              "internalType": "uint256",
              "name": "paymentCount",
              "type": "uint256"
            }
          ],
          "internalType": "struct Receipt.ReceiptDetail",
          "name": "",
          "type": "tuple"
        }
      ],
      "stateMutability": "view",
      "type": "function"
    },
    {
      "inputs": [
        {
          "internalType": "uint256",
          "name": "_requestNumber",
          "type": "uint256"
        }
      ],
      "name": "getTokenMustPaidPerTime",
      "outputs": [
        {
          "internalType": "uint256",
          "name": "",
          "type": "uint256"
        }
      ],
      "stateMutability": "view",
      "type": "function"
    },
    {
      "inputs": [
        {
          "internalType": "uint256",
          "name": "_requestNumber",
          "type": "uint256"
        },
        {
          "internalType": "uint256",
          "name": "_offerRate",
          "type": "uint256"
        },
        {
          "internalType": "uint256",
          "name": "_amountOfTime",
          "type": "uint256"
        },
        {
          "internalType": "uint256",
          "name": "_paymentTime",
          "type": "uint256"
        }
      ],
      "name": "lenderMakeOffer",
      "outputs": [],
      "stateMutability": "payable",
      "type": "function"
    },
    {
      "inputs": [
        {
          "internalType": "contract ERC721",
          "name": "",
          "type": "address"
        },
        {
          "internalType": "address",
          "name": "",
          "type": "address"
        },
        {
          "internalType": "uint256",
          "name": "",
          "type": "uint256"
        }
      ],
      "name": "nftStatus",
      "outputs": [
        {
          "internalType": "bool",
          "name": "",
          "type": "bool"
        }
      ],
      "stateMutability": "view",
      "type": "function"
    },
    {
      "inputs": [
        {
          "internalType": "uint256",
          "name": "",
          "type": "uint256"
        },
        {
          "internalType": "uint256",
          "name": "",
          "type": "uint256"
        }
      ],
      "name": "offerBook",
      "outputs": [
        {
          "internalType": "address payable",
          "name": "lender",
          "type": "address"
        },
        {
          "internalType": "uint256",
          "name": "offerTokenAmount",
          "type": "uint256"
        },
        {
          "internalType": "uint256",
          "name": "offerRate",
          "type": "uint256"
        },
        {
          "internalType": "uint256",
          "name": "offerAmountOfTime",
          "type": "uint256"
        },
        {
          "internalType": "uint256",
          "name": "offerPaymentTime",
          "type": "uint256"
        }
      ],
      "stateMutability": "view",
      "type": "function"
    },
    {
      "inputs": [
        {
          "internalType": "uint256",
          "name": "",
          "type": "uint256"
        }
      ],
      "name": "offerOrder",
      "outputs": [
        {
          "internalType": "uint256",
          "name": "",
          "type": "uint256"
        }
      ],
      "stateMutability": "view",
      "type": "function"
    },
    {
      "inputs": [],
      "name": "owner",
      "outputs": [
        {
          "internalType": "address",
          "name": "",
          "type": "address"
        }
      ],
      "stateMutability": "view",
      "type": "function"
    },
    {
      "inputs": [
        {
          "internalType": "uint256",
          "name": "",
          "type": "uint256"
        }
      ],
      "name": "receiptBook",
      "outputs": [
        {
          "internalType": "address",
          "name": "vendor",
          "type": "address"
        },
        {
          "internalType": "address",
          "name": "lender",
          "type": "address"
        },
        {
          "internalType": "contract ERC721",
          "name": "NFTAddress",
          "type": "address"
        },
        {
          "internalType": "uint256",
          "name": "tokenId",
          "type": "uint256"
        },
        {
          "internalType": "uint256",
          "name": "tokenAmount",
          "type": "uint256"
        },
        {
          "internalType": "uint256",
          "name": "tokenRate",
          "type": "uint256"
        },
        {
          "internalType": "uint256",
          "name": "amountOfTime",
          "type": "uint256"
        },
        {
          "internalType": "uint256",
          "name": "deadLine",
          "type": "uint256"
        },
        {
          "internalType": "uint256",
          "name": "paymentTime",
          "type": "uint256"
        },
        {
          "internalType": "uint256",
          "name": "paymentCount",
          "type": "uint256"
        }
      ],
      "stateMutability": "view",
      "type": "function"
    },
    {
      "inputs": [
        {
          "internalType": "contract ERC721",
          "name": "_NFTAddress",
          "type": "address"
        }
      ],
      "name": "registerNFT",
      "outputs": [],
      "stateMutability": "nonpayable",
      "type": "function"
    },
    {
      "inputs": [
        {
          "internalType": "address",
          "name": "",
          "type": "address"
        }
      ],
      "name": "registerNFTs",
      "outputs": [
        {
          "internalType": "bool",
          "name": "",
          "type": "bool"
        }
      ],
      "stateMutability": "view",
      "type": "function"
    },
    {
      "inputs": [],
      "name": "renounceOwnership",
      "outputs": [],
      "stateMutability": "nonpayable",
      "type": "function"
    },
    {
      "inputs": [
        {
          "internalType": "address",
          "name": "newOwner",
          "type": "address"
        }
      ],
      "name": "transferOwnership",
      "outputs": [],
      "stateMutability": "nonpayable",
      "type": "function"
    },
    {
      "inputs": [
        {
          "internalType": "contract ERC721",
          "name": "_NFTAddress",
          "type": "address"
        }
      ],
      "name": "unRegisterNFT",
      "outputs": [],
      "stateMutability": "nonpayable",
      "type": "function"
    },
    {
      "inputs": [
        {
          "internalType": "uint256",
          "name": "_requestNumber",
          "type": "uint256"
        },
        {
          "internalType": "uint256",
          "name": "_offerNumber",
          "type": "uint256"
        }
      ],
      "name": "vendorAcceptOffer",
      "outputs": [],
      "stateMutability": "nonpayable",
      "type": "function"
    },
    {
      "inputs": [
        {
          "internalType": "contract ERC721",
          "name": "NFTAddress",
          "type": "address"
        },
        {
          "internalType": "uint256",
          "name": "tokenId",
          "type": "uint256"
        }
      ],
      "name": "vendorMakeRequest",
      "outputs": [],
      "stateMutability": "nonpayable",
      "type": "function"
    },
    {
      "inputs": [
        {
          "internalType": "uint256",
          "name": "_requestNumber",
          "type": "uint256"
        }
      ],
      "name": "vendorPayRountine",
      "outputs": [],
      "stateMutability": "payable",
      "type": "function"
    },
    {
      "inputs": [
        {
          "internalType": "uint256",
          "name": "token",
          "type": "uint256"
        }
      ],
      "name": "withdrawEth",
      "outputs": [],
      "stateMutability": "payable",
      "type": "function"
    },
    {
      "inputs": [
        {
          "internalType": "uint256",
          "name": "_requestNumber",
          "type": "uint256"
        }
      ],
      "name": "withdrawNFT",
      "outputs": [],
      "stateMutability": "nonpayable",
      "type": "function"
    }
  ],
  "bytecode": "0x60806040523480156200001157600080fd5b5062000032620000266200003860201b60201c565b6200004060201b60201c565b62000104565b600033905090565b60008060009054906101000a900473ffffffffffffffffffffffffffffffffffffffff169050816000806101000a81548173ffffffffffffffffffffffffffffffffffffffff021916908373ffffffffffffffffffffffffffffffffffffffff1602179055508173ffffffffffffffffffffffffffffffffffffffff168173ffffffffffffffffffffffffffffffffffffffff167f8be0079c531659141344cd1fd0a4f28419497f9722a3daafe3b4186f6b6457e060405160405180910390a35050565b61399f80620001146000396000f3fe6080604052600436106101405760003560e01c80636aaf1f38116100b6578063c311d0491161006f578063c311d04914610455578063cbb78c9a14610471578063f2fde38b1461049a578063fb3f28fe146104c3578063fdd5dccc14610504578063fdf586d71461054157610140565b80636aaf1f3814610333578063715018a61461035c57806376f59acf146103735780638da5cb5b146103b05780639e3b6c4c146103db578063a0925cbd1461041857610140565b8063350467221161010857806335046722146102205780633ca5da8d1461025d5780633ec4de351461029a578063439370b1146102d75780635f6fc51b146102e1578063665912c31461030a57610140565b8063023245d71461014557806312a1dc1d1461016e5780631d727b23146101ab5780631e90ca32146101c757806321576392146101e3575b600080fd5b34801561015157600080fd5b5061016c60048036038101906101679190612736565b610587565b005b34801561017a57600080fd5b5061019560048036038101906101909190612736565b610991565b6040516101a291906128de565b60405180910390f35b6101c560048036038101906101c09190612736565b610b07565b005b6101e160048036038101906101dc91906128fa565b610d7b565b005b3480156101ef57600080fd5b5061020a600480360381019061020591906129cb565b611082565b6040516102179190612a39565b60405180910390f35b34801561022c57600080fd5b5061024760048036038101906102429190612a54565b6110be565b6040516102549190612a90565b60405180910390f35b34801561026957600080fd5b50610284600480360381019061027f9190612aab565b611107565b6040516102919190612b74565b60405180910390f35b3480156102a657600080fd5b506102c160048036038101906102bc9190612a54565b6111c4565b6040516102ce9190612a90565b60405180910390f35b6102df6111dc565b005b3480156102ed57600080fd5b5061030860048036038101906103039190612b8f565b611234565b005b34801561031657600080fd5b50610331600480360381019061032c9190612bcf565b6116c1565b005b34801561033f57600080fd5b5061035a60048036038101906103559190612bcf565b6117ee565b005b34801561036857600080fd5b5061037161191b565b005b34801561037f57600080fd5b5061039a60048036038101906103959190612a54565b61192f565b6040516103a79190612a39565b60405180910390f35b3480156103bc57600080fd5b506103c561194f565b6040516103d29190612c0b565b60405180910390f35b3480156103e757600080fd5b5061040260048036038101906103fd9190612736565b611978565b60405161040f9190612a90565b60405180910390f35b34801561042457600080fd5b5061043f600480360381019061043a9190612736565b611990565b60405161044c9190612a90565b60405180910390f35b61046f600480360381019061046a9190612736565b611a03565b005b34801561047d57600080fd5b5061049860048036038101906104939190612aab565b611bb4565b005b3480156104a657600080fd5b506104c160048036038101906104bc9190612a54565b6120fa565b005b3480156104cf57600080fd5b506104ea60048036038101906104e59190612aab565b61217d565b6040516104fb959493929190612c35565b60405180910390f35b34801561051057600080fd5b5061052b60048036038101906105269190612736565b6121e0565b6040516105389190612a39565b60405180910390f35b34801561054d57600080fd5b5061056860048036038101906105639190612736565b61233d565b60405161057e9a99989796959493929190612c97565b60405180910390f35b600060036000838152602001908152602001600020905060008160020160009054906101000a900473ffffffffffffffffffffffffffffffffffffffff1690508160000160009054906101000a900473ffffffffffffffffffffffffffffffffffffffff1673ffffffffffffffffffffffffffffffffffffffff163373ffffffffffffffffffffffffffffffffffffffff16148061067457508160010160009054906101000a900473ffffffffffffffffffffffffffffffffffffffff1673ffffffffffffffffffffffffffffffffffffffff163373ffffffffffffffffffffffffffffffffffffffff16145b6106b3576040517f08c379a00000000000000000000000000000000000000000000000000000000081526004016106aa90612d90565b60405180910390fd5b8160010160009054906101000a900473ffffffffffffffffffffffffffffffffffffffff1673ffffffffffffffffffffffffffffffffffffffff163373ffffffffffffffffffffffffffffffffffffffff16036107a3576000826006015483600701546107209190612ddf565b90506000836008015484600601546107389190612e42565b905060008183426107499190612ddf565b6107539190612e42565b90508085600901541061079b576040517f08c379a000000000000000000000000000000000000000000000000000000000815260040161079290612ebf565b60405180910390fd5b5050506107ee565b81600801548260090154146107ed576040517f08c379a00000000000000000000000000000000000000000000000000000000081526004016107e490612ebf565b60405180910390fd5b5b6000600760008460020160009054906101000a900473ffffffffffffffffffffffffffffffffffffffff1673ffffffffffffffffffffffffffffffffffffffff1673ffffffffffffffffffffffffffffffffffffffff16815260200190815260200160002060008460000160009054906101000a900473ffffffffffffffffffffffffffffffffffffffff1673ffffffffffffffffffffffffffffffffffffffff1673ffffffffffffffffffffffffffffffffffffffff16815260200190815260200160002060008460030154815260200190815260200160002060006101000a81548160ff0219169083151502179055508073ffffffffffffffffffffffffffffffffffffffff166323b872dd303385600301546040518463ffffffff1660e01b815260040161092193929190612edf565b600060405180830381600087803b15801561093b57600080fd5b505af115801561094f573d6000803e3d6000fd5b505050507fc11b01f2a3c991d770c6779a695f6264d7189edc3e57260ec9a7f70a447452958333604051610984929190612f16565b60405180910390a1505050565b610999612621565b60036000838152602001908152602001600020604051806101400160405290816000820160009054906101000a900473ffffffffffffffffffffffffffffffffffffffff1673ffffffffffffffffffffffffffffffffffffffff1673ffffffffffffffffffffffffffffffffffffffff1681526020016001820160009054906101000a900473ffffffffffffffffffffffffffffffffffffffff1673ffffffffffffffffffffffffffffffffffffffff1673ffffffffffffffffffffffffffffffffffffffff1681526020016002820160009054906101000a900473ffffffffffffffffffffffffffffffffffffffff1673ffffffffffffffffffffffffffffffffffffffff1673ffffffffffffffffffffffffffffffffffffffff1681526020016003820154815260200160048201548152602001600582015481526020016006820154815260200160078201548152602001600882015481526020016009820154815250509050919050565b6000600360008381526020019081526020016000209050600081600601548260070154610b349190612ddf565b9050600082600801548360060154610b4c9190612e42565b90506000818342610b5d9190612ddf565b610b679190612e42565b90508360090154846008015403610bb3576040517f08c379a0000000000000000000000000000000000000000000000000000000008152600401610baa90612f8b565b60405180910390fd5b8084600901541015610bfa576040517f08c379a0000000000000000000000000000000000000000000000000000000008152600401610bf190612ff7565b60405180910390fd5b6000610c0586611990565b905080341015610c4a576040517f08c379a0000000000000000000000000000000000000000000000000000000008152600401610c4190613063565b60405180910390fd5b8034610c569190612ddf565b600660003373ffffffffffffffffffffffffffffffffffffffff1673ffffffffffffffffffffffffffffffffffffffff1681526020019081526020016000206000828254610ca49190613083565b9250508190555060008560010160009054906101000a900473ffffffffffffffffffffffffffffffffffffffff1690508073ffffffffffffffffffffffffffffffffffffffff166108fc839081150290604051600060405180830381858888f19350505050158015610d1a573d6000803e3d6000fd5b50856009016000815480929190610d30906130b7565b91905055507fa5b38515d2d022b2ba1ab51c9d7e7a65562e00e923943d9f63bc0318392551cc878760090154604051610d6a9291906130ff565b60405180910390a150505050505050565b6000600560008681526020019081526020016000205490506000600360008781526020019081526020016000209050600073ffffffffffffffffffffffffffffffffffffffff168160000160009054906101000a900473ffffffffffffffffffffffffffffffffffffffff1673ffffffffffffffffffffffffffffffffffffffff1603610e3d576040517f08c379a0000000000000000000000000000000000000000000000000000000008152600401610e3490613174565b60405180910390fd5b6000816004015414610e84576040517f08c379a0000000000000000000000000000000000000000000000000000000008152600401610e7b90613206565b60405180910390fd5b62093a808385610e949190612e42565b10158015610ea4575062278d0084105b610ee3576040517f08c379a0000000000000000000000000000000000000000000000000000000008152600401610eda90613298565b60405180910390fd5b6040518060a001604052803373ffffffffffffffffffffffffffffffffffffffff1681526020013481526020018681526020018581526020018481525060046000888152602001908152602001600020600084815260200190815260200160002060008201518160000160006101000a81548173ffffffffffffffffffffffffffffffffffffffff021916908373ffffffffffffffffffffffffffffffffffffffff160217905550602082015181600101556040820151816002015560608201518160030155608082015181600401559050506001600560008881526020019081526020016000206000828254610fda9190613083565b9250508190555034600660003373ffffffffffffffffffffffffffffffffffffffff1673ffffffffffffffffffffffffffffffffffffffff16815260200190815260200160002060008282546110309190613083565b925050819055507f50f6b5023be496691b3891b86afe1c2608733fb577cf0e100d9d697d968f30753387843489898960405161107297969594939291906132b8565b60405180910390a1505050505050565b6007602052826000526040600020602052816000526040600020602052806000526040600020600092509250509054906101000a900460ff1681565b6000600660008373ffffffffffffffffffffffffffffffffffffffff1673ffffffffffffffffffffffffffffffffffffffff168152602001908152602001600020549050919050565b61110f6126b6565b6004600084815260200190815260200160002060008381526020019081526020016000206040518060a00160405290816000820160009054906101000a900473ffffffffffffffffffffffffffffffffffffffff1673ffffffffffffffffffffffffffffffffffffffff1673ffffffffffffffffffffffffffffffffffffffff168152602001600182015481526020016002820154815260200160038201548152602001600482015481525050905092915050565b60066020528060005260406000206000915090505481565b34600660003373ffffffffffffffffffffffffffffffffffffffff1673ffffffffffffffffffffffffffffffffffffffff168152602001908152602001600020600082825461122b9190613083565b92505081905550565b3373ffffffffffffffffffffffffffffffffffffffff168273ffffffffffffffffffffffffffffffffffffffff16636352211e836040518263ffffffff1660e01b81526004016112849190612a90565b602060405180830381865afa1580156112a1573d6000803e3d6000fd5b505050506040513d601f19601f820116820180604052508101906112c5919061333c565b73ffffffffffffffffffffffffffffffffffffffff161461131b576040517f08c379a0000000000000000000000000000000000000000000000000000000008152600401611312906133b5565b60405180910390fd5b60001515600760008473ffffffffffffffffffffffffffffffffffffffff1673ffffffffffffffffffffffffffffffffffffffff16815260200190815260200160002060003373ffffffffffffffffffffffffffffffffffffffff1673ffffffffffffffffffffffffffffffffffffffff168152602001908152602001600020600083815260200190815260200160002060009054906101000a900460ff161515146113fc576040517f08c379a00000000000000000000000000000000000000000000000000000000081526004016113f390613421565b60405180910390fd5b6040518061014001604052803373ffffffffffffffffffffffffffffffffffffffff168152602001600073ffffffffffffffffffffffffffffffffffffffff1681526020018373ffffffffffffffffffffffffffffffffffffffff168152602001828152602001600081526020016000815260200160008152602001600081526020016000815260200160008152506003600061149960016123f1565b815260200190815260200160002060008201518160000160006101000a81548173ffffffffffffffffffffffffffffffffffffffff021916908373ffffffffffffffffffffffffffffffffffffffff16021790555060208201518160010160006101000a81548173ffffffffffffffffffffffffffffffffffffffff021916908373ffffffffffffffffffffffffffffffffffffffff16021790555060408201518160020160006101000a81548173ffffffffffffffffffffffffffffffffffffffff021916908373ffffffffffffffffffffffffffffffffffffffff160217905550606082015181600301556080820151816004015560a0820151816005015560c0820151816006015560e08201518160070155610100820151816008015561012082015181600901559050506001600760008473ffffffffffffffffffffffffffffffffffffffff1673ffffffffffffffffffffffffffffffffffffffff16815260200190815260200160002060003373ffffffffffffffffffffffffffffffffffffffff1673ffffffffffffffffffffffffffffffffffffffff168152602001908152602001600020600083815260200190815260200160002060006101000a81548160ff0219169083151502179055507f9ab7201699b86631d498cffaafb83086e326cb6677b121cbf95e14176286814733838361169b60016123f1565b6040516116ab9493929190613441565b60405180910390a16116bd60016123ff565b5050565b6116c9612415565b60011515600260008373ffffffffffffffffffffffffffffffffffffffff1673ffffffffffffffffffffffffffffffffffffffff16815260200190815260200160002060009054906101000a900460ff1615150361175c576040517f08c379a0000000000000000000000000000000000000000000000000000000008152600401611753906134d2565b60405180910390fd5b6000600260008373ffffffffffffffffffffffffffffffffffffffff1673ffffffffffffffffffffffffffffffffffffffff16815260200190815260200160002060006101000a81548160ff0219169083151502179055507f47a68d495ca67fd0a225bf31f11c6546e283fd92264120d78a882a9a30357bb4816040516117e39190612c0b565b60405180910390a150565b6117f6612415565b60011515600260008373ffffffffffffffffffffffffffffffffffffffff1673ffffffffffffffffffffffffffffffffffffffff16815260200190815260200160002060009054906101000a900460ff16151503611889576040517f08c379a00000000000000000000000000000000000000000000000000000000081526004016118809061353e565b60405180910390fd5b6001600260008373ffffffffffffffffffffffffffffffffffffffff1673ffffffffffffffffffffffffffffffffffffffff16815260200190815260200160002060006101000a81548160ff0219169083151502179055507f7fb5539ccc03b6d4621f2b708d17c807f41edb95f84db3fa93d785a4d9fe9889816040516119109190612c0b565b60405180910390a150565b611923612415565b61192d6000612493565b565b60026020528060005260406000206000915054906101000a900460ff1681565b60008060009054906101000a900473ffffffffffffffffffffffffffffffffffffffff16905090565b60056020528060005260406000206000915090505481565b600080600360008481526020019081526020016000209050600081600801546064836005015484600401546119c5919061355e565b6119cf9190612e42565b6119d99190612e42565b826008015483600401546119ed9190612e42565b6119f79190613083565b90508092505050919050565b611a4b600660003373ffffffffffffffffffffffffffffffffffffffff1673ffffffffffffffffffffffffffffffffffffffff16815260200190815260200160002054612557565b6000600660003373ffffffffffffffffffffffffffffffffffffffff1673ffffffffffffffffffffffffffffffffffffffff16815260200190815260200160002054905081811015611ad2576040517f08c379a0000000000000000000000000000000000000000000000000000000008152600401611ac9906135ec565b60405180910390fd5b3373ffffffffffffffffffffffffffffffffffffffff166108fc839081150290604051600060405180830381858888f19350505050158015611b18573d6000803e3d6000fd5b508181611b259190612ddf565b600660003373ffffffffffffffffffffffffffffffffffffffff1673ffffffffffffffffffffffffffffffffffffffff16815260200190815260200160002081905550611bb0600660003373ffffffffffffffffffffffffffffffffffffffff1673ffffffffffffffffffffffffffffffffffffffff16815260200190815260200160002054612557565b5050565b813373ffffffffffffffffffffffffffffffffffffffff166003600083815260200190815260200160002060000160009054906101000a900473ffffffffffffffffffffffffffffffffffffffff1673ffffffffffffffffffffffffffffffffffffffff1614611c59576040517f08c379a0000000000000000000000000000000000000000000000000000000008152600401611c5090613658565b60405180910390fd5b600060036000858152602001908152602001600020905060006004600086815260200190815260200160002060008581526020019081526020016000206040518060a00160405290816000820160009054906101000a900473ffffffffffffffffffffffffffffffffffffffff1673ffffffffffffffffffffffffffffffffffffffff1673ffffffffffffffffffffffffffffffffffffffff1681526020016001820154815260200160028201548152602001600382015481526020016004820154815250509050600073ffffffffffffffffffffffffffffffffffffffff16816000015173ffffffffffffffffffffffffffffffffffffffff1603611d94576040517f08c379a0000000000000000000000000000000000000000000000000000000008152600401611d8b906136c4565b60405180910390fd5b806020015160066000836000015173ffffffffffffffffffffffffffffffffffffffff1673ffffffffffffffffffffffffffffffffffffffff168152602001908152602001600020541015611e1e576040517f08c379a0000000000000000000000000000000000000000000000000000000008152600401611e1590613756565b60405180910390fd5b80600001518260010160006101000a81548173ffffffffffffffffffffffffffffffffffffffff021916908373ffffffffffffffffffffffffffffffffffffffff160217905550806020015182600401819055508060400151826005018190555080606001518260060181905550806060015142611e9c9190613083565b82600701819055508060800151826008018190555060008260020160009054906101000a900473ffffffffffffffffffffffffffffffffffffffff1690508073ffffffffffffffffffffffffffffffffffffffff166323b872dd8460000160009054906101000a900473ffffffffffffffffffffffffffffffffffffffff163086600301546040518463ffffffff1660e01b8152600401611f3f93929190612edf565b600060405180830381600087803b158015611f5957600080fd5b505af1158015611f6d573d6000803e3d6000fd5b5050505060003390508073ffffffffffffffffffffffffffffffffffffffff166108fc84602001519081150290604051600060405180830381858888f19350505050158015611fc0573d6000803e3d6000fd5b50826020015160066000856000015173ffffffffffffffffffffffffffffffffffffffff1673ffffffffffffffffffffffffffffffffffffffff16815260200190815260200160002060008282546120189190612ddf565b925050819055507f8b3aca815e0141d6aae3d4f5be627d808bb2dce40bc3abf1bae0e53e6820440487878660000160009054906101000a900473ffffffffffffffffffffffffffffffffffffffff168760010160009054906101000a900473ffffffffffffffffffffffffffffffffffffffff168860020160009054906101000a900473ffffffffffffffffffffffffffffffffffffffff1689600301548a600401548b600501548c600601548d600701548e6008015460006040516120e99c9b9a999897969594939291906137b1565b60405180910390a150505050505050565b612102612415565b600073ffffffffffffffffffffffffffffffffffffffff168173ffffffffffffffffffffffffffffffffffffffff1603612171576040517f08c379a0000000000000000000000000000000000000000000000000000000008152600401612168906138dd565b60405180910390fd5b61217a81612493565b50565b6004602052816000526040600020602052806000526040600020600091509150508060000160009054906101000a900473ffffffffffffffffffffffffffffffffffffffff16908060010154908060020154908060030154908060040154905085565b6000806003600084815260200190815260200160002090508060010160009054906101000a900473ffffffffffffffffffffffffffffffffffffffff1673ffffffffffffffffffffffffffffffffffffffff163373ffffffffffffffffffffffffffffffffffffffff16036122e8576000816006015482600701546122659190612ddf565b905060008260080154836006015461227d9190612e42565b9050600081834261228e9190612ddf565b6122989190612e42565b9050808460090154106122e0576040517f08c379a00000000000000000000000000000000000000000000000000000000081526004016122d790612ebf565b60405180910390fd5b505050612333565b8060080154816009015414612332576040517f08c379a000000000000000000000000000000000000000000000000000000000815260040161232990612ebf565b60405180910390fd5b5b6001915050919050565b60036020528060005260406000206000915090508060000160009054906101000a900473ffffffffffffffffffffffffffffffffffffffff16908060010160009054906101000a900473ffffffffffffffffffffffffffffffffffffffff16908060020160009054906101000a900473ffffffffffffffffffffffffffffffffffffffff1690806003015490806004015490806005015490806006015490806007015490806008015490806009015490508a565b600081600001549050919050565b6001816000016000828254019250508190555050565b61241d6125f0565b73ffffffffffffffffffffffffffffffffffffffff1661243b61194f565b73ffffffffffffffffffffffffffffffffffffffff1614612491576040517f08c379a000000000000000000000000000000000000000000000000000000000815260040161248890613949565b60405180910390fd5b565b60008060009054906101000a900473ffffffffffffffffffffffffffffffffffffffff169050816000806101000a81548173ffffffffffffffffffffffffffffffffffffffff021916908373ffffffffffffffffffffffffffffffffffffffff1602179055508173ffffffffffffffffffffffffffffffffffffffff168173ffffffffffffffffffffffffffffffffffffffff167f8be0079c531659141344cd1fd0a4f28419497f9722a3daafe3b4186f6b6457e060405160405180910390a35050565b6125ed8160405160240161256b9190612a90565b6040516020818303038152906040527ff82c50f1000000000000000000000000000000000000000000000000000000007bffffffffffffffffffffffffffffffffffffffffffffffffffffffff19166020820180517bffffffffffffffffffffffffffffffffffffffffffffffffffffffff83818316178352505050506125f8565b50565b600033905090565b60008151905060006a636f6e736f6c652e6c6f679050602083016000808483855afa5050505050565b604051806101400160405280600073ffffffffffffffffffffffffffffffffffffffff168152602001600073ffffffffffffffffffffffffffffffffffffffff168152602001600073ffffffffffffffffffffffffffffffffffffffff168152602001600081526020016000815260200160008152602001600081526020016000815260200160008152602001600081525090565b6040518060a00160405280600073ffffffffffffffffffffffffffffffffffffffff168152602001600081526020016000815260200160008152602001600081525090565b600080fd5b6000819050919050565b61271381612700565b811461271e57600080fd5b50565b6000813590506127308161270a565b92915050565b60006020828403121561274c5761274b6126fb565b5b600061275a84828501612721565b91505092915050565b600073ffffffffffffffffffffffffffffffffffffffff82169050919050565b600061278e82612763565b9050919050565b61279e81612783565b82525050565b6000819050919050565b60006127c96127c46127bf84612763565b6127a4565b612763565b9050919050565b60006127db826127ae565b9050919050565b60006127ed826127d0565b9050919050565b6127fd816127e2565b82525050565b61280c81612700565b82525050565b610140820160008201516128296000850182612795565b50602082015161283c6020850182612795565b50604082015161284f60408501826127f4565b5060608201516128626060850182612803565b5060808201516128756080850182612803565b5060a082015161288860a0850182612803565b5060c082015161289b60c0850182612803565b5060e08201516128ae60e0850182612803565b506101008201516128c3610100850182612803565b506101208201516128d8610120850182612803565b50505050565b6000610140820190506128f46000830184612812565b92915050565b60008060008060808587031215612914576129136126fb565b5b600061292287828801612721565b945050602061293387828801612721565b935050604061294487828801612721565b925050606061295587828801612721565b91505092959194509250565b600061296c82612783565b9050919050565b61297c81612961565b811461298757600080fd5b50565b60008135905061299981612973565b92915050565b6129a881612783565b81146129b357600080fd5b50565b6000813590506129c58161299f565b92915050565b6000806000606084860312156129e4576129e36126fb565b5b60006129f28682870161298a565b9350506020612a03868287016129b6565b9250506040612a1486828701612721565b9150509250925092565b60008115159050919050565b612a3381612a1e565b82525050565b6000602082019050612a4e6000830184612a2a565b92915050565b600060208284031215612a6a57612a696126fb565b5b6000612a78848285016129b6565b91505092915050565b612a8a81612700565b82525050565b6000602082019050612aa56000830184612a81565b92915050565b60008060408385031215612ac257612ac16126fb565b5b6000612ad085828601612721565b9250506020612ae185828601612721565b9150509250929050565b6000612af682612763565b9050919050565b612b0681612aeb565b82525050565b60a082016000820151612b226000850182612afd565b506020820151612b356020850182612803565b506040820151612b486040850182612803565b506060820151612b5b6060850182612803565b506080820151612b6e6080850182612803565b50505050565b600060a082019050612b896000830184612b0c565b92915050565b60008060408385031215612ba657612ba56126fb565b5b6000612bb48582860161298a565b9250506020612bc585828601612721565b9150509250929050565b600060208284031215612be557612be46126fb565b5b6000612bf38482850161298a565b91505092915050565b612c0581612783565b82525050565b6000602082019050612c206000830184612bfc565b92915050565b612c2f81612aeb565b82525050565b600060a082019050612c4a6000830188612c26565b612c576020830187612a81565b612c646040830186612a81565b612c716060830185612a81565b612c7e6080830184612a81565b9695505050505050565b612c91816127e2565b82525050565b600061014082019050612cad600083018d612bfc565b612cba602083018c612bfc565b612cc7604083018b612c88565b612cd4606083018a612a81565b612ce16080830189612a81565b612cee60a0830188612a81565b612cfb60c0830187612a81565b612d0860e0830186612a81565b612d16610100830185612a81565b612d24610120830184612a81565b9b9a5050505050505050505050565b600082825260208201905092915050565b7f4c656e64696e673a206e6f742061626c6520746f206163636573730000000000600082015250565b6000612d7a601b83612d33565b9150612d8582612d44565b602082019050919050565b60006020820190508181036000830152612da981612d6d565b9050919050565b7f4e487b7100000000000000000000000000000000000000000000000000000000600052601160045260246000fd5b6000612dea82612700565b9150612df583612700565b9250828203905081811115612e0d57612e0c612db0565b5b92915050565b7f4e487b7100000000000000000000000000000000000000000000000000000000600052601260045260246000fd5b6000612e4d82612700565b9150612e5883612700565b925082612e6857612e67612e13565b5b828204905092915050565b7f4c656e64696e673a2052657175657374206f6e2074696d650000000000000000600082015250565b6000612ea9601883612d33565b9150612eb482612e73565b602082019050919050565b60006020820190508181036000830152612ed881612e9c565b9050919050565b6000606082019050612ef46000830186612bfc565b612f016020830185612bfc565b612f0e6040830184612a81565b949350505050565b6000604082019050612f2b6000830185612a81565b612f386020830184612bfc565b9392505050565b7f4c656e64696e673a205061696420646f6e650000000000000000000000000000600082015250565b6000612f75601283612d33565b9150612f8082612f3f565b602082019050919050565b60006020820190508181036000830152612fa481612f68565b9050919050565b7f4c656e64696e673a20526571756573742074696d65206f757400000000000000600082015250565b6000612fe1601983612d33565b9150612fec82612fab565b602082019050919050565b6000602082019050818103600083015261301081612fd4565b9050919050565b7f4c656e64696e673a204e6f7420656e6f75676820657468000000000000000000600082015250565b600061304d601783612d33565b915061305882613017565b602082019050919050565b6000602082019050818103600083015261307c81613040565b9050919050565b600061308e82612700565b915061309983612700565b92508282019050808211156130b1576130b0612db0565b5b92915050565b60006130c282612700565b91507fffffffffffffffffffffffffffffffffffffffffffffffffffffffffffffffff82036130f4576130f3612db0565b5b600182019050919050565b60006040820190506131146000830185612a81565b6131216020830184612a81565b9392505050565b7f4c656e64696e673a2072656365697074206d7573742065786973740000000000600082015250565b600061315e601b83612d33565b915061316982613128565b602082019050919050565b6000602082019050818103600083015261318d81613151565b9050919050565b7f4c656e64696e673a2072656365697074206d757374207374696c6c206176616960008201527f6c61626c65000000000000000000000000000000000000000000000000000000602082015250565b60006131f0602583612d33565b91506131fb82613194565b604082019050919050565b6000602082019050818103600083015261321f816131e3565b9050919050565b7f4c656e64696e673a206f666665722074696d6520616e64207061796d656e742060008201527f74696d6520617265206e6f742076616c69640000000000000000000000000000602082015250565b6000613282603283612d33565b915061328d82613226565b604082019050919050565b600060208201905081810360008301526132b181613275565b9050919050565b600060e0820190506132cd600083018a612c26565b6132da6020830189612a81565b6132e76040830188612a81565b6132f46060830187612a81565b6133016080830186612a81565b61330e60a0830185612a81565b61331b60c0830184612a81565b98975050505050505050565b6000815190506133368161299f565b92915050565b600060208284031215613352576133516126fb565b5b600061336084828501613327565b91505092915050565b7f4c656e64696e673a2073656e646572206d7573742068617665204e4654000000600082015250565b600061339f601d83612d33565b91506133aa82613369565b602082019050919050565b600060208201905081810360008301526133ce81613392565b9050919050565b7f4c656e64696e673a206e667420616c726561647920696e206d61726b65740000600082015250565b600061340b601e83612d33565b9150613416826133d5565b602082019050919050565b6000602082019050818103600083015261343a816133fe565b9050919050565b60006080820190506134566000830187612bfc565b6134636020830186612c88565b6134706040830185612a81565b61347d6060830184612a81565b95945050505050565b7f416c726561647920756e2d7265676973746f7200000000000000000000000000600082015250565b60006134bc601383612d33565b91506134c782613486565b602082019050919050565b600060208201905081810360008301526134eb816134af565b9050919050565b7f416c7265616479207265676973746f7200000000000000000000000000000000600082015250565b6000613528601083612d33565b9150613533826134f2565b602082019050919050565b600060208201905081810360008301526135578161351b565b9050919050565b600061356982612700565b915061357483612700565b925082820261358281612700565b9150828204841483151761359957613598612db0565b5b5092915050565b7f496e76616c69642065746820616d6f756e740000000000000000000000000000600082015250565b60006135d6601283612d33565b91506135e1826135a0565b602082019050919050565b60006020820190508181036000830152613605816135c9565b9050919050565b7f4c656e64696e673a204d7573742062652056656e646f72000000000000000000600082015250565b6000613642601783612d33565b915061364d8261360c565b602082019050919050565b6000602082019050818103600083015261367181613635565b9050919050565b7f4c656e64696e673a206f66666572206d75737420657869737400000000000000600082015250565b60006136ae601983612d33565b91506136b982613678565b602082019050919050565b600060208201905081810360008301526136dd816136a1565b9050919050565b7f4c656e64696e673a204c656e6465722062616c616e636520646f6573206e6f7460008201527f20737570706f7274000000000000000000000000000000000000000000000000602082015250565b6000613740602883612d33565b915061374b826136e4565b604082019050919050565b6000602082019050818103600083015261376f81613733565b9050919050565b6000819050919050565b600061379b61379661379184613776565b6127a4565b612700565b9050919050565b6137ab81613780565b82525050565b6000610180820190506137c7600083018f612a81565b6137d4602083018e612a81565b6137e1604083018d612bfc565b6137ee606083018c612bfc565b6137fb608083018b612c88565b61380860a083018a612a81565b61381560c0830189612a81565b61382260e0830188612a81565b613830610100830187612a81565b61383e610120830186612a81565b61384c610140830185612a81565b61385a6101608301846137a2565b9d9c50505050505050505050505050565b7f4f776e61626c653a206e6577206f776e657220697320746865207a65726f206160008201527f6464726573730000000000000000000000000000000000000000000000000000602082015250565b60006138c7602683612d33565b91506138d28261386b565b604082019050919050565b600060208201905081810360008301526138f6816138ba565b9050919050565b7f4f776e61626c653a2063616c6c6572206973206e6f7420746865206f776e6572600082015250565b6000613933602083612d33565b915061393e826138fd565b602082019050919050565b6000602082019050818103600083015261396281613926565b905091905056fea2646970667358221220054c5abd2d93f908174e41b29073c4c8e377ccb37ea5719f4ea2695c98230b7864736f6c63430008110033",
  "linkReferences": {},
  "deployedLinkReferences": {}
}